{"contracts/ChaiContract.sol":{"ChaiContract":{"abi":[{"inputs":[],"stateMutability":"nonpayable","type":"constructor"},{"inputs":[{"internalType":"address","name":"owner","type":"address"}],"name":"OwnableInvalidOwner","type":"error"},{"inputs":[{"internalType":"address","name":"account","type":"address"}],"name":"OwnableUnauthorizedAccount","type":"error"},{"inputs":[],"name":"ReentrancyGuardReentrantCall","type":"error"},{"anonymous":false,"inputs":[{"indexed":false,"internalType":"string","name":"txnType","type":"string"},{"indexed":false,"internalType":"string","name":"txnStatus","type":"string"},{"indexed":false,"internalType":"uint256","name":"quantity","type":"uint256"},{"indexed":false,"internalType":"uint256","name":"txnDate","type":"uint256"}],"name":"CupOfTeaReady","type":"event"},{"anonymous":false,"inputs":[{"indexed":true,"internalType":"address","name":"previousOwner","type":"address"},{"indexed":true,"internalType":"address","name":"newOwner","type":"address"}],"name":"OwnershipTransferred","type":"event"},{"anonymous":false,"inputs":[{"indexed":false,"internalType":"string","name":"txnType","type":"string"},{"indexed":false,"internalType":"string","name":"txnStatus","type":"string"},{"indexed":false,"internalType":"uint256","name":"quantity","type":"uint256"},{"indexed":false,"internalType":"uint256","name":"txnDate","type":"uint256"}],"name":"TeaDelievered","type":"event"},{"anonymous":false,"inputs":[{"indexed":false,"internalType":"string","name":"txnType","type":"string"},{"indexed":false,"internalType":"string","name":"txnStatus","type":"string"},{"indexed":false,"internalType":"uint256","name":"quantity","type":"uint256"},{"indexed":false,"internalType":"uint256","name":"txnDate","type":"uint256"}],"name":"TeaHarvested","type":"event"},{"anonymous":false,"inputs":[{"indexed":false,"internalType":"string","name":"txnType","type":"string"},{"indexed":false,"internalType":"string","name":"txnStatus","type":"string"},{"indexed":false,"internalType":"uint256","name":"quantity","type":"uint256"},{"indexed":false,"internalType":"uint256","name":"txnDate","type":"uint256"}],"name":"TeaProcessed","type":"event"},{"anonymous":false,"inputs":[{"indexed":false,"internalType":"string","name":"txnType","type":"string"},{"indexed":false,"internalType":"string","name":"txnStatus","type":"string"},{"indexed":false,"internalType":"uint256","name":"quantity","type":"uint256"},{"indexed":false,"internalType":"uint256","name":"txnDate","type":"uint256"}],"name":"TeaTokenPlayerRegistration","type":"event"},{"anonymous":false,"inputs":[{"indexed":false,"internalType":"string","name":"txnType","type":"string"},{"indexed":false,"internalType":"string","name":"txnStatus","type":"string"},{"indexed":false,"internalType":"uint256","name":"quantity","type":"uint256"},{"indexed":false,"internalType":"uint256","name":"txnDate","type":"uint256"}],"name":"TeaTransported","type":"event"},{"inputs":[{"internalType":"string","name":"_teaType","type":"string"},{"internalType":"uint256","name":"_quantity","type":"uint256"}],"name":"ACupOfTeaReady","outputs":[{"internalType":"uint256","name":"","type":"uint256"},{"internalType":"string","name":"","type":"string"}],"stateMutability":"nonpayable","type":"function"},{"inputs":[{"internalType":"address","name":"_proxyMultiTeaContractAdd","type":"address"}],"name":"_initialize","outputs":[],"stateMutability":"nonpayable","type":"function"},{"inputs":[{"internalType":"string[]","name":"_harvestIds","type":"string[]"},{"internalType":"uint256","name":"_quantity","type":"uint256"},{"internalType":"string","name":"_quality","type":"string"},{"internalType":"string","name":"_batchId","type":"string"},{"internalType":"string","name":"_processorGSTNumber","type":"string"}],"name":"batchingHarvestByprocessor","outputs":[{"internalType":"uint256","name":"","type":"uint256"},{"internalType":"string","name":"","type":"string"}],"stateMutability":"nonpayable","type":"function"},{"inputs":[{"internalType":"string","name":"_harvestId","type":"string"}],"name":"getHarvestDetail","outputs":[{"internalType":"string","name":"","type":"string"},{"internalType":"string","name":"","type":"string"},{"internalType":"string","name":"","type":"string"},{"internalType":"string","name":"","type":"string"},{"internalType":"uint256","name":"","type":"uint256"},{"internalType":"uint256","name":"","type":"uint256"},{"internalType":"string","name":"","type":"string"}],"stateMutability":"view","type":"function"},{"inputs":[],"name":"getOwner","outputs":[{"internalType":"address","name":"","type":"address"}],"stateMutability":"view","type":"function"},{"inputs":[{"internalType":"string","name":"_gstNumber","type":"string"}],"name":"getRegisteredTeaTokenPlayerDetail","outputs":[{"internalType":"string","name":"","type":"string"},{"internalType":"string","name":"","type":"string"},{"internalType":"string","name":"","type":"string"},{"internalType":"string","name":"","type":"string"},{"internalType":"string","name":"","type":"string"},{"internalType":"string","name":"","type":"string"}],"stateMutability":"view","type":"function"},{"inputs":[{"internalType":"string","name":"_harvestId","type":"string"},{"internalType":"string","name":"_gstNumber","type":"string"},{"internalType":"string","name":"_firmName","type":"string"},{"internalType":"string","name":"_location","type":"string"},{"internalType":"string","name":"_harvestDateTime","type":"string"},{"internalType":"string","name":"_teaTokenType","type":"string"},{"internalType":"uint256","name":"_quantity","type":"uint256"},{"internalType":"string","name":"_quality","type":"string"}],"name":"harvestByFarmer","outputs":[{"internalType":"uint256","name":"","type":"uint256"},{"internalType":"string","name":"","type":"string"}],"stateMutability":"nonpayable","type":"function"},{"inputs":[],"name":"implementationAdd","outputs":[{"internalType":"address","name":"","type":"address"}],"stateMutability":"view","type":"function"},{"inputs":[{"internalType":"uint256","name":"_quantity","type":"uint256"},{"internalType":"string","name":"_teaTokenType","type":"string"}],"name":"mintTokenAdmin","outputs":[{"internalType":"uint256","name":"","type":"uint256"},{"internalType":"string","name":"","type":"string"}],"stateMutability":"nonpayable","type":"function"},{"inputs":[],"name":"owner","outputs":[{"internalType":"address","name":"","type":"address"}],"stateMutability":"view","type":"function"},{"inputs":[{"internalType":"string","name":"_fullName","type":"string"},{"internalType":"string","name":"_firmName","type":"string"},{"internalType":"string","name":"_address","type":"string"},{"internalType":"string","name":"_mobileNumber","type":"string"},{"internalType":"string","name":"_gstNumber","type":"string"},{"internalType":"string","name":"_role","type":"string"}],"name":"registerTeaTokenPlayers","outputs":[{"internalType":"uint256","name":"","type":"uint256"},{"internalType":"string","name":"","type":"string"}],"stateMutability":"nonpayable","type":"function"},{"inputs":[],"name":"renounceOwnership","outputs":[],"stateMutability":"nonpayable","type":"function"},{"inputs":[{"internalType":"string","name":"_batchId","type":"string"}],"name":"teaPlacedInShelvesByRetailer","outputs":[{"internalType":"uint256","name":"","type":"uint256"},{"internalType":"string","name":"","type":"string"}],"stateMutability":"nonpayable","type":"function"},{"inputs":[{"internalType":"string","name":"_batchId","type":"string"},{"internalType":"string","name":"_harvestId","type":"string"},{"internalType":"string[]","name":"_storageDetail","type":"string[]"},{"internalType":"string[]","name":"_shipingDetail","type":"string[]"}],"name":"teaTokenTrackingByTransporter","outputs":[{"internalType":"uint256","name":"","type":"uint256"},{"internalType":"string","name":"","type":"string"}],"stateMutability":"nonpayable","type":"function"},{"inputs":[{"internalType":"string","name":"_batchId","type":"string"}],"name":"teaTokenTrackingHistoryFechByConsumer","outputs":[{"internalType":"string","name":"","type":"string"},{"internalType":"string[]","name":"","type":"string[]"},{"internalType":"string[]","name":"","type":"string[]"},{"internalType":"string","name":"","type":"string"},{"internalType":"uint256","name":"","type":"uint256"},{"internalType":"string","name":"","type":"string"},{"internalType":"string","name":"","type":"string"},{"internalType":"string","name":"","type":"string"},{"internalType":"string","name":"","type":"string"},{"internalType":"string","name":"","type":"string"},{"internalType":"string","name":"","type":"string"}],"stateMutability":"view","type":"function"},{"inputs":[{"internalType":"address","name":"newOwner","type":"address"}],"name":"transferOwnership","outputs":[],"stateMutability":"nonpayable","type":"function"}],"evm":{"bytecode":{"linkReferences":{},"object":"60808060405234601f576001606555600060685561432190816100258239f35b600080fdfe6080604052600436101561001257600080fd5b60003560e01c8063011d3a9414612fae578063139e8bc814612199578063319775c41461214057806342fc839b14611e2857806355b4bc02146114e95780635894b6e7146113ce578063715018a614611364578063717d27e614610cfc578063893d20e814610cc65780638da5cb5b14610cc6578063ae725088146104f3578063b017dde9146104ca578063b60b02e114610421578063df742406146102b7578063e934262d146101085763f2fde38b146100cc57600080fd5b34610103576020366003190112610103576004356001600160a01b038116810361010357610101906100fc613923565b6138ad565b005b600080fd5b34610103576040366003190112610103576004356001600160401b038111610103576101389036906004016132ec565b6101b36024359133600052606c60205261018061015b60066040600020016135c2565b6020815191012061016a6136b1565b602081519101201461017a6136d7565b90613565565b6101ae60ff604051602081855161019a8183858a01613333565b81016067815203019020541661017a6137f6565b61411d565b606954604051634c313ae760e11b602082019081523360248301526044820184905292939260009283926001600160a01b039091169190839061020381606481015b03601f1981018352826132b0565b51925af1506102106134fa565b916020835193818082019586920101031261010357816102479351101561025b575b5061023b61387f565b90429133903390613959565b906102576040519283928361337b565b0390f35b6069546040516308afc7df60e31b6020820190815233602483015260448201939093526064810184905260009283926001600160a01b03169183906102a381608481016101f5565b51925af1506102b06134fa565b5082610232565b34610103576020366003190112610103576004356001600160401b0381116101035761031760206102ef6103df9336906004016132ec565b6103046102fb82613d2d565b1561017a61378e565b8160405193828580945193849201613333565b8101606d81520301902061025760405161033081613294565b82548152610340600184016135c2565b9260208201938452610354600282016135c2565b906040830191825261040961036b600383016135c2565b91606085019283526103fb610382600483016135c2565b93608087019485526103ed60058401549160a089019283526103a6600686016135c2565b948560c08b0152600760018060a01b039101541660e08a01525199519651915197519551966040519b8c9b60e08d5260e08d0190613356565b908b820360208d0152613356565b9089820360408b0152613356565b908782036060890152613356565b92608086015260a085015283820360c0850152613356565b34610103576020366003190112610103576004356001600160401b038111610103576104546102479136906004016132ec565b33600052606c60205261047061015b60066040600020016135c2565b61047981613e7c565b6104b8602060c08301519201519161049760018060a01b0391613f77565b511692836104b160206104aa3394613df4565b0151614016565b5184614158565b506104c1613853565b42923391613959565b34610103576000366003190112610103576066546040516001600160a01b039091168152602090f35b3461010357610100366003190112610103576004356001600160401b038111610103576105249036906004016132ec565b6024356001600160401b038111610103576105439036906004016132ec565b6044356001600160401b038111610103576105629036906004016132ec565b916064356001600160401b038111610103576105829036906004016132ec565b906084356001600160401b038111610103576105a29036906004016132ec565b9060a4356001600160401b038111610103576105c29036906004016132ec565b9260c4359460e4356001600160401b038111610103576105e69036906004016132ec565b9633600052606c60205261061261060360066040600020016135c2565b6020815191012061016a613666565b61061b84613d2d565b159182610cb3575b5081610ca2575b5080610c92575b80610c82575b80610c72575b80610c69575b80610c54575b6106559061017a61352a565b61065e8461411d565b9361066f606854151561017a6137f6565b6040519361067c85613294565b858552602085019284845260408601908152606086019182526080860192835260a086019388855260c08701998a526106cb602060e08901973389528160405193828580945193849201613333565b8101606d815203019020965187556001870190518051906001600160401b0382116109b9576106fa83546134a9565b601f8111610c22575b50602090601f8311600114610bbb57610735929160009183610bb0575b50508160011b916000199060031b1c19161790565b90555b51805160028701916001600160401b0382116109b95761075883546134a9565b601f8111610b7e575b50602090601f8311600114610b1757610792929160009183610b0c5750508160011b916000199060031b1c19161790565b90555b51805160038601916001600160401b0382116109b9576107b583546134a9565b601f8111610ada575b50602090601f8311600114610a73576107ef9291600091836108ff5750508160011b916000199060031b1c19161790565b90555b51805160048501916001600160401b0382116109b95761081283546134a9565b601f8111610a41575b50602090601f83116001146109da5761084c9291600091836109cf5750508160011b916000199060031b1c19161790565b90555b5160058301556006820194519485516001600160401b0381116109b95761087682546134a9565b601f811161097c575b506020601f821160011461090a57916108bc826108ea979695936007956102479b6000926108ff5750508160011b916000199060031b1c19161790565b90555b51910180546001600160a01b0319166001600160a01b03929092169190911790553090339084614158565b506108f3613828565b90429133903090613959565b015190508b80610720565b601f1982169783600052816000209860005b8181106109645750926102479960079593600193836108ea9b9a99971061094b575b505050811b0190556108bf565b015160001960f88460031b161c191690558a808061093e565b838301518b556001909a01996020938401930161091c565b6109a990836000526020600020601f840160051c810191602085106109af575b601f0160051c01906134e3565b8761087f565b909150819061099c565b634e487b7160e01b600052604160045260246000fd5b015190508a80610720565b90601f1983169184600052816000209260005b818110610a295750908460019594939210610a10575b505050811b01905561084f565b015160001960f88460031b161c19169055898080610a03565b929360206001819287860151815501950193016109ed565b610a6d90846000526020600020601f850160051c810191602086106109af57601f0160051c01906134e3565b8961081b565b90601f1983169184600052816000209260005b818110610ac25750908460019594939210610aa9575b505050811b0190556107f2565b015160001960f88460031b161c191690558a8080610a9c565b92936020600181928786015181550195019301610a86565b610b0690846000526020600020601f850160051c810191602086106109af57601f0160051c01906134e3565b8a6107be565b015190508c80610720565b90601f1983169184600052816000209260005b818110610b665750908460019594939210610b4d575b505050811b019055610795565b015160001960f88460031b161c191690558b8080610b40565b92936020600181928786015181550195019301610b2a565b610baa90846000526020600020601f850160051c810191602086106109af57601f0160051c01906134e3565b8b610761565b015190508d80610720565b90601f1983169184600052816000209260005b818110610c0a5750908460019594939210610bf1575b505050811b019055610738565b015160001960f88460031b161c191690558c8080610be4565b92936020600181928786015181550195019301610bce565b610c4e90846000526020600020601f850160051c810191602086106109af57601f0160051c01906134e3565b8c610703565b50610655610c6187613d2d565b159050610649565b50841515610643565b50610c7c84613d2d565b1561063d565b50610c8c83613d2d565b15610637565b50610c9c81613d2d565b15610631565b610cac9150613d2d565b158761062a565b610cbe919250613d2d565b159088610623565b34610103576000366003190112610103576000805160206142cc833981519152546040516001600160a01b039091168152602090f35b34610103576080366003190112610103576004356001600160401b03811161010357610d2c9036906004016132ec565b6024356001600160401b03811161010357610d4b9036906004016132ec565b906044356001600160401b03811161010357610d6b903690600401613405565b6064356001600160401b03811161010357610d8a903690600401613405565b92610dc7602060405194610d9d86613279565b80865281860193845260408601948552606086019687528160405193828580945193849201613333565b8101606f81520301902092518051906001600160401b0382116109b957610dee85546134a9565b601f8111611332575b50602090601f83116001146112cb57610e289291600091836112275750508160011b916000199060031b1c19161790565b83555b51805160018401916001600160401b0382116109b957610e4b83546134a9565b601f8111611299575b50602090601f831160011461123257610e859291600091836112275750508160011b916000199060031b1c19161790565b90555b5180516002830191600160401b82116109b95782548284558083106111a9575b50602001916000526020600020916000905b82821061109c57855180516003870191600160401b82116109b957825482845580831061101e575b50602001916000526020600020916000905b828210610f1157610247610f066137c9565b429033903390613b5f565b80518051906001600160401b0382116109b957610f2e86546134a9565b601f8111610fec575b50602090601f8311600114610f7f5792610f70836001959460209487966000926109cf5750508160011b916000199060031b1c19161790565b87555b01940191019092610ef4565b90601f1983169187600052816000209260005b818110610fd45750936020936001969387969383889510610fbb575b505050811b018755610f73565b015160001960f88460031b161c19169055898080610fae565b92936020600181928786015181550195019301610f92565b61101890876000526020600020601f850160051c810191602086106109af57601f0160051c01906134e3565b86610f37565b8360005282602060002091820191015b81811061103b5750610ee2565b80611048600192546134a9565b80611055575b500161102e565b601f8111831461106b5750600081555b8661104e565b611089908260005283601f6020600020920160051c820191016134e3565b8060005260006020812081835555611065565b80518051906001600160401b0382116109b9576110b986546134a9565b601f8111611177575b50602090601f831160011461110a57926110fb83600195946020948796600092610b0c5750508160011b916000199060031b1c19161790565b87555b01940191019092610eba565b90601f1983169187600052816000209260005b81811061115f5750936020936001969387969383889510611146575b505050811b0187556110fe565b015160001960f88460031b161c191690558b8080611139565b9293602060018192878601518155019501930161111d565b6111a390876000526020600020601f850160051c810191602086106109af57601f0160051c01906134e3565b886110c2565b8360005282602060002091820191015b8181106111c65750610ea8565b806111d3600192546134a9565b806111e0575b50016111b9565b601f811183146111f65750600081555b886111d9565b611214908260005283601f6020600020920160051c820191016134e3565b80600052600060208120818355556111f0565b015190508780610720565b90601f1983169184600052816000209260005b8181106112815750908460019594939210611268575b505050811b019055610e88565b015160001960f88460031b161c1916905586808061125b565b92936020600181928786015181550195019301611245565b6112c590846000526020600020601f850160051c810191602086106109af57601f0160051c01906134e3565b86610e54565b90601f1983169186600052816000209260005b81811061131a5750908460019594939210611301575b505050811b018355610e2b565b015160001960f88460031b161c191690558680806112f4565b929360206001819287860151815501950193016112de565b61135e90866000526020600020601f850160051c810191602086106109af57601f0160051c01906134e3565b86610df7565b346101035760003660031901126101035761137d613923565b6000805160206142cc83398151915280546001600160a01b031981169091556000906001600160a01b03167f8be0079c531659141344cd1fd0a4f28419497f9722a3daafe3b4186f6b6457e08280a3005b34610103576020366003190112610103576004356001600160401b0381116101035761140660206102ef6103df9336906004016132ec565b8101606b81520301902061025760c06114db604051936114258561325e565b80546001600160a01b031685526114cd611441600183016135c2565b95602081019687526103fb611458600285016135c2565b91604081019283526103ed61146f600387016135c2565b9360608301948552611483600488016135c2565b92608081019384526114aa600661149c60058b016135c2565b9960a084019a8b52016135c2565b998a910152519951955191519351956040519b8c9b60c08d5260c08d0190613356565b908582036080870152613356565b9083820360a0850152613356565b346101035760a0366003190112610103576004356001600160401b03811161010357611519903690600401613405565b6024356044356001600160401b0381116101035761153b9036906004016132ec565b916064356001600160401b0381116101035761155b9036906004016132ec565b906084356001600160401b0381116101035761157b9036906004016132ec565b33600052606c6020526115a661159760066040600020016135c2565b6020815191012061016a61368a565b8151151580611e1f575b80611e0f575b80611dfa575b6115c89061017a61352a565b60005b825160ff8216908110156116455790816115f16115eb611640948761374f565b51613483565b546115fb82613719565b52600561160b6115eb838861374f565b015461161682613719565b5261163a6001600160a01b0360076116316115eb858a61374f565b01541691613719565b52613708565b6115cb565b50509291611651613742565b5190604051926116608461325e565b835260208301958487526040840190815260608401968288526116a76020608087019433865260a0880196875260c08801998a528160405193828580945193849201613333565b8101606e8152030190209451805190600160401b82116109b9578654828855808310611d7c575b50600087815260208082209392015b828210611c6457505050505160018501556002840190518051906001600160401b0382116109b95761170f83546134a9565b601f8111611c32575b50602090601f8311600114611bcb576117499291600091836109cf5750508160011b916000199060031b1c19161790565b90555b6003830195519586516001600160401b0381116109b95761176d82546134a9565b601f8111611b99575b506020601f8211600114611b2f5790806117ab92600698999a6000926109cf5750508160011b916000199060031b1c19161790565b90555b516004830180546001600160a01b0319166001600160a01b039290921691909117905551600582015592518051909391909101906001600160401b0381116109b9576117fa82546134a9565b601f8111611afd575b506020601f8211600114611a98578190611835939495600092611a8d5750508160011b916000199060031b1c19161790565b90555b60018060a01b03606954166040516020810190633d06226d60e11b82526064810160406024830152606051809152608482019060809060005b818110611a6e57505050602319828203016044830152602060605191828152019060809060005b818110611a5857876000808989828a6118ba818c03601f1981018352826132b0565b51925af1506118c76134fa565b908151820191602081818501940312610103576020810151906001600160401b03821161010357019180603f84011215610103576020830151611909816133ee565b9361191760405195866132b0565b8185526020808087019360051b8301010192831161010357604001905b828210611a48575050506000916000925b815184101561198357611958848361374f565b51810180911161196d57600190930192611945565b634e487b7160e01b600052601160045260246000fd5b82915010156119b5575b61024790611999613763565b906001600160a01b036119aa613742565b511642923390613959565b60005b60605160ff821690811015611a4157606954611a3c929160009182916001600160a01b039182169183906119eb83613719565b511691611a29611a046119fd83613719565b5192613719565b51916101f56040519384926020840197632413534f60e11b89523390602486016140f3565b51925af150611a366134fa565b50613708565b6119b8565b505061198d565b8151815260209182019101611934565b8251845260209384019390920191600101611898565b82516001600160a01b0316845260209384019390920191600101611871565b015190508580610720565b601f1982169083600052806000209160005b818110611ae557509583600195969710611acc575b505050811b019055611838565b015160001960f88460031b161c19169055848080611abf565b9192602060018192868b015181550194019201611aaa565b611b2990836000526020600020601f840160051c810191602085106109af57601f0160051c01906134e3565b84611803565b601f1982169883600052816000209960005b818110611b81575091600698999a91846001959410611b68575b505050811b0190556117ae565b015160001960f88460031b161c19169055898080611b5b565b838301518c556001909b019a60209384019301611b41565b611bc590836000526020600020601f840160051c810191602085106109af57601f0160051c01906134e3565b88611776565b90601f1983169184600052816000209260005b818110611c1a5750908460019594939210611c01575b505050811b01905561174c565b015160001960f88460031b161c19169055898080611bf4565b92936020600181928786015181550195019301611bde565b611c5e90846000526020600020601f850160051c810191602086106109af57601f0160051c01906134e3565b89611718565b80518051906001600160401b0382116109b957611c8186546134a9565b601f8111611d4a575b50602090601f8311600114611cdd5792611cc383600195946020948796600092611cd25750508160011b916000199060031b1c19161790565b87555b019401910190926116dd565b015190503880610720565b90601f1983169187600052816000209260005b818110611d325750936020936001969387969383889510611d19575b505050811b018755611cc6565b015160001960f88460031b161c19169055388080611d0c565b92936020600181928786015181550195019301611cf0565b611d7690876000526020600020601f850160051c810191602086106109af57601f0160051c01906134e3565b8e611c8a565b8760005282602060002091820191015b818110611d9957506116ce565b80611da6600192546134a9565b80611db3575b5001611d8c565b601f81118314611dc95750600081555b8d611dac565b611de7908260005283601f6020600020920160051c820191016134e3565b8060005260006020812081835555611dc3565b506115c8611e0784613d2d565b1590506115bc565b50611e1985613d2d565b156115b6565b508315156115b0565b34610103576020366003190112610103576004356001600160401b03811161010357611e589036906004016132ec565b33600052606c602052611e7160066040600020016135c2565b805160208201908120611e82613666565b6020815191012014159182612123575b826120ed575b826120d0575b5050611ea86136d7565b611eb191613565565b611eba81613df4565b9060208201516040830151926060015190611ed483613e7c565b9060c0820151916020810151906040015192611eef81613f77565b6040015192611efd90614016565b6060810151608082015160e0909201516001600160a01b031695919490939091611f25613f40565b50611f2f87614258565b1596606097604051611f418a826132b0565b602281527f4163636f756e74204e756d6265722073686f756c64206e6f7420626520656d70602082015261747960f01b6040820152611f7f91613565565b600052606c602052604060002096604051611f998161325e565b88546001600160a01b03168152611fb260018a016135c2565b6020820152611fc360028a016135c2565b6040820190815290611fd760038b016135c2565b81840152611fe760048b016135c2565b6080820152611ff860058b016135c2565b9960a082019a8b5260060161200c906135c2565b9060c00152519751986040519b8c9b6101608d526101608d0161202e91613356565b8c810360208e015261203f91613395565b8b810360408d015261205091613395565b908a8203908b015261206191613356565b90608089015287810360a089015261207891613356565b86810360c088015261208991613356565b85810360e087015261209a91613356565b8481036101008601526120ac91613356565b8381036101208501526120be91613356565b82810361014084015261025791613356565b51902090506120dd6136b1565b6020815191012014158280611e9e565b809250518120600b60206040516121056040826132b0565b828152016a2a3930b739b837b93a32b960a91b815220141591611e98565b80925051812061213161368a565b60208151910120141591611e92565b34610103576020366003190112610103576004356001600160a01b038116908190036101035760018060a01b0319606954161760695561219060ff60005460081c1661218b81613d3c565b613d3c565b610101336138ad565b346101035760c0366003190112610103576004356001600160401b038111610103576121c99036906004016132ec565b6024356001600160401b038111610103576121e89036906004016132ec565b6044356001600160401b038111610103576122079036906004016132ec565b916064356001600160401b038111610103576122279036906004016132ec565b6084356001600160401b038111610103576122469036906004016132ec565b9360a4356001600160401b038111610103576122669036906004016132ec565b9361227084613d2d565b1580612f9e575b80612f8e575b80612f7e575b80612f6e575b80612f59575b61229b9061017a61352a565b6040516122a78161325e565b338082526020808301878152604080850186815260608601888152608087018a815260a088018e815260c089018e81526000988952606c90975293909620965187546001600160a01b0319166001600160a01b039190911617875592518051949695929492939260018701916001600160401b0382116109b95761232b83546134a9565b601f8111612f27575b50602090601f8311600114612ec057612365929160009183611cd25750508160011b916000199060031b1c19161790565b90555b51805160028601916001600160401b0382116109b95761238883546134a9565b601f8111612e8e575b50602090601f8311600114612e27576123c2929160009183612e1c5750508160011b916000199060031b1c19161790565b90555b51805160038501916001600160401b0382116109b9576123e583546134a9565b601f8111612dea575b50602090601f8311600114612d835761241f929160009183612d785750508160011b916000199060031b1c19161790565b90555b51805160048401916001600160401b0382116109b95761244283546134a9565b601f8111612d46575b50602090601f8311600114612cdf5761247c929160009183610bb05750508160011b916000199060031b1c19161790565b90555b51805160058301916001600160401b0382116109b95761249f83546134a9565b601f8111612cad575b50602090601f8311600114612c425791806124de926006969594600092610bb05750508160011b916000199060031b1c19161790565b90555b0190518051906001600160401b0382116109b9576124ff83546134a9565b601f8111612c10575b50602090601f8311600114612ba9576125399291600091836109cf5750508160011b916000199060031b1c19161790565b90555b604051936125498561325e565b3385526020850190815260408501918252606085019283526080850193845261258f602060a0870198808a5260c088019889528160405193828580945193849201613333565b606b90820190815203019020945185546001600160a01b0319166001600160a01b039190911617855551805160018601916001600160401b0382116109b9576125d883546134a9565b601f8111612b77575b50602090601f8311600114612b10576126129291600091836109cf5750508160011b916000199060031b1c19161790565b90555b51805160028501916001600160401b0382116109b95761263583546134a9565b601f8111612ade575b50602090601f8311600114612a775761266f929160009183612a6c5750508160011b916000199060031b1c19161790565b90555b51805160038401916001600160401b0382116109b95761269283546134a9565b601f8111612a3a575b50602090601f83116001146129d3576126cc9291600091836129c85750508160011b916000199060031b1c19161790565b90555b51805160048301916001600160401b0382116109b9576126ef83546134a9565b601f8111612996575b50602090601f831160011461292f576127299291600091836112275750508160011b916000199060031b1c19161790565b90555b6005810192519283516001600160401b0381116109b95761274d82546134a9565b601f81116128fd575b506020601f821160011461289457908061278a92600696976000926112275750508160011b916000199060031b1c19161790565b90555b0190519081516001600160401b0381116109b9576127ab82546134a9565b601f8111612862575b50602092601f82116001146127ff576127e6929382916000926127f45750508160011b916000199060031b1c19161790565b90555b610247610f06613595565b015190508480610720565b601f1982169383600052806000209160005b86811061284a5750836001959610612831575b505050811b0190556127e9565b015160001960f88460031b161c19169055838080612824565b91926020600181928685015181550194019201612811565b61288e90836000526020600020601f840160051c810191602085106109af57601f0160051c01906134e3565b836127b4565b601f1982169583600052816000209660005b8181106128e557509160069697918460019594106128cc575b505050811b01905561278d565b015160001960f88460031b161c191690558680806128bf565b838301518955600190980197602093840193016128a6565b61292990836000526020600020601f840160051c810191602085106109af57601f0160051c01906134e3565b85612756565b90601f1983169184600052816000209260005b81811061297e5750908460019594939210612965575b505050811b01905561272c565b015160001960f88460031b161c19169055868080612958565b92936020600181928786015181550195019301612942565b6129c290846000526020600020601f850160051c810191602086106109af57601f0160051c01906134e3565b866126f8565b015190508880610720565b90601f1983169184600052816000209260005b818110612a225750908460019594939210612a09575b505050811b0190556126cf565b015160001960f88460031b161c191690558780806129fc565b929360206001819287860151815501950193016129e6565b612a6690846000526020600020601f850160051c810191602086106109af57601f0160051c01906134e3565b8761269b565b015190508980610720565b90601f1983169184600052816000209260005b818110612ac65750908460019594939210612aad575b505050811b019055612672565b015160001960f88460031b161c19169055888080612aa0565b92936020600181928786015181550195019301612a8a565b612b0a90846000526020600020601f850160051c810191602086106109af57601f0160051c01906134e3565b8861263e565b90601f1983169184600052816000209260005b818110612b5f5750908460019594939210612b46575b505050811b019055612615565b015160001960f88460031b161c19169055898080612b39565b92936020600181928786015181550195019301612b23565b612ba390846000526020600020601f850160051c810191602086106109af57601f0160051c01906134e3565b896125e1565b90601f1983169184600052816000209260005b818110612bf85750908460019594939210612bdf575b505050811b01905561253c565b015160001960f88460031b161c19169055898080612bd2565b92936020600181928786015181550195019301612bbc565b612c3c90846000526020600020601f850160051c810191602086106109af57601f0160051c01906134e3565b89612508565b90601f1983169184600052816000209260005b818110612c95575091600193918560069897969410612c7c575b505050811b0190556124e1565b015160001960f88460031b161c191690558c8080612c6f565b92936020600181928786015181550195019301612c55565b612cd990846000526020600020601f850160051c810191602086106109af57601f0160051c01906134e3565b8b6124a8565b90601f1983169184600052816000209260005b818110612d2e5750908460019594939210612d15575b505050811b01905561247f565b015160001960f88460031b161c191690558c8080612d08565b92936020600181928786015181550195019301612cf2565b612d7290846000526020600020601f850160051c810191602086106109af57601f0160051c01906134e3565b8c61244b565b015190508e80610720565b90601f1983169184600052816000209260005b818110612dd25750908460019594939210612db9575b505050811b019055612422565b015160001960f88460031b161c191690558d8080612dac565b92936020600181928786015181550195019301612d96565b612e1690846000526020600020601f850160051c810191602086106109af57601f0160051c01906134e3565b8d6123ee565b015190508f80610720565b90601f1983169184600052816000209260005b818110612e765750908460019594939210612e5d575b505050811b0190556123c5565b015160001960f88460031b161c191690558e8080612e50565b92936020600181928786015181550195019301612e3a565b612eba90846000526020600020601f850160051c810191602086106109af57601f0160051c01906134e3565b8e612391565b90601f1983169184600052816000209260005b818110612f0f5750908460019594939210612ef6575b505050811b019055612368565b015160001960f88460031b161c191690558f8080612ee9565b92936020600181928786015181550195019301612ed3565b612f5390846000526020600020601f850160051c810191602086106109af57601f0160051c01906134e3565b8f612334565b5061229b612f6686613d2d565b15905061228f565b50612f7886613d2d565b15612289565b50612f8883613d2d565b15612283565b50612f9882613d2d565b1561227d565b50612fa881613d2d565b15612277565b34610103576040366003190112610103576004356024356001600160401b03811161010357612fe19036906004016132ec565b90612fea613923565b60405160ff83519160208181870194613004818388613333565b8101606781520301902054161561306b575b6102578261305e60409182519061302d84836132b0565b6019825278544f4b454e204d494e544544205355434345535346554c4c5960381b6020830152429133903090613959565b929091519283928361337b565b6068546001810180911161196d57606855604051602081855161308f818387613333565b81016067815203019020600160ff1982541617905560685460405190604082018281106001600160401b038211176109b9576001936130e892602092604052845281840196808852604051938492839251928391613333565b8101606a81520301902090518155019151918251926001600160401b0384116109b95761311582546134a9565b601f811161322c575b50602090601f85116001146131c257938061315392610257966000926131b75750508160011b916000199060031b1c19161790565b90555b6069546068546040516332c9625f60e21b6020820190815230602483015260448201929092526064810184905260009283926001600160a01b039091169183906131a381608481016101f5565b51925af1506131b06134fa565b5082613016565b015190508680610720565b90601f1985169183600052816000209260005b81811061321457509160019391876102579894106131fb575b505050811b019055613156565b015160001960f88460031b161c191690558580806131ee565b929360206001819287860151815501950193016131d5565b61325890836000526020600020601f870160051c810191602088106109af57601f0160051c01906134e3565b8461311e565b60e081019081106001600160401b038211176109b957604052565b608081019081106001600160401b038211176109b957604052565b61010081019081106001600160401b038211176109b957604052565b90601f801991011681019081106001600160401b038211176109b957604052565b6001600160401b0381116109b957601f01601f191660200190565b81601f8201121561010357803590613303826132d1565b9261331160405194856132b0565b8284526020838301011161010357816000926020809301838601378301015290565b60005b8381106133465750506000910152565b8181015183820152602001613336565b9060209161336f81518092818552858086019101613333565b601f01601f1916010190565b604090613392939281528160208201520190613356565b90565b9080602083519182815201916020808360051b8301019401926000915b8383106133c157505050505090565b90919293946020806133df600193601f198682030187528951613356565b970193019301919392906133b2565b6001600160401b0381116109b95760051b60200190565b9080601f8301121561010357813561341c816133ee565b9261342a60405194856132b0565b81845260208085019260051b820101918383116101035760208201905b83821061345657505050505090565b81356001600160401b03811161010357602091613478878480948801016132ec565b815201910190613447565b602061349c918160405193828580945193849201613333565b8101606d81520301902090565b90600182811c921680156134d9575b60208310146134c357565b634e487b7160e01b600052602260045260246000fd5b91607f16916134b8565b8181106134ee575050565b600081556001016134e3565b3d15613525573d9061350b826132d1565b9161351960405193846132b0565b82523d6000602084013e565b606090565b604051906135396040836132b0565b602082527f4e6f2076616c75652073686f756c6420626520656d707479206f72207a65726f6020830152565b1561356d5750565b60405162461bcd60e51b815260206004820152908190613591906024830190613356565b0390fd5b604051906135a46040836132b0565b600f82526e1554d15488149151d254d511549151608a1b6020830152565b90604051918260008254926135d6846134a9565b808452936001811690811561364457506001146135fd575b506135fb925003836132b0565b565b90506000929192526020600020906000915b8183106136285750509060206135fb92820101386135ee565b602091935080600191548385890101520191019091849261360f565b9050602092506135fb94915060ff191682840152151560051b820101386135ee565b604051906136756040836132b0565b60068252652330b936b2b960d11b6020830152565b604051906136996040836132b0565b6009825268283937b1b2b9b9b7b960b91b6020830152565b604051906136c06040836132b0565b60088252672932ba30b4b632b960c11b6020830152565b604051906136e66040836132b0565b60138252722737ba1020baba3437b934bd32b2102ab9b2b960691b6020830152565b60ff1660ff811461196d5760010190565b60605181101561372c5760051b60800190565b634e487b7160e01b600052603260045260246000fd5b6060511561372c57608090565b805182101561372c5760209160051b010190565b604051906137726040836132b0565b600d82526c15115048141493d0d154d4d151609a1b6020830152565b6040519061379d6040836132b0565b601e82527f475354204e756d6265722073686f756c64206e6f7420626520656d70747900006020830152565b604051906137d86040836132b0565b600f82526e151150481514905394d413d4951151608a1b6020830152565b604051906138056040836132b0565b6014825273151bdad95b88191bd95cc81b9bdd08195e1a5cdd60621b6020830152565b604051906138376040836132b0565b600d82526c15115048121054959154d51151609a1b6020830152565b604051906138626040836132b0565b600e82526d151150481111531251559154915160921b6020830152565b6040519061388e6040836132b0565b601082526f435550204f462054454120524541445960801b6020830152565b6001600160a01b0316801561390d576000805160206142cc83398151915280546001600160a01b0319811683179091556001600160a01b03167f8be0079c531659141344cd1fd0a4f28419497f9722a3daafe3b4186f6b6457e0600080a3565b631e4fbdf760e01b600052600060045260246000fd5b6000805160206142cc833981519152546001600160a01b0316320361394457565b63118cdaa760e01b6000523260045260246000fd5b94939291505060409384519161396f86846132b0565b60078352665355434345535360c81b602084015261399461398e613595565b8361426a565b156139fd577f9221943055d762887fa3ad9d36e966ba8b8a13bbf34004ae031cdaa62b5c55e9936139ca91875194859485614223565b0390a15b6139da825192836132b0565b601082526f5472616e73666572205375636365737360801b602083015260339190565b613a0861398e613828565b15613a46577f2da02ed6e7d6c0954e91580e907a661bc17262b43b9b694497f741db078717e293613a3e91875194859485614223565b0390a16139ce565b613a5161398e613763565b15613a87577f5ee0b295c9621913d21a48fa7fa31ed6735be2290a6cc08daccd3ded9608b71f93613a3e91875194859485614223565b613a9261398e6137c9565b15613ac8577f710392cf7e41003bd46adf859a75dbf65bb541fe54b1c838bdcb1aa820b3e22093613a3e91875194859485614223565b613ad361398e613853565b15613b09577fcfdd1b71f2ba0269e6c149a8be2f7d9b30119587686ba15809a877f00b50911593613a3e91875194859485614223565b613b1461398e61387f565b613b22575b505050506139ce565b7f5a7cde9945df01bf6c89a0acbc121569bada3b139acbfa3e8b41538a225566b193613b5391875194859485614223565b0390a138808080613b19565b9392915050604092835190613b7485836132b0565b60078252665355434345535360c81b6020830152613b99613b93613595565b8261426a565b15613bd0576139ca7f9221943055d762887fa3ad9d36e966ba8b8a13bbf34004ae031cdaa62b5c55e9936000875194859485614223565b613bdb613b93613828565b15613c1257613a3e7f2da02ed6e7d6c0954e91580e907a661bc17262b43b9b694497f741db078717e2936000875194859485614223565b613c1d613b93613763565b15613c5457613a3e7f5ee0b295c9621913d21a48fa7fa31ed6735be2290a6cc08daccd3ded9608b71f936000875194859485614223565b613c5f613b936137c9565b15613c9657613a3e7f710392cf7e41003bd46adf859a75dbf65bb541fe54b1c838bdcb1aa820b3e220936000875194859485614223565b613ca1613b93613853565b15613cd857613a3e7fcfdd1b71f2ba0269e6c149a8be2f7d9b30119587686ba15809a877f00b509115936000875194859485614223565b613ce3613b9361387f565b613cf0575b5050506139ce565b613d227f5a7cde9945df01bf6c89a0acbc121569bada3b139acbfa3e8b41538a225566b1936000875194859485614223565b0390a1388080613ce8565b51613d3757600190565b600090565b15613d4357565b60405162461bcd60e51b815260206004820152602b60248201527f496e697469616c697a61626c653a20636f6e7472616374206973206e6f74206960448201526a6e697469616c697a696e6760a81b6064820152608490fd5b908154613da8816133ee565b92613db660405194856132b0565b818452602084019060005260206000206000915b838310613dd75750505050565b600160208192613de6856135c2565b815201920192019190613dca565b6020613e2591606080604051613e0981613279565b818152818582015281604082015201526103046102fb82613d2d565b8101606f815203019020613e74600360405192613e4184613279565b613e4a816135c2565b8452613e58600182016135c2565b6020850152613e6960028201613d9c565b604085015201613d9c565b606082015290565b6020613ec291606060c0604051613e928161325e565b828152600085820152826040820152828082015260006080820152600060a082015201526103046102fb82613d2d565b8101606e815203019020613f38600660405192613ede8461325e565b613ee781613d9c565b845260018101546020850152613eff600282016135c2565b6040850152613f10600382016135c2565b606085015260048101546001600160a01b03166080850152600581015460a0850152016135c2565b60c082015290565b60405190613f4d8261325e565b606060c0836000815282602082015282604082015282808201528260808201528260a08201520152565b6020613f9291613f85613f40565b506103046102fb82613d2d565b8101606b815203019020613f38600660405192613fae8461325e565b80546001600160a01b03168452613fc7600182016135c2565b6020850152613fd8600282016135c2565b6040850152613fe9600382016135c2565b6060850152613ffa600482016135c2565b608085015261400b600582016135c2565b60a0850152016135c2565b602061406491600060e060405161402c81613294565b82815260608582015260606040820152606080820152606060808201528260a0820152606060c082015201526103046102fb82613d2d565b8101606d8152030190206040519061407b82613294565b8054825261408b600182016135c2565b602083015261409c600282016135c2565b60408301526140ad600382016135c2565b60608301526140be600482016135c2565b6080830152600581015460a08301526140d9600682016135c2565b60c0830152600701546001600160a01b031660e082015290565b6001600160a01b039182168152911660208201526040810191909152606081019190915260800190565b6020614136918160405193828580945193849201613333565b8101606a81520301902054806068556133926141506137f6565b821515613565565b606954604051634c313ae760e11b602082019081526001600160a01b038087166024840152604483018690529495939460009384939116919083906141a081606481016101f5565b51925af1506141ad6134fa565b602081519181808201938492010103126101035782905110156141d5575b5050505060685490565b600080949361420c82956101f560018060a01b0360695416966040519485936020850198632413534f60e11b8a52602486016140f3565b51925af1506142196134fa565b50388080806141cb565b9060609261424061424e9297969597608085526080850190613356565b908382036020850152613356565b9460408201520152565b6001600160a01b0316613d3757600190565b604051614298602082816142878183019687815193849201613333565b81010301601f1981018352826132b0565b519020906040516142b9602082816142878183019687815193849201613333565b519020146142c657600090565b60019056fe9016d09d72d40fdae2fd8ceac6b6234c7706214fd39c1cd1e609a0528c199300a26469706673582212204907dfd198e3bdcd44cec8e7c49559beef3817eaa91346515b6855d6dc5ce17564736f6c634300081a0033","opcodes":"PUSH1 0x80 DUP1 PUSH1 0x40 MSTORE CALLVALUE PUSH1 0x1F JUMPI PUSH1 0x1 PUSH1 0x65 SSTORE PUSH1 0x0 PUSH1 0x68 SSTORE PUSH2 0x4321 SWAP1 DUP2 PUSH2 0x25 DUP3 CODECOPY RETURN JUMPDEST PUSH1 0x0 DUP1 REVERT INVALID PUSH1 0x80 PUSH1 0x40 MSTORE PUSH1 0x4 CALLDATASIZE LT ISZERO PUSH2 0x12 JUMPI PUSH1 0x0 DUP1 REVERT JUMPDEST PUSH1 0x0 CALLDATALOAD PUSH1 0xE0 SHR DUP1 PUSH4 0x11D3A94 EQ PUSH2 0x2FAE JUMPI DUP1 PUSH4 0x139E8BC8 EQ PUSH2 0x2199 JUMPI DUP1 PUSH4 0x319775C4 EQ PUSH2 0x2140 JUMPI DUP1 PUSH4 0x42FC839B EQ PUSH2 0x1E28 JUMPI DUP1 PUSH4 0x55B4BC02 EQ PUSH2 0x14E9 JUMPI DUP1 PUSH4 0x5894B6E7 EQ PUSH2 0x13CE JUMPI DUP1 PUSH4 0x715018A6 EQ PUSH2 0x1364 JUMPI DUP1 PUSH4 0x717D27E6 EQ PUSH2 0xCFC JUMPI DUP1 PUSH4 0x893D20E8 EQ PUSH2 0xCC6 JUMPI DUP1 PUSH4 0x8DA5CB5B EQ PUSH2 0xCC6 JUMPI DUP1 PUSH4 0xAE725088 EQ PUSH2 0x4F3 JUMPI DUP1 PUSH4 0xB017DDE9 EQ PUSH2 0x4CA JUMPI DUP1 PUSH4 0xB60B02E1 EQ PUSH2 0x421 JUMPI DUP1 PUSH4 0xDF742406 EQ PUSH2 0x2B7 JUMPI DUP1 PUSH4 0xE934262D EQ PUSH2 0x108 JUMPI PUSH4 0xF2FDE38B EQ PUSH2 0xCC JUMPI PUSH1 0x0 DUP1 REVERT JUMPDEST CALLVALUE PUSH2 0x103 JUMPI PUSH1 0x20 CALLDATASIZE PUSH1 0x3 NOT ADD SLT PUSH2 0x103 JUMPI PUSH1 0x4 CALLDATALOAD PUSH1 0x1 PUSH1 0x1 PUSH1 0xA0 SHL SUB DUP2 AND DUP2 SUB PUSH2 0x103 JUMPI PUSH2 0x101 SWAP1 PUSH2 0xFC PUSH2 0x3923 JUMP JUMPDEST PUSH2 0x38AD JUMP JUMPDEST STOP JUMPDEST PUSH1 0x0 DUP1 REVERT JUMPDEST CALLVALUE PUSH2 0x103 JUMPI PUSH1 0x40 CALLDATASIZE PUSH1 0x3 NOT ADD SLT PUSH2 0x103 JUMPI PUSH1 0x4 CALLDATALOAD PUSH1 0x1 PUSH1 0x1 PUSH1 0x40 SHL SUB DUP2 GT PUSH2 0x103 JUMPI PUSH2 0x138 SWAP1 CALLDATASIZE SWAP1 PUSH1 0x4 ADD PUSH2 0x32EC JUMP JUMPDEST PUSH2 0x1B3 PUSH1 0x24 CALLDATALOAD SWAP2 CALLER PUSH1 0x0 MSTORE PUSH1 0x6C PUSH1 0x20 MSTORE PUSH2 0x180 PUSH2 0x15B PUSH1 0x6 PUSH1 0x40 PUSH1 0x0 KECCAK256 ADD PUSH2 0x35C2 JUMP JUMPDEST PUSH1 0x20 DUP2 MLOAD SWAP2 ADD KECCAK256 PUSH2 0x16A PUSH2 0x36B1 JUMP JUMPDEST PUSH1 0x20 DUP2 MLOAD SWAP2 ADD KECCAK256 EQ PUSH2 0x17A PUSH2 0x36D7 JUMP JUMPDEST SWAP1 PUSH2 0x3565 JUMP JUMPDEST PUSH2 0x1AE PUSH1 0xFF PUSH1 0x40 MLOAD PUSH1 0x20 DUP2 DUP6 MLOAD PUSH2 0x19A DUP2 DUP4 DUP6 DUP11 ADD PUSH2 0x3333 JUMP JUMPDEST DUP2 ADD PUSH1 0x67 DUP2 MSTORE SUB ADD SWAP1 KECCAK256 SLOAD AND PUSH2 0x17A PUSH2 0x37F6 JUMP JUMPDEST PUSH2 0x411D JUMP JUMPDEST PUSH1 0x69 SLOAD PUSH1 0x40 MLOAD PUSH4 0x4C313AE7 PUSH1 0xE1 SHL PUSH1 0x20 DUP3 ADD SWAP1 DUP2 MSTORE CALLER PUSH1 0x24 DUP4 ADD MSTORE PUSH1 0x44 DUP3 ADD DUP5 SWAP1 MSTORE SWAP3 SWAP4 SWAP3 PUSH1 0x0 SWAP3 DUP4 SWAP3 PUSH1 0x1 PUSH1 0x1 PUSH1 0xA0 SHL SUB SWAP1 SWAP2 AND SWAP2 SWAP1 DUP4 SWAP1 PUSH2 0x203 DUP2 PUSH1 0x64 DUP2 ADD JUMPDEST SUB PUSH1 0x1F NOT DUP2 ADD DUP4 MSTORE DUP3 PUSH2 0x32B0 JUMP JUMPDEST MLOAD SWAP3 GAS CALL POP PUSH2 0x210 PUSH2 0x34FA JUMP JUMPDEST SWAP2 PUSH1 0x20 DUP4 MLOAD SWAP4 DUP2 DUP1 DUP3 ADD SWAP6 DUP7 SWAP3 ADD ADD SUB SLT PUSH2 0x103 JUMPI DUP2 PUSH2 0x247 SWAP4 MLOAD LT ISZERO PUSH2 0x25B JUMPI JUMPDEST POP PUSH2 0x23B PUSH2 0x387F JUMP JUMPDEST SWAP1 TIMESTAMP SWAP2 CALLER SWAP1 CALLER SWAP1 PUSH2 0x3959 JUMP JUMPDEST SWAP1 PUSH2 0x257 PUSH1 0x40 MLOAD SWAP3 DUP4 SWAP3 DUP4 PUSH2 0x337B JUMP JUMPDEST SUB SWAP1 RETURN JUMPDEST PUSH1 0x69 SLOAD PUSH1 0x40 MLOAD PUSH4 0x8AFC7DF PUSH1 0xE3 SHL PUSH1 0x20 DUP3 ADD SWAP1 DUP2 MSTORE CALLER PUSH1 0x24 DUP4 ADD MSTORE PUSH1 0x44 DUP3 ADD SWAP4 SWAP1 SWAP4 MSTORE PUSH1 0x64 DUP2 ADD DUP5 SWAP1 MSTORE PUSH1 0x0 SWAP3 DUP4 SWAP3 PUSH1 0x1 PUSH1 0x1 PUSH1 0xA0 SHL SUB AND SWAP2 DUP4 SWAP1 PUSH2 0x2A3 DUP2 PUSH1 0x84 DUP2 ADD PUSH2 0x1F5 JUMP JUMPDEST MLOAD SWAP3 GAS CALL POP PUSH2 0x2B0 PUSH2 0x34FA JUMP JUMPDEST POP DUP3 PUSH2 0x232 JUMP JUMPDEST CALLVALUE PUSH2 0x103 JUMPI PUSH1 0x20 CALLDATASIZE PUSH1 0x3 NOT ADD SLT PUSH2 0x103 JUMPI PUSH1 0x4 CALLDATALOAD PUSH1 0x1 PUSH1 0x1 PUSH1 0x40 SHL SUB DUP2 GT PUSH2 0x103 JUMPI PUSH2 0x317 PUSH1 0x20 PUSH2 0x2EF PUSH2 0x3DF SWAP4 CALLDATASIZE SWAP1 PUSH1 0x4 ADD PUSH2 0x32EC JUMP JUMPDEST PUSH2 0x304 PUSH2 0x2FB DUP3 PUSH2 0x3D2D JUMP JUMPDEST ISZERO PUSH2 0x17A PUSH2 0x378E JUMP JUMPDEST DUP2 PUSH1 0x40 MLOAD SWAP4 DUP3 DUP6 DUP1 SWAP5 MLOAD SWAP4 DUP5 SWAP3 ADD PUSH2 0x3333 JUMP JUMPDEST DUP2 ADD PUSH1 0x6D DUP2 MSTORE SUB ADD SWAP1 KECCAK256 PUSH2 0x257 PUSH1 0x40 MLOAD PUSH2 0x330 DUP2 PUSH2 0x3294 JUMP JUMPDEST DUP3 SLOAD DUP2 MSTORE PUSH2 0x340 PUSH1 0x1 DUP5 ADD PUSH2 0x35C2 JUMP JUMPDEST SWAP3 PUSH1 0x20 DUP3 ADD SWAP4 DUP5 MSTORE PUSH2 0x354 PUSH1 0x2 DUP3 ADD PUSH2 0x35C2 JUMP JUMPDEST SWAP1 PUSH1 0x40 DUP4 ADD SWAP2 DUP3 MSTORE PUSH2 0x409 PUSH2 0x36B PUSH1 0x3 DUP4 ADD PUSH2 0x35C2 JUMP JUMPDEST SWAP2 PUSH1 0x60 DUP6 ADD SWAP3 DUP4 MSTORE PUSH2 0x3FB PUSH2 0x382 PUSH1 0x4 DUP4 ADD PUSH2 0x35C2 JUMP JUMPDEST SWAP4 PUSH1 0x80 DUP8 ADD SWAP5 DUP6 MSTORE PUSH2 0x3ED PUSH1 0x5 DUP5 ADD SLOAD SWAP2 PUSH1 0xA0 DUP10 ADD SWAP3 DUP4 MSTORE PUSH2 0x3A6 PUSH1 0x6 DUP7 ADD PUSH2 0x35C2 JUMP JUMPDEST SWAP5 DUP6 PUSH1 0xC0 DUP12 ADD MSTORE PUSH1 0x7 PUSH1 0x1 DUP1 PUSH1 0xA0 SHL SUB SWAP2 ADD SLOAD AND PUSH1 0xE0 DUP11 ADD MSTORE MLOAD SWAP10 MLOAD SWAP7 MLOAD SWAP2 MLOAD SWAP8 MLOAD SWAP6 MLOAD SWAP7 PUSH1 0x40 MLOAD SWAP12 DUP13 SWAP12 PUSH1 0xE0 DUP14 MSTORE PUSH1 0xE0 DUP14 ADD SWAP1 PUSH2 0x3356 JUMP JUMPDEST SWAP1 DUP12 DUP3 SUB PUSH1 0x20 DUP14 ADD MSTORE PUSH2 0x3356 JUMP JUMPDEST SWAP1 DUP10 DUP3 SUB PUSH1 0x40 DUP12 ADD MSTORE PUSH2 0x3356 JUMP JUMPDEST SWAP1 DUP8 DUP3 SUB PUSH1 0x60 DUP10 ADD MSTORE PUSH2 0x3356 JUMP JUMPDEST SWAP3 PUSH1 0x80 DUP7 ADD MSTORE PUSH1 0xA0 DUP6 ADD MSTORE DUP4 DUP3 SUB PUSH1 0xC0 DUP6 ADD MSTORE PUSH2 0x3356 JUMP JUMPDEST CALLVALUE PUSH2 0x103 JUMPI PUSH1 0x20 CALLDATASIZE PUSH1 0x3 NOT ADD SLT PUSH2 0x103 JUMPI PUSH1 0x4 CALLDATALOAD PUSH1 0x1 PUSH1 0x1 PUSH1 0x40 SHL SUB DUP2 GT PUSH2 0x103 JUMPI PUSH2 0x454 PUSH2 0x247 SWAP2 CALLDATASIZE SWAP1 PUSH1 0x4 ADD PUSH2 0x32EC JUMP JUMPDEST CALLER PUSH1 0x0 MSTORE PUSH1 0x6C PUSH1 0x20 MSTORE PUSH2 0x470 PUSH2 0x15B PUSH1 0x6 PUSH1 0x40 PUSH1 0x0 KECCAK256 ADD PUSH2 0x35C2 JUMP JUMPDEST PUSH2 0x479 DUP2 PUSH2 0x3E7C JUMP JUMPDEST PUSH2 0x4B8 PUSH1 0x20 PUSH1 0xC0 DUP4 ADD MLOAD SWAP3 ADD MLOAD SWAP2 PUSH2 0x497 PUSH1 0x1 DUP1 PUSH1 0xA0 SHL SUB SWAP2 PUSH2 0x3F77 JUMP JUMPDEST MLOAD AND SWAP3 DUP4 PUSH2 0x4B1 PUSH1 0x20 PUSH2 0x4AA CALLER SWAP5 PUSH2 0x3DF4 JUMP JUMPDEST ADD MLOAD PUSH2 0x4016 JUMP JUMPDEST MLOAD DUP5 PUSH2 0x4158 JUMP JUMPDEST POP PUSH2 0x4C1 PUSH2 0x3853 JUMP JUMPDEST TIMESTAMP SWAP3 CALLER SWAP2 PUSH2 0x3959 JUMP JUMPDEST CALLVALUE PUSH2 0x103 JUMPI PUSH1 0x0 CALLDATASIZE PUSH1 0x3 NOT ADD SLT PUSH2 0x103 JUMPI PUSH1 0x66 SLOAD PUSH1 0x40 MLOAD PUSH1 0x1 PUSH1 0x1 PUSH1 0xA0 SHL SUB SWAP1 SWAP2 AND DUP2 MSTORE PUSH1 0x20 SWAP1 RETURN JUMPDEST CALLVALUE PUSH2 0x103 JUMPI PUSH2 0x100 CALLDATASIZE PUSH1 0x3 NOT ADD SLT PUSH2 0x103 JUMPI PUSH1 0x4 CALLDATALOAD PUSH1 0x1 PUSH1 0x1 PUSH1 0x40 SHL SUB DUP2 GT PUSH2 0x103 JUMPI PUSH2 0x524 SWAP1 CALLDATASIZE SWAP1 PUSH1 0x4 ADD PUSH2 0x32EC JUMP JUMPDEST PUSH1 0x24 CALLDATALOAD PUSH1 0x1 PUSH1 0x1 PUSH1 0x40 SHL SUB DUP2 GT PUSH2 0x103 JUMPI PUSH2 0x543 SWAP1 CALLDATASIZE SWAP1 PUSH1 0x4 ADD PUSH2 0x32EC JUMP JUMPDEST PUSH1 0x44 CALLDATALOAD PUSH1 0x1 PUSH1 0x1 PUSH1 0x40 SHL SUB DUP2 GT PUSH2 0x103 JUMPI PUSH2 0x562 SWAP1 CALLDATASIZE SWAP1 PUSH1 0x4 ADD PUSH2 0x32EC JUMP JUMPDEST SWAP2 PUSH1 0x64 CALLDATALOAD PUSH1 0x1 PUSH1 0x1 PUSH1 0x40 SHL SUB DUP2 GT PUSH2 0x103 JUMPI PUSH2 0x582 SWAP1 CALLDATASIZE SWAP1 PUSH1 0x4 ADD PUSH2 0x32EC JUMP JUMPDEST SWAP1 PUSH1 0x84 CALLDATALOAD PUSH1 0x1 PUSH1 0x1 PUSH1 0x40 SHL SUB DUP2 GT PUSH2 0x103 JUMPI PUSH2 0x5A2 SWAP1 CALLDATASIZE SWAP1 PUSH1 0x4 ADD PUSH2 0x32EC JUMP JUMPDEST SWAP1 PUSH1 0xA4 CALLDATALOAD PUSH1 0x1 PUSH1 0x1 PUSH1 0x40 SHL SUB DUP2 GT PUSH2 0x103 JUMPI PUSH2 0x5C2 SWAP1 CALLDATASIZE SWAP1 PUSH1 0x4 ADD PUSH2 0x32EC JUMP JUMPDEST SWAP3 PUSH1 0xC4 CALLDATALOAD SWAP5 PUSH1 0xE4 CALLDATALOAD PUSH1 0x1 PUSH1 0x1 PUSH1 0x40 SHL SUB DUP2 GT PUSH2 0x103 JUMPI PUSH2 0x5E6 SWAP1 CALLDATASIZE SWAP1 PUSH1 0x4 ADD PUSH2 0x32EC JUMP JUMPDEST SWAP7 CALLER PUSH1 0x0 MSTORE PUSH1 0x6C PUSH1 0x20 MSTORE PUSH2 0x612 PUSH2 0x603 PUSH1 0x6 PUSH1 0x40 PUSH1 0x0 KECCAK256 ADD PUSH2 0x35C2 JUMP JUMPDEST PUSH1 0x20 DUP2 MLOAD SWAP2 ADD KECCAK256 PUSH2 0x16A PUSH2 0x3666 JUMP JUMPDEST PUSH2 0x61B DUP5 PUSH2 0x3D2D JUMP JUMPDEST ISZERO SWAP2 DUP3 PUSH2 0xCB3 JUMPI JUMPDEST POP DUP2 PUSH2 0xCA2 JUMPI JUMPDEST POP DUP1 PUSH2 0xC92 JUMPI JUMPDEST DUP1 PUSH2 0xC82 JUMPI JUMPDEST DUP1 PUSH2 0xC72 JUMPI JUMPDEST DUP1 PUSH2 0xC69 JUMPI JUMPDEST DUP1 PUSH2 0xC54 JUMPI JUMPDEST PUSH2 0x655 SWAP1 PUSH2 0x17A PUSH2 0x352A JUMP JUMPDEST PUSH2 0x65E DUP5 PUSH2 0x411D JUMP JUMPDEST SWAP4 PUSH2 0x66F PUSH1 0x68 SLOAD ISZERO ISZERO PUSH2 0x17A PUSH2 0x37F6 JUMP JUMPDEST PUSH1 0x40 MLOAD SWAP4 PUSH2 0x67C DUP6 PUSH2 0x3294 JUMP JUMPDEST DUP6 DUP6 MSTORE PUSH1 0x20 DUP6 ADD SWAP3 DUP5 DUP5 MSTORE PUSH1 0x40 DUP7 ADD SWAP1 DUP2 MSTORE PUSH1 0x60 DUP7 ADD SWAP2 DUP3 MSTORE PUSH1 0x80 DUP7 ADD SWAP3 DUP4 MSTORE PUSH1 0xA0 DUP7 ADD SWAP4 DUP9 DUP6 MSTORE PUSH1 0xC0 DUP8 ADD SWAP10 DUP11 MSTORE PUSH2 0x6CB PUSH1 0x20 PUSH1 0xE0 DUP10 ADD SWAP8 CALLER DUP10 MSTORE DUP2 PUSH1 0x40 MLOAD SWAP4 DUP3 DUP6 DUP1 SWAP5 MLOAD SWAP4 DUP5 SWAP3 ADD PUSH2 0x3333 JUMP JUMPDEST DUP2 ADD PUSH1 0x6D DUP2 MSTORE SUB ADD SWAP1 KECCAK256 SWAP7 MLOAD DUP8 SSTORE PUSH1 0x1 DUP8 ADD SWAP1 MLOAD DUP1 MLOAD SWAP1 PUSH1 0x1 PUSH1 0x1 PUSH1 0x40 SHL SUB DUP3 GT PUSH2 0x9B9 JUMPI PUSH2 0x6FA DUP4 SLOAD PUSH2 0x34A9 JUMP JUMPDEST PUSH1 0x1F DUP2 GT PUSH2 0xC22 JUMPI JUMPDEST POP PUSH1 0x20 SWAP1 PUSH1 0x1F DUP4 GT PUSH1 0x1 EQ PUSH2 0xBBB JUMPI PUSH2 0x735 SWAP3 SWAP2 PUSH1 0x0 SWAP2 DUP4 PUSH2 0xBB0 JUMPI JUMPDEST POP POP DUP2 PUSH1 0x1 SHL SWAP2 PUSH1 0x0 NOT SWAP1 PUSH1 0x3 SHL SHR NOT AND OR SWAP1 JUMP JUMPDEST SWAP1 SSTORE JUMPDEST MLOAD DUP1 MLOAD PUSH1 0x2 DUP8 ADD SWAP2 PUSH1 0x1 PUSH1 0x1 PUSH1 0x40 SHL SUB DUP3 GT PUSH2 0x9B9 JUMPI PUSH2 0x758 DUP4 SLOAD PUSH2 0x34A9 JUMP JUMPDEST PUSH1 0x1F DUP2 GT PUSH2 0xB7E JUMPI JUMPDEST POP PUSH1 0x20 SWAP1 PUSH1 0x1F DUP4 GT PUSH1 0x1 EQ PUSH2 0xB17 JUMPI PUSH2 0x792 SWAP3 SWAP2 PUSH1 0x0 SWAP2 DUP4 PUSH2 0xB0C JUMPI POP POP DUP2 PUSH1 0x1 SHL SWAP2 PUSH1 0x0 NOT SWAP1 PUSH1 0x3 SHL SHR NOT AND OR SWAP1 JUMP JUMPDEST SWAP1 SSTORE JUMPDEST MLOAD DUP1 MLOAD PUSH1 0x3 DUP7 ADD SWAP2 PUSH1 0x1 PUSH1 0x1 PUSH1 0x40 SHL SUB DUP3 GT PUSH2 0x9B9 JUMPI PUSH2 0x7B5 DUP4 SLOAD PUSH2 0x34A9 JUMP JUMPDEST PUSH1 0x1F DUP2 GT PUSH2 0xADA JUMPI JUMPDEST POP PUSH1 0x20 SWAP1 PUSH1 0x1F DUP4 GT PUSH1 0x1 EQ PUSH2 0xA73 JUMPI PUSH2 0x7EF SWAP3 SWAP2 PUSH1 0x0 SWAP2 DUP4 PUSH2 0x8FF JUMPI POP POP DUP2 PUSH1 0x1 SHL SWAP2 PUSH1 0x0 NOT SWAP1 PUSH1 0x3 SHL SHR NOT AND OR SWAP1 JUMP JUMPDEST SWAP1 SSTORE JUMPDEST MLOAD DUP1 MLOAD PUSH1 0x4 DUP6 ADD SWAP2 PUSH1 0x1 PUSH1 0x1 PUSH1 0x40 SHL SUB DUP3 GT PUSH2 0x9B9 JUMPI PUSH2 0x812 DUP4 SLOAD PUSH2 0x34A9 JUMP JUMPDEST PUSH1 0x1F DUP2 GT PUSH2 0xA41 JUMPI JUMPDEST POP PUSH1 0x20 SWAP1 PUSH1 0x1F DUP4 GT PUSH1 0x1 EQ PUSH2 0x9DA JUMPI PUSH2 0x84C SWAP3 SWAP2 PUSH1 0x0 SWAP2 DUP4 PUSH2 0x9CF JUMPI POP POP DUP2 PUSH1 0x1 SHL SWAP2 PUSH1 0x0 NOT SWAP1 PUSH1 0x3 SHL SHR NOT AND OR SWAP1 JUMP JUMPDEST SWAP1 SSTORE JUMPDEST MLOAD PUSH1 0x5 DUP4 ADD SSTORE PUSH1 0x6 DUP3 ADD SWAP5 MLOAD SWAP5 DUP6 MLOAD PUSH1 0x1 PUSH1 0x1 PUSH1 0x40 SHL SUB DUP2 GT PUSH2 0x9B9 JUMPI PUSH2 0x876 DUP3 SLOAD PUSH2 0x34A9 JUMP JUMPDEST PUSH1 0x1F DUP2 GT PUSH2 0x97C JUMPI JUMPDEST POP PUSH1 0x20 PUSH1 0x1F DUP3 GT PUSH1 0x1 EQ PUSH2 0x90A JUMPI SWAP2 PUSH2 0x8BC DUP3 PUSH2 0x8EA SWAP8 SWAP7 SWAP6 SWAP4 PUSH1 0x7 SWAP6 PUSH2 0x247 SWAP12 PUSH1 0x0 SWAP3 PUSH2 0x8FF JUMPI POP POP DUP2 PUSH1 0x1 SHL SWAP2 PUSH1 0x0 NOT SWAP1 PUSH1 0x3 SHL SHR NOT AND OR SWAP1 JUMP JUMPDEST SWAP1 SSTORE JUMPDEST MLOAD SWAP2 ADD DUP1 SLOAD PUSH1 0x1 PUSH1 0x1 PUSH1 0xA0 SHL SUB NOT AND PUSH1 0x1 PUSH1 0x1 PUSH1 0xA0 SHL SUB SWAP3 SWAP1 SWAP3 AND SWAP2 SWAP1 SWAP2 OR SWAP1 SSTORE ADDRESS SWAP1 CALLER SWAP1 DUP5 PUSH2 0x4158 JUMP JUMPDEST POP PUSH2 0x8F3 PUSH2 0x3828 JUMP JUMPDEST SWAP1 TIMESTAMP SWAP2 CALLER SWAP1 ADDRESS SWAP1 PUSH2 0x3959 JUMP JUMPDEST ADD MLOAD SWAP1 POP DUP12 DUP1 PUSH2 0x720 JUMP JUMPDEST PUSH1 0x1F NOT DUP3 AND SWAP8 DUP4 PUSH1 0x0 MSTORE DUP2 PUSH1 0x0 KECCAK256 SWAP9 PUSH1 0x0 JUMPDEST DUP2 DUP2 LT PUSH2 0x964 JUMPI POP SWAP3 PUSH2 0x247 SWAP10 PUSH1 0x7 SWAP6 SWAP4 PUSH1 0x1 SWAP4 DUP4 PUSH2 0x8EA SWAP12 SWAP11 SWAP10 SWAP8 LT PUSH2 0x94B JUMPI JUMPDEST POP POP POP DUP2 SHL ADD SWAP1 SSTORE PUSH2 0x8BF JUMP JUMPDEST ADD MLOAD PUSH1 0x0 NOT PUSH1 0xF8 DUP5 PUSH1 0x3 SHL AND SHR NOT AND SWAP1 SSTORE DUP11 DUP1 DUP1 PUSH2 0x93E JUMP JUMPDEST DUP4 DUP4 ADD MLOAD DUP12 SSTORE PUSH1 0x1 SWAP1 SWAP11 ADD SWAP10 PUSH1 0x20 SWAP4 DUP5 ADD SWAP4 ADD PUSH2 0x91C JUMP JUMPDEST PUSH2 0x9A9 SWAP1 DUP4 PUSH1 0x0 MSTORE PUSH1 0x20 PUSH1 0x0 KECCAK256 PUSH1 0x1F DUP5 ADD PUSH1 0x5 SHR DUP2 ADD SWAP2 PUSH1 0x20 DUP6 LT PUSH2 0x9AF JUMPI JUMPDEST PUSH1 0x1F ADD PUSH1 0x5 SHR ADD SWAP1 PUSH2 0x34E3 JUMP JUMPDEST DUP8 PUSH2 0x87F JUMP JUMPDEST SWAP1 SWAP2 POP DUP2 SWAP1 PUSH2 0x99C JUMP JUMPDEST PUSH4 0x4E487B71 PUSH1 0xE0 SHL PUSH1 0x0 MSTORE PUSH1 0x41 PUSH1 0x4 MSTORE PUSH1 0x24 PUSH1 0x0 REVERT JUMPDEST ADD MLOAD SWAP1 POP DUP11 DUP1 PUSH2 0x720 JUMP JUMPDEST SWAP1 PUSH1 0x1F NOT DUP4 AND SWAP2 DUP5 PUSH1 0x0 MSTORE DUP2 PUSH1 0x0 KECCAK256 SWAP3 PUSH1 0x0 JUMPDEST DUP2 DUP2 LT PUSH2 0xA29 JUMPI POP SWAP1 DUP5 PUSH1 0x1 SWAP6 SWAP5 SWAP4 SWAP3 LT PUSH2 0xA10 JUMPI JUMPDEST POP POP POP DUP2 SHL ADD SWAP1 SSTORE PUSH2 0x84F JUMP JUMPDEST ADD MLOAD PUSH1 0x0 NOT PUSH1 0xF8 DUP5 PUSH1 0x3 SHL AND SHR NOT AND SWAP1 SSTORE DUP10 DUP1 DUP1 PUSH2 0xA03 JUMP JUMPDEST SWAP3 SWAP4 PUSH1 0x20 PUSH1 0x1 DUP2 SWAP3 DUP8 DUP7 ADD MLOAD DUP2 SSTORE ADD SWAP6 ADD SWAP4 ADD PUSH2 0x9ED JUMP JUMPDEST PUSH2 0xA6D SWAP1 DUP5 PUSH1 0x0 MSTORE PUSH1 0x20 PUSH1 0x0 KECCAK256 PUSH1 0x1F DUP6 ADD PUSH1 0x5 SHR DUP2 ADD SWAP2 PUSH1 0x20 DUP7 LT PUSH2 0x9AF JUMPI PUSH1 0x1F ADD PUSH1 0x5 SHR ADD SWAP1 PUSH2 0x34E3 JUMP JUMPDEST DUP10 PUSH2 0x81B JUMP JUMPDEST SWAP1 PUSH1 0x1F NOT DUP4 AND SWAP2 DUP5 PUSH1 0x0 MSTORE DUP2 PUSH1 0x0 KECCAK256 SWAP3 PUSH1 0x0 JUMPDEST DUP2 DUP2 LT PUSH2 0xAC2 JUMPI POP SWAP1 DUP5 PUSH1 0x1 SWAP6 SWAP5 SWAP4 SWAP3 LT PUSH2 0xAA9 JUMPI JUMPDEST POP POP POP DUP2 SHL ADD SWAP1 SSTORE PUSH2 0x7F2 JUMP JUMPDEST ADD MLOAD PUSH1 0x0 NOT PUSH1 0xF8 DUP5 PUSH1 0x3 SHL AND SHR NOT AND SWAP1 SSTORE DUP11 DUP1 DUP1 PUSH2 0xA9C JUMP JUMPDEST SWAP3 SWAP4 PUSH1 0x20 PUSH1 0x1 DUP2 SWAP3 DUP8 DUP7 ADD MLOAD DUP2 SSTORE ADD SWAP6 ADD SWAP4 ADD PUSH2 0xA86 JUMP JUMPDEST PUSH2 0xB06 SWAP1 DUP5 PUSH1 0x0 MSTORE PUSH1 0x20 PUSH1 0x0 KECCAK256 PUSH1 0x1F DUP6 ADD PUSH1 0x5 SHR DUP2 ADD SWAP2 PUSH1 0x20 DUP7 LT PUSH2 0x9AF JUMPI PUSH1 0x1F ADD PUSH1 0x5 SHR ADD SWAP1 PUSH2 0x34E3 JUMP JUMPDEST DUP11 PUSH2 0x7BE JUMP JUMPDEST ADD MLOAD SWAP1 POP DUP13 DUP1 PUSH2 0x720 JUMP JUMPDEST SWAP1 PUSH1 0x1F NOT DUP4 AND SWAP2 DUP5 PUSH1 0x0 MSTORE DUP2 PUSH1 0x0 KECCAK256 SWAP3 PUSH1 0x0 JUMPDEST DUP2 DUP2 LT PUSH2 0xB66 JUMPI POP SWAP1 DUP5 PUSH1 0x1 SWAP6 SWAP5 SWAP4 SWAP3 LT PUSH2 0xB4D JUMPI JUMPDEST POP POP POP DUP2 SHL ADD SWAP1 SSTORE PUSH2 0x795 JUMP JUMPDEST ADD MLOAD PUSH1 0x0 NOT PUSH1 0xF8 DUP5 PUSH1 0x3 SHL AND SHR NOT AND SWAP1 SSTORE DUP12 DUP1 DUP1 PUSH2 0xB40 JUMP JUMPDEST SWAP3 SWAP4 PUSH1 0x20 PUSH1 0x1 DUP2 SWAP3 DUP8 DUP7 ADD MLOAD DUP2 SSTORE ADD SWAP6 ADD SWAP4 ADD PUSH2 0xB2A JUMP JUMPDEST PUSH2 0xBAA SWAP1 DUP5 PUSH1 0x0 MSTORE PUSH1 0x20 PUSH1 0x0 KECCAK256 PUSH1 0x1F DUP6 ADD PUSH1 0x5 SHR DUP2 ADD SWAP2 PUSH1 0x20 DUP7 LT PUSH2 0x9AF JUMPI PUSH1 0x1F ADD PUSH1 0x5 SHR ADD SWAP1 PUSH2 0x34E3 JUMP JUMPDEST DUP12 PUSH2 0x761 JUMP JUMPDEST ADD MLOAD SWAP1 POP DUP14 DUP1 PUSH2 0x720 JUMP JUMPDEST SWAP1 PUSH1 0x1F NOT DUP4 AND SWAP2 DUP5 PUSH1 0x0 MSTORE DUP2 PUSH1 0x0 KECCAK256 SWAP3 PUSH1 0x0 JUMPDEST DUP2 DUP2 LT PUSH2 0xC0A JUMPI POP SWAP1 DUP5 PUSH1 0x1 SWAP6 SWAP5 SWAP4 SWAP3 LT PUSH2 0xBF1 JUMPI JUMPDEST POP POP POP DUP2 SHL ADD SWAP1 SSTORE PUSH2 0x738 JUMP JUMPDEST ADD MLOAD PUSH1 0x0 NOT PUSH1 0xF8 DUP5 PUSH1 0x3 SHL AND SHR NOT AND SWAP1 SSTORE DUP13 DUP1 DUP1 PUSH2 0xBE4 JUMP JUMPDEST SWAP3 SWAP4 PUSH1 0x20 PUSH1 0x1 DUP2 SWAP3 DUP8 DUP7 ADD MLOAD DUP2 SSTORE ADD SWAP6 ADD SWAP4 ADD PUSH2 0xBCE JUMP JUMPDEST PUSH2 0xC4E SWAP1 DUP5 PUSH1 0x0 MSTORE PUSH1 0x20 PUSH1 0x0 KECCAK256 PUSH1 0x1F DUP6 ADD PUSH1 0x5 SHR DUP2 ADD SWAP2 PUSH1 0x20 DUP7 LT PUSH2 0x9AF JUMPI PUSH1 0x1F ADD PUSH1 0x5 SHR ADD SWAP1 PUSH2 0x34E3 JUMP JUMPDEST DUP13 PUSH2 0x703 JUMP JUMPDEST POP PUSH2 0x655 PUSH2 0xC61 DUP8 PUSH2 0x3D2D JUMP JUMPDEST ISZERO SWAP1 POP PUSH2 0x649 JUMP JUMPDEST POP DUP5 ISZERO ISZERO PUSH2 0x643 JUMP JUMPDEST POP PUSH2 0xC7C DUP5 PUSH2 0x3D2D JUMP JUMPDEST ISZERO PUSH2 0x63D JUMP JUMPDEST POP PUSH2 0xC8C DUP4 PUSH2 0x3D2D JUMP JUMPDEST ISZERO PUSH2 0x637 JUMP JUMPDEST POP PUSH2 0xC9C DUP2 PUSH2 0x3D2D JUMP JUMPDEST ISZERO PUSH2 0x631 JUMP JUMPDEST PUSH2 0xCAC SWAP2 POP PUSH2 0x3D2D JUMP JUMPDEST ISZERO DUP8 PUSH2 0x62A JUMP JUMPDEST PUSH2 0xCBE SWAP2 SWAP3 POP PUSH2 0x3D2D JUMP JUMPDEST ISZERO SWAP1 DUP9 PUSH2 0x623 JUMP JUMPDEST CALLVALUE PUSH2 0x103 JUMPI PUSH1 0x0 CALLDATASIZE PUSH1 0x3 NOT ADD SLT PUSH2 0x103 JUMPI PUSH1 0x0 DUP1 MLOAD PUSH1 0x20 PUSH2 0x42CC DUP4 CODECOPY DUP2 MLOAD SWAP2 MSTORE SLOAD PUSH1 0x40 MLOAD PUSH1 0x1 PUSH1 0x1 PUSH1 0xA0 SHL SUB SWAP1 SWAP2 AND DUP2 MSTORE PUSH1 0x20 SWAP1 RETURN JUMPDEST CALLVALUE PUSH2 0x103 JUMPI PUSH1 0x80 CALLDATASIZE PUSH1 0x3 NOT ADD SLT PUSH2 0x103 JUMPI PUSH1 0x4 CALLDATALOAD PUSH1 0x1 PUSH1 0x1 PUSH1 0x40 SHL SUB DUP2 GT PUSH2 0x103 JUMPI PUSH2 0xD2C SWAP1 CALLDATASIZE SWAP1 PUSH1 0x4 ADD PUSH2 0x32EC JUMP JUMPDEST PUSH1 0x24 CALLDATALOAD PUSH1 0x1 PUSH1 0x1 PUSH1 0x40 SHL SUB DUP2 GT PUSH2 0x103 JUMPI PUSH2 0xD4B SWAP1 CALLDATASIZE SWAP1 PUSH1 0x4 ADD PUSH2 0x32EC JUMP JUMPDEST SWAP1 PUSH1 0x44 CALLDATALOAD PUSH1 0x1 PUSH1 0x1 PUSH1 0x40 SHL SUB DUP2 GT PUSH2 0x103 JUMPI PUSH2 0xD6B SWAP1 CALLDATASIZE SWAP1 PUSH1 0x4 ADD PUSH2 0x3405 JUMP JUMPDEST PUSH1 0x64 CALLDATALOAD PUSH1 0x1 PUSH1 0x1 PUSH1 0x40 SHL SUB DUP2 GT PUSH2 0x103 JUMPI PUSH2 0xD8A SWAP1 CALLDATASIZE SWAP1 PUSH1 0x4 ADD PUSH2 0x3405 JUMP JUMPDEST SWAP3 PUSH2 0xDC7 PUSH1 0x20 PUSH1 0x40 MLOAD SWAP5 PUSH2 0xD9D DUP7 PUSH2 0x3279 JUMP JUMPDEST DUP1 DUP7 MSTORE DUP2 DUP7 ADD SWAP4 DUP5 MSTORE PUSH1 0x40 DUP7 ADD SWAP5 DUP6 MSTORE PUSH1 0x60 DUP7 ADD SWAP7 DUP8 MSTORE DUP2 PUSH1 0x40 MLOAD SWAP4 DUP3 DUP6 DUP1 SWAP5 MLOAD SWAP4 DUP5 SWAP3 ADD PUSH2 0x3333 JUMP JUMPDEST DUP2 ADD PUSH1 0x6F DUP2 MSTORE SUB ADD SWAP1 KECCAK256 SWAP3 MLOAD DUP1 MLOAD SWAP1 PUSH1 0x1 PUSH1 0x1 PUSH1 0x40 SHL SUB DUP3 GT PUSH2 0x9B9 JUMPI PUSH2 0xDEE DUP6 SLOAD PUSH2 0x34A9 JUMP JUMPDEST PUSH1 0x1F DUP2 GT PUSH2 0x1332 JUMPI JUMPDEST POP PUSH1 0x20 SWAP1 PUSH1 0x1F DUP4 GT PUSH1 0x1 EQ PUSH2 0x12CB JUMPI PUSH2 0xE28 SWAP3 SWAP2 PUSH1 0x0 SWAP2 DUP4 PUSH2 0x1227 JUMPI POP POP DUP2 PUSH1 0x1 SHL SWAP2 PUSH1 0x0 NOT SWAP1 PUSH1 0x3 SHL SHR NOT AND OR SWAP1 JUMP JUMPDEST DUP4 SSTORE JUMPDEST MLOAD DUP1 MLOAD PUSH1 0x1 DUP5 ADD SWAP2 PUSH1 0x1 PUSH1 0x1 PUSH1 0x40 SHL SUB DUP3 GT PUSH2 0x9B9 JUMPI PUSH2 0xE4B DUP4 SLOAD PUSH2 0x34A9 JUMP JUMPDEST PUSH1 0x1F DUP2 GT PUSH2 0x1299 JUMPI JUMPDEST POP PUSH1 0x20 SWAP1 PUSH1 0x1F DUP4 GT PUSH1 0x1 EQ PUSH2 0x1232 JUMPI PUSH2 0xE85 SWAP3 SWAP2 PUSH1 0x0 SWAP2 DUP4 PUSH2 0x1227 JUMPI POP POP DUP2 PUSH1 0x1 SHL SWAP2 PUSH1 0x0 NOT SWAP1 PUSH1 0x3 SHL SHR NOT AND OR SWAP1 JUMP JUMPDEST SWAP1 SSTORE JUMPDEST MLOAD DUP1 MLOAD PUSH1 0x2 DUP4 ADD SWAP2 PUSH1 0x1 PUSH1 0x40 SHL DUP3 GT PUSH2 0x9B9 JUMPI DUP3 SLOAD DUP3 DUP5 SSTORE DUP1 DUP4 LT PUSH2 0x11A9 JUMPI JUMPDEST POP PUSH1 0x20 ADD SWAP2 PUSH1 0x0 MSTORE PUSH1 0x20 PUSH1 0x0 KECCAK256 SWAP2 PUSH1 0x0 SWAP1 JUMPDEST DUP3 DUP3 LT PUSH2 0x109C JUMPI DUP6 MLOAD DUP1 MLOAD PUSH1 0x3 DUP8 ADD SWAP2 PUSH1 0x1 PUSH1 0x40 SHL DUP3 GT PUSH2 0x9B9 JUMPI DUP3 SLOAD DUP3 DUP5 SSTORE DUP1 DUP4 LT PUSH2 0x101E JUMPI JUMPDEST POP PUSH1 0x20 ADD SWAP2 PUSH1 0x0 MSTORE PUSH1 0x20 PUSH1 0x0 KECCAK256 SWAP2 PUSH1 0x0 SWAP1 JUMPDEST DUP3 DUP3 LT PUSH2 0xF11 JUMPI PUSH2 0x247 PUSH2 0xF06 PUSH2 0x37C9 JUMP JUMPDEST TIMESTAMP SWAP1 CALLER SWAP1 CALLER SWAP1 PUSH2 0x3B5F JUMP JUMPDEST DUP1 MLOAD DUP1 MLOAD SWAP1 PUSH1 0x1 PUSH1 0x1 PUSH1 0x40 SHL SUB DUP3 GT PUSH2 0x9B9 JUMPI PUSH2 0xF2E DUP7 SLOAD PUSH2 0x34A9 JUMP JUMPDEST PUSH1 0x1F DUP2 GT PUSH2 0xFEC JUMPI JUMPDEST POP PUSH1 0x20 SWAP1 PUSH1 0x1F DUP4 GT PUSH1 0x1 EQ PUSH2 0xF7F JUMPI SWAP3 PUSH2 0xF70 DUP4 PUSH1 0x1 SWAP6 SWAP5 PUSH1 0x20 SWAP5 DUP8 SWAP7 PUSH1 0x0 SWAP3 PUSH2 0x9CF JUMPI POP POP DUP2 PUSH1 0x1 SHL SWAP2 PUSH1 0x0 NOT SWAP1 PUSH1 0x3 SHL SHR NOT AND OR SWAP1 JUMP JUMPDEST DUP8 SSTORE JUMPDEST ADD SWAP5 ADD SWAP2 ADD SWAP1 SWAP3 PUSH2 0xEF4 JUMP JUMPDEST SWAP1 PUSH1 0x1F NOT DUP4 AND SWAP2 DUP8 PUSH1 0x0 MSTORE DUP2 PUSH1 0x0 KECCAK256 SWAP3 PUSH1 0x0 JUMPDEST DUP2 DUP2 LT PUSH2 0xFD4 JUMPI POP SWAP4 PUSH1 0x20 SWAP4 PUSH1 0x1 SWAP7 SWAP4 DUP8 SWAP7 SWAP4 DUP4 DUP9 SWAP6 LT PUSH2 0xFBB JUMPI JUMPDEST POP POP POP DUP2 SHL ADD DUP8 SSTORE PUSH2 0xF73 JUMP JUMPDEST ADD MLOAD PUSH1 0x0 NOT PUSH1 0xF8 DUP5 PUSH1 0x3 SHL AND SHR NOT AND SWAP1 SSTORE DUP10 DUP1 DUP1 PUSH2 0xFAE JUMP JUMPDEST SWAP3 SWAP4 PUSH1 0x20 PUSH1 0x1 DUP2 SWAP3 DUP8 DUP7 ADD MLOAD DUP2 SSTORE ADD SWAP6 ADD SWAP4 ADD PUSH2 0xF92 JUMP JUMPDEST PUSH2 0x1018 SWAP1 DUP8 PUSH1 0x0 MSTORE PUSH1 0x20 PUSH1 0x0 KECCAK256 PUSH1 0x1F DUP6 ADD PUSH1 0x5 SHR DUP2 ADD SWAP2 PUSH1 0x20 DUP7 LT PUSH2 0x9AF JUMPI PUSH1 0x1F ADD PUSH1 0x5 SHR ADD SWAP1 PUSH2 0x34E3 JUMP JUMPDEST DUP7 PUSH2 0xF37 JUMP JUMPDEST DUP4 PUSH1 0x0 MSTORE DUP3 PUSH1 0x20 PUSH1 0x0 KECCAK256 SWAP2 DUP3 ADD SWAP2 ADD JUMPDEST DUP2 DUP2 LT PUSH2 0x103B JUMPI POP PUSH2 0xEE2 JUMP JUMPDEST DUP1 PUSH2 0x1048 PUSH1 0x1 SWAP3 SLOAD PUSH2 0x34A9 JUMP JUMPDEST DUP1 PUSH2 0x1055 JUMPI JUMPDEST POP ADD PUSH2 0x102E JUMP JUMPDEST PUSH1 0x1F DUP2 GT DUP4 EQ PUSH2 0x106B JUMPI POP PUSH1 0x0 DUP2 SSTORE JUMPDEST DUP7 PUSH2 0x104E JUMP JUMPDEST PUSH2 0x1089 SWAP1 DUP3 PUSH1 0x0 MSTORE DUP4 PUSH1 0x1F PUSH1 0x20 PUSH1 0x0 KECCAK256 SWAP3 ADD PUSH1 0x5 SHR DUP3 ADD SWAP2 ADD PUSH2 0x34E3 JUMP JUMPDEST DUP1 PUSH1 0x0 MSTORE PUSH1 0x0 PUSH1 0x20 DUP2 KECCAK256 DUP2 DUP4 SSTORE SSTORE PUSH2 0x1065 JUMP JUMPDEST DUP1 MLOAD DUP1 MLOAD SWAP1 PUSH1 0x1 PUSH1 0x1 PUSH1 0x40 SHL SUB DUP3 GT PUSH2 0x9B9 JUMPI PUSH2 0x10B9 DUP7 SLOAD PUSH2 0x34A9 JUMP JUMPDEST PUSH1 0x1F DUP2 GT PUSH2 0x1177 JUMPI JUMPDEST POP PUSH1 0x20 SWAP1 PUSH1 0x1F DUP4 GT PUSH1 0x1 EQ PUSH2 0x110A JUMPI SWAP3 PUSH2 0x10FB DUP4 PUSH1 0x1 SWAP6 SWAP5 PUSH1 0x20 SWAP5 DUP8 SWAP7 PUSH1 0x0 SWAP3 PUSH2 0xB0C JUMPI POP POP DUP2 PUSH1 0x1 SHL SWAP2 PUSH1 0x0 NOT SWAP1 PUSH1 0x3 SHL SHR NOT AND OR SWAP1 JUMP JUMPDEST DUP8 SSTORE JUMPDEST ADD SWAP5 ADD SWAP2 ADD SWAP1 SWAP3 PUSH2 0xEBA JUMP JUMPDEST SWAP1 PUSH1 0x1F NOT DUP4 AND SWAP2 DUP8 PUSH1 0x0 MSTORE DUP2 PUSH1 0x0 KECCAK256 SWAP3 PUSH1 0x0 JUMPDEST DUP2 DUP2 LT PUSH2 0x115F JUMPI POP SWAP4 PUSH1 0x20 SWAP4 PUSH1 0x1 SWAP7 SWAP4 DUP8 SWAP7 SWAP4 DUP4 DUP9 SWAP6 LT PUSH2 0x1146 JUMPI JUMPDEST POP POP POP DUP2 SHL ADD DUP8 SSTORE PUSH2 0x10FE JUMP JUMPDEST ADD MLOAD PUSH1 0x0 NOT PUSH1 0xF8 DUP5 PUSH1 0x3 SHL AND SHR NOT AND SWAP1 SSTORE DUP12 DUP1 DUP1 PUSH2 0x1139 JUMP JUMPDEST SWAP3 SWAP4 PUSH1 0x20 PUSH1 0x1 DUP2 SWAP3 DUP8 DUP7 ADD MLOAD DUP2 SSTORE ADD SWAP6 ADD SWAP4 ADD PUSH2 0x111D JUMP JUMPDEST PUSH2 0x11A3 SWAP1 DUP8 PUSH1 0x0 MSTORE PUSH1 0x20 PUSH1 0x0 KECCAK256 PUSH1 0x1F DUP6 ADD PUSH1 0x5 SHR DUP2 ADD SWAP2 PUSH1 0x20 DUP7 LT PUSH2 0x9AF JUMPI PUSH1 0x1F ADD PUSH1 0x5 SHR ADD SWAP1 PUSH2 0x34E3 JUMP JUMPDEST DUP9 PUSH2 0x10C2 JUMP JUMPDEST DUP4 PUSH1 0x0 MSTORE DUP3 PUSH1 0x20 PUSH1 0x0 KECCAK256 SWAP2 DUP3 ADD SWAP2 ADD JUMPDEST DUP2 DUP2 LT PUSH2 0x11C6 JUMPI POP PUSH2 0xEA8 JUMP JUMPDEST DUP1 PUSH2 0x11D3 PUSH1 0x1 SWAP3 SLOAD PUSH2 0x34A9 JUMP JUMPDEST DUP1 PUSH2 0x11E0 JUMPI JUMPDEST POP ADD PUSH2 0x11B9 JUMP JUMPDEST PUSH1 0x1F DUP2 GT DUP4 EQ PUSH2 0x11F6 JUMPI POP PUSH1 0x0 DUP2 SSTORE JUMPDEST DUP9 PUSH2 0x11D9 JUMP JUMPDEST PUSH2 0x1214 SWAP1 DUP3 PUSH1 0x0 MSTORE DUP4 PUSH1 0x1F PUSH1 0x20 PUSH1 0x0 KECCAK256 SWAP3 ADD PUSH1 0x5 SHR DUP3 ADD SWAP2 ADD PUSH2 0x34E3 JUMP JUMPDEST DUP1 PUSH1 0x0 MSTORE PUSH1 0x0 PUSH1 0x20 DUP2 KECCAK256 DUP2 DUP4 SSTORE SSTORE PUSH2 0x11F0 JUMP JUMPDEST ADD MLOAD SWAP1 POP DUP8 DUP1 PUSH2 0x720 JUMP JUMPDEST SWAP1 PUSH1 0x1F NOT DUP4 AND SWAP2 DUP5 PUSH1 0x0 MSTORE DUP2 PUSH1 0x0 KECCAK256 SWAP3 PUSH1 0x0 JUMPDEST DUP2 DUP2 LT PUSH2 0x1281 JUMPI POP SWAP1 DUP5 PUSH1 0x1 SWAP6 SWAP5 SWAP4 SWAP3 LT PUSH2 0x1268 JUMPI JUMPDEST POP POP POP DUP2 SHL ADD SWAP1 SSTORE PUSH2 0xE88 JUMP JUMPDEST ADD MLOAD PUSH1 0x0 NOT PUSH1 0xF8 DUP5 PUSH1 0x3 SHL AND SHR NOT AND SWAP1 SSTORE DUP7 DUP1 DUP1 PUSH2 0x125B JUMP JUMPDEST SWAP3 SWAP4 PUSH1 0x20 PUSH1 0x1 DUP2 SWAP3 DUP8 DUP7 ADD MLOAD DUP2 SSTORE ADD SWAP6 ADD SWAP4 ADD PUSH2 0x1245 JUMP JUMPDEST PUSH2 0x12C5 SWAP1 DUP5 PUSH1 0x0 MSTORE PUSH1 0x20 PUSH1 0x0 KECCAK256 PUSH1 0x1F DUP6 ADD PUSH1 0x5 SHR DUP2 ADD SWAP2 PUSH1 0x20 DUP7 LT PUSH2 0x9AF JUMPI PUSH1 0x1F ADD PUSH1 0x5 SHR ADD SWAP1 PUSH2 0x34E3 JUMP JUMPDEST DUP7 PUSH2 0xE54 JUMP JUMPDEST SWAP1 PUSH1 0x1F NOT DUP4 AND SWAP2 DUP7 PUSH1 0x0 MSTORE DUP2 PUSH1 0x0 KECCAK256 SWAP3 PUSH1 0x0 JUMPDEST DUP2 DUP2 LT PUSH2 0x131A JUMPI POP SWAP1 DUP5 PUSH1 0x1 SWAP6 SWAP5 SWAP4 SWAP3 LT PUSH2 0x1301 JUMPI JUMPDEST POP POP POP DUP2 SHL ADD DUP4 SSTORE PUSH2 0xE2B JUMP JUMPDEST ADD MLOAD PUSH1 0x0 NOT PUSH1 0xF8 DUP5 PUSH1 0x3 SHL AND SHR NOT AND SWAP1 SSTORE DUP7 DUP1 DUP1 PUSH2 0x12F4 JUMP JUMPDEST SWAP3 SWAP4 PUSH1 0x20 PUSH1 0x1 DUP2 SWAP3 DUP8 DUP7 ADD MLOAD DUP2 SSTORE ADD SWAP6 ADD SWAP4 ADD PUSH2 0x12DE JUMP JUMPDEST PUSH2 0x135E SWAP1 DUP7 PUSH1 0x0 MSTORE PUSH1 0x20 PUSH1 0x0 KECCAK256 PUSH1 0x1F DUP6 ADD PUSH1 0x5 SHR DUP2 ADD SWAP2 PUSH1 0x20 DUP7 LT PUSH2 0x9AF JUMPI PUSH1 0x1F ADD PUSH1 0x5 SHR ADD SWAP1 PUSH2 0x34E3 JUMP JUMPDEST DUP7 PUSH2 0xDF7 JUMP JUMPDEST CALLVALUE PUSH2 0x103 JUMPI PUSH1 0x0 CALLDATASIZE PUSH1 0x3 NOT ADD SLT PUSH2 0x103 JUMPI PUSH2 0x137D PUSH2 0x3923 JUMP JUMPDEST PUSH1 0x0 DUP1 MLOAD PUSH1 0x20 PUSH2 0x42CC DUP4 CODECOPY DUP2 MLOAD SWAP2 MSTORE DUP1 SLOAD PUSH1 0x1 PUSH1 0x1 PUSH1 0xA0 SHL SUB NOT DUP2 AND SWAP1 SWAP2 SSTORE PUSH1 0x0 SWAP1 PUSH1 0x1 PUSH1 0x1 PUSH1 0xA0 SHL SUB AND PUSH32 0x8BE0079C531659141344CD1FD0A4F28419497F9722A3DAAFE3B4186F6B6457E0 DUP3 DUP1 LOG3 STOP JUMPDEST CALLVALUE PUSH2 0x103 JUMPI PUSH1 0x20 CALLDATASIZE PUSH1 0x3 NOT ADD SLT PUSH2 0x103 JUMPI PUSH1 0x4 CALLDATALOAD PUSH1 0x1 PUSH1 0x1 PUSH1 0x40 SHL SUB DUP2 GT PUSH2 0x103 JUMPI PUSH2 0x1406 PUSH1 0x20 PUSH2 0x2EF PUSH2 0x3DF SWAP4 CALLDATASIZE SWAP1 PUSH1 0x4 ADD PUSH2 0x32EC JUMP JUMPDEST DUP2 ADD PUSH1 0x6B DUP2 MSTORE SUB ADD SWAP1 KECCAK256 PUSH2 0x257 PUSH1 0xC0 PUSH2 0x14DB PUSH1 0x40 MLOAD SWAP4 PUSH2 0x1425 DUP6 PUSH2 0x325E JUMP JUMPDEST DUP1 SLOAD PUSH1 0x1 PUSH1 0x1 PUSH1 0xA0 SHL SUB AND DUP6 MSTORE PUSH2 0x14CD PUSH2 0x1441 PUSH1 0x1 DUP4 ADD PUSH2 0x35C2 JUMP JUMPDEST SWAP6 PUSH1 0x20 DUP2 ADD SWAP7 DUP8 MSTORE PUSH2 0x3FB PUSH2 0x1458 PUSH1 0x2 DUP6 ADD PUSH2 0x35C2 JUMP JUMPDEST SWAP2 PUSH1 0x40 DUP2 ADD SWAP3 DUP4 MSTORE PUSH2 0x3ED PUSH2 0x146F PUSH1 0x3 DUP8 ADD PUSH2 0x35C2 JUMP JUMPDEST SWAP4 PUSH1 0x60 DUP4 ADD SWAP5 DUP6 MSTORE PUSH2 0x1483 PUSH1 0x4 DUP9 ADD PUSH2 0x35C2 JUMP JUMPDEST SWAP3 PUSH1 0x80 DUP2 ADD SWAP4 DUP5 MSTORE PUSH2 0x14AA PUSH1 0x6 PUSH2 0x149C PUSH1 0x5 DUP12 ADD PUSH2 0x35C2 JUMP JUMPDEST SWAP10 PUSH1 0xA0 DUP5 ADD SWAP11 DUP12 MSTORE ADD PUSH2 0x35C2 JUMP JUMPDEST SWAP10 DUP11 SWAP2 ADD MSTORE MLOAD SWAP10 MLOAD SWAP6 MLOAD SWAP2 MLOAD SWAP4 MLOAD SWAP6 PUSH1 0x40 MLOAD SWAP12 DUP13 SWAP12 PUSH1 0xC0 DUP14 MSTORE PUSH1 0xC0 DUP14 ADD SWAP1 PUSH2 0x3356 JUMP JUMPDEST SWAP1 DUP6 DUP3 SUB PUSH1 0x80 DUP8 ADD MSTORE PUSH2 0x3356 JUMP JUMPDEST SWAP1 DUP4 DUP3 SUB PUSH1 0xA0 DUP6 ADD MSTORE PUSH2 0x3356 JUMP JUMPDEST CALLVALUE PUSH2 0x103 JUMPI PUSH1 0xA0 CALLDATASIZE PUSH1 0x3 NOT ADD SLT PUSH2 0x103 JUMPI PUSH1 0x4 CALLDATALOAD PUSH1 0x1 PUSH1 0x1 PUSH1 0x40 SHL SUB DUP2 GT PUSH2 0x103 JUMPI PUSH2 0x1519 SWAP1 CALLDATASIZE SWAP1 PUSH1 0x4 ADD PUSH2 0x3405 JUMP JUMPDEST PUSH1 0x24 CALLDATALOAD PUSH1 0x44 CALLDATALOAD PUSH1 0x1 PUSH1 0x1 PUSH1 0x40 SHL SUB DUP2 GT PUSH2 0x103 JUMPI PUSH2 0x153B SWAP1 CALLDATASIZE SWAP1 PUSH1 0x4 ADD PUSH2 0x32EC JUMP JUMPDEST SWAP2 PUSH1 0x64 CALLDATALOAD PUSH1 0x1 PUSH1 0x1 PUSH1 0x40 SHL SUB DUP2 GT PUSH2 0x103 JUMPI PUSH2 0x155B SWAP1 CALLDATASIZE SWAP1 PUSH1 0x4 ADD PUSH2 0x32EC JUMP JUMPDEST SWAP1 PUSH1 0x84 CALLDATALOAD PUSH1 0x1 PUSH1 0x1 PUSH1 0x40 SHL SUB DUP2 GT PUSH2 0x103 JUMPI PUSH2 0x157B SWAP1 CALLDATASIZE SWAP1 PUSH1 0x4 ADD PUSH2 0x32EC JUMP JUMPDEST CALLER PUSH1 0x0 MSTORE PUSH1 0x6C PUSH1 0x20 MSTORE PUSH2 0x15A6 PUSH2 0x1597 PUSH1 0x6 PUSH1 0x40 PUSH1 0x0 KECCAK256 ADD PUSH2 0x35C2 JUMP JUMPDEST PUSH1 0x20 DUP2 MLOAD SWAP2 ADD KECCAK256 PUSH2 0x16A PUSH2 0x368A JUMP JUMPDEST DUP2 MLOAD ISZERO ISZERO DUP1 PUSH2 0x1E1F JUMPI JUMPDEST DUP1 PUSH2 0x1E0F JUMPI JUMPDEST DUP1 PUSH2 0x1DFA JUMPI JUMPDEST PUSH2 0x15C8 SWAP1 PUSH2 0x17A PUSH2 0x352A JUMP JUMPDEST PUSH1 0x0 JUMPDEST DUP3 MLOAD PUSH1 0xFF DUP3 AND SWAP1 DUP2 LT ISZERO PUSH2 0x1645 JUMPI SWAP1 DUP2 PUSH2 0x15F1 PUSH2 0x15EB PUSH2 0x1640 SWAP5 DUP8 PUSH2 0x374F JUMP JUMPDEST MLOAD PUSH2 0x3483 JUMP JUMPDEST SLOAD PUSH2 0x15FB DUP3 PUSH2 0x3719 JUMP JUMPDEST MSTORE PUSH1 0x5 PUSH2 0x160B PUSH2 0x15EB DUP4 DUP9 PUSH2 0x374F JUMP JUMPDEST ADD SLOAD PUSH2 0x1616 DUP3 PUSH2 0x3719 JUMP JUMPDEST MSTORE PUSH2 0x163A PUSH1 0x1 PUSH1 0x1 PUSH1 0xA0 SHL SUB PUSH1 0x7 PUSH2 0x1631 PUSH2 0x15EB DUP6 DUP11 PUSH2 0x374F JUMP JUMPDEST ADD SLOAD AND SWAP2 PUSH2 0x3719 JUMP JUMPDEST MSTORE PUSH2 0x3708 JUMP JUMPDEST PUSH2 0x15CB JUMP JUMPDEST POP POP SWAP3 SWAP2 PUSH2 0x1651 PUSH2 0x3742 JUMP JUMPDEST MLOAD SWAP1 PUSH1 0x40 MLOAD SWAP3 PUSH2 0x1660 DUP5 PUSH2 0x325E JUMP JUMPDEST DUP4 MSTORE PUSH1 0x20 DUP4 ADD SWAP6 DUP5 DUP8 MSTORE PUSH1 0x40 DUP5 ADD SWAP1 DUP2 MSTORE PUSH1 0x60 DUP5 ADD SWAP7 DUP3 DUP9 MSTORE PUSH2 0x16A7 PUSH1 0x20 PUSH1 0x80 DUP8 ADD SWAP5 CALLER DUP7 MSTORE PUSH1 0xA0 DUP9 ADD SWAP7 DUP8 MSTORE PUSH1 0xC0 DUP9 ADD SWAP10 DUP11 MSTORE DUP2 PUSH1 0x40 MLOAD SWAP4 DUP3 DUP6 DUP1 SWAP5 MLOAD SWAP4 DUP5 SWAP3 ADD PUSH2 0x3333 JUMP JUMPDEST DUP2 ADD PUSH1 0x6E DUP2 MSTORE SUB ADD SWAP1 KECCAK256 SWAP5 MLOAD DUP1 MLOAD SWAP1 PUSH1 0x1 PUSH1 0x40 SHL DUP3 GT PUSH2 0x9B9 JUMPI DUP7 SLOAD DUP3 DUP9 SSTORE DUP1 DUP4 LT PUSH2 0x1D7C JUMPI JUMPDEST POP PUSH1 0x0 DUP8 DUP2 MSTORE PUSH1 0x20 DUP1 DUP3 KECCAK256 SWAP4 SWAP3 ADD JUMPDEST DUP3 DUP3 LT PUSH2 0x1C64 JUMPI POP POP POP POP MLOAD PUSH1 0x1 DUP6 ADD SSTORE PUSH1 0x2 DUP5 ADD SWAP1 MLOAD DUP1 MLOAD SWAP1 PUSH1 0x1 PUSH1 0x1 PUSH1 0x40 SHL SUB DUP3 GT PUSH2 0x9B9 JUMPI PUSH2 0x170F DUP4 SLOAD PUSH2 0x34A9 JUMP JUMPDEST PUSH1 0x1F DUP2 GT PUSH2 0x1C32 JUMPI JUMPDEST POP PUSH1 0x20 SWAP1 PUSH1 0x1F DUP4 GT PUSH1 0x1 EQ PUSH2 0x1BCB JUMPI PUSH2 0x1749 SWAP3 SWAP2 PUSH1 0x0 SWAP2 DUP4 PUSH2 0x9CF JUMPI POP POP DUP2 PUSH1 0x1 SHL SWAP2 PUSH1 0x0 NOT SWAP1 PUSH1 0x3 SHL SHR NOT AND OR SWAP1 JUMP JUMPDEST SWAP1 SSTORE JUMPDEST PUSH1 0x3 DUP4 ADD SWAP6 MLOAD SWAP6 DUP7 MLOAD PUSH1 0x1 PUSH1 0x1 PUSH1 0x40 SHL SUB DUP2 GT PUSH2 0x9B9 JUMPI PUSH2 0x176D DUP3 SLOAD PUSH2 0x34A9 JUMP JUMPDEST PUSH1 0x1F DUP2 GT PUSH2 0x1B99 JUMPI JUMPDEST POP PUSH1 0x20 PUSH1 0x1F DUP3 GT PUSH1 0x1 EQ PUSH2 0x1B2F JUMPI SWAP1 DUP1 PUSH2 0x17AB SWAP3 PUSH1 0x6 SWAP9 SWAP10 SWAP11 PUSH1 0x0 SWAP3 PUSH2 0x9CF JUMPI POP POP DUP2 PUSH1 0x1 SHL SWAP2 PUSH1 0x0 NOT SWAP1 PUSH1 0x3 SHL SHR NOT AND OR SWAP1 JUMP JUMPDEST SWAP1 SSTORE JUMPDEST MLOAD PUSH1 0x4 DUP4 ADD DUP1 SLOAD PUSH1 0x1 PUSH1 0x1 PUSH1 0xA0 SHL SUB NOT AND PUSH1 0x1 PUSH1 0x1 PUSH1 0xA0 SHL SUB SWAP3 SWAP1 SWAP3 AND SWAP2 SWAP1 SWAP2 OR SWAP1 SSTORE MLOAD PUSH1 0x5 DUP3 ADD SSTORE SWAP3 MLOAD DUP1 MLOAD SWAP1 SWAP4 SWAP2 SWAP1 SWAP2 ADD SWAP1 PUSH1 0x1 PUSH1 0x1 PUSH1 0x40 SHL SUB DUP2 GT PUSH2 0x9B9 JUMPI PUSH2 0x17FA DUP3 SLOAD PUSH2 0x34A9 JUMP JUMPDEST PUSH1 0x1F DUP2 GT PUSH2 0x1AFD JUMPI JUMPDEST POP PUSH1 0x20 PUSH1 0x1F DUP3 GT PUSH1 0x1 EQ PUSH2 0x1A98 JUMPI DUP2 SWAP1 PUSH2 0x1835 SWAP4 SWAP5 SWAP6 PUSH1 0x0 SWAP3 PUSH2 0x1A8D JUMPI POP POP DUP2 PUSH1 0x1 SHL SWAP2 PUSH1 0x0 NOT SWAP1 PUSH1 0x3 SHL SHR NOT AND OR SWAP1 JUMP JUMPDEST SWAP1 SSTORE JUMPDEST PUSH1 0x1 DUP1 PUSH1 0xA0 SHL SUB PUSH1 0x69 SLOAD AND PUSH1 0x40 MLOAD PUSH1 0x20 DUP2 ADD SWAP1 PUSH4 0x3D06226D PUSH1 0xE1 SHL DUP3 MSTORE PUSH1 0x64 DUP2 ADD PUSH1 0x40 PUSH1 0x24 DUP4 ADD MSTORE PUSH1 0x60 MLOAD DUP1 SWAP2 MSTORE PUSH1 0x84 DUP3 ADD SWAP1 PUSH1 0x80 SWAP1 PUSH1 0x0 JUMPDEST DUP2 DUP2 LT PUSH2 0x1A6E JUMPI POP POP POP PUSH1 0x23 NOT DUP3 DUP3 SUB ADD PUSH1 0x44 DUP4 ADD MSTORE PUSH1 0x20 PUSH1 0x60 MLOAD SWAP2 DUP3 DUP2 MSTORE ADD SWAP1 PUSH1 0x80 SWAP1 PUSH1 0x0 JUMPDEST DUP2 DUP2 LT PUSH2 0x1A58 JUMPI DUP8 PUSH1 0x0 DUP1 DUP10 DUP10 DUP3 DUP11 PUSH2 0x18BA DUP2 DUP13 SUB PUSH1 0x1F NOT DUP2 ADD DUP4 MSTORE DUP3 PUSH2 0x32B0 JUMP JUMPDEST MLOAD SWAP3 GAS CALL POP PUSH2 0x18C7 PUSH2 0x34FA JUMP JUMPDEST SWAP1 DUP2 MLOAD DUP3 ADD SWAP2 PUSH1 0x20 DUP2 DUP2 DUP6 ADD SWAP5 SUB SLT PUSH2 0x103 JUMPI PUSH1 0x20 DUP2 ADD MLOAD SWAP1 PUSH1 0x1 PUSH1 0x1 PUSH1 0x40 SHL SUB DUP3 GT PUSH2 0x103 JUMPI ADD SWAP2 DUP1 PUSH1 0x3F DUP5 ADD SLT ISZERO PUSH2 0x103 JUMPI PUSH1 0x20 DUP4 ADD MLOAD PUSH2 0x1909 DUP2 PUSH2 0x33EE JUMP JUMPDEST SWAP4 PUSH2 0x1917 PUSH1 0x40 MLOAD SWAP6 DUP7 PUSH2 0x32B0 JUMP JUMPDEST DUP2 DUP6 MSTORE PUSH1 0x20 DUP1 DUP1 DUP8 ADD SWAP4 PUSH1 0x5 SHL DUP4 ADD ADD ADD SWAP3 DUP4 GT PUSH2 0x103 JUMPI PUSH1 0x40 ADD SWAP1 JUMPDEST DUP3 DUP3 LT PUSH2 0x1A48 JUMPI POP POP POP PUSH1 0x0 SWAP2 PUSH1 0x0 SWAP3 JUMPDEST DUP2 MLOAD DUP5 LT ISZERO PUSH2 0x1983 JUMPI PUSH2 0x1958 DUP5 DUP4 PUSH2 0x374F JUMP JUMPDEST MLOAD DUP2 ADD DUP1 SWAP2 GT PUSH2 0x196D JUMPI PUSH1 0x1 SWAP1 SWAP4 ADD SWAP3 PUSH2 0x1945 JUMP JUMPDEST PUSH4 0x4E487B71 PUSH1 0xE0 SHL PUSH1 0x0 MSTORE PUSH1 0x11 PUSH1 0x4 MSTORE PUSH1 0x24 PUSH1 0x0 REVERT JUMPDEST DUP3 SWAP2 POP LT ISZERO PUSH2 0x19B5 JUMPI JUMPDEST PUSH2 0x247 SWAP1 PUSH2 0x1999 PUSH2 0x3763 JUMP JUMPDEST SWAP1 PUSH1 0x1 PUSH1 0x1 PUSH1 0xA0 SHL SUB PUSH2 0x19AA PUSH2 0x3742 JUMP JUMPDEST MLOAD AND TIMESTAMP SWAP3 CALLER SWAP1 PUSH2 0x3959 JUMP JUMPDEST PUSH1 0x0 JUMPDEST PUSH1 0x60 MLOAD PUSH1 0xFF DUP3 AND SWAP1 DUP2 LT ISZERO PUSH2 0x1A41 JUMPI PUSH1 0x69 SLOAD PUSH2 0x1A3C SWAP3 SWAP2 PUSH1 0x0 SWAP2 DUP3 SWAP2 PUSH1 0x1 PUSH1 0x1 PUSH1 0xA0 SHL SUB SWAP2 DUP3 AND SWAP2 DUP4 SWAP1 PUSH2 0x19EB DUP4 PUSH2 0x3719 JUMP JUMPDEST MLOAD AND SWAP2 PUSH2 0x1A29 PUSH2 0x1A04 PUSH2 0x19FD DUP4 PUSH2 0x3719 JUMP JUMPDEST MLOAD SWAP3 PUSH2 0x3719 JUMP JUMPDEST MLOAD SWAP2 PUSH2 0x1F5 PUSH1 0x40 MLOAD SWAP4 DUP5 SWAP3 PUSH1 0x20 DUP5 ADD SWAP8 PUSH4 0x2413534F PUSH1 0xE1 SHL DUP10 MSTORE CALLER SWAP1 PUSH1 0x24 DUP7 ADD PUSH2 0x40F3 JUMP JUMPDEST MLOAD SWAP3 GAS CALL POP PUSH2 0x1A36 PUSH2 0x34FA JUMP JUMPDEST POP PUSH2 0x3708 JUMP JUMPDEST PUSH2 0x19B8 JUMP JUMPDEST POP POP PUSH2 0x198D JUMP JUMPDEST DUP2 MLOAD DUP2 MSTORE PUSH1 0x20 SWAP2 DUP3 ADD SWAP2 ADD PUSH2 0x1934 JUMP JUMPDEST DUP3 MLOAD DUP5 MSTORE PUSH1 0x20 SWAP4 DUP5 ADD SWAP4 SWAP1 SWAP3 ADD SWAP2 PUSH1 0x1 ADD PUSH2 0x1898 JUMP JUMPDEST DUP3 MLOAD PUSH1 0x1 PUSH1 0x1 PUSH1 0xA0 SHL SUB AND DUP5 MSTORE PUSH1 0x20 SWAP4 DUP5 ADD SWAP4 SWAP1 SWAP3 ADD SWAP2 PUSH1 0x1 ADD PUSH2 0x1871 JUMP JUMPDEST ADD MLOAD SWAP1 POP DUP6 DUP1 PUSH2 0x720 JUMP JUMPDEST PUSH1 0x1F NOT DUP3 AND SWAP1 DUP4 PUSH1 0x0 MSTORE DUP1 PUSH1 0x0 KECCAK256 SWAP2 PUSH1 0x0 JUMPDEST DUP2 DUP2 LT PUSH2 0x1AE5 JUMPI POP SWAP6 DUP4 PUSH1 0x1 SWAP6 SWAP7 SWAP8 LT PUSH2 0x1ACC JUMPI JUMPDEST POP POP POP DUP2 SHL ADD SWAP1 SSTORE PUSH2 0x1838 JUMP JUMPDEST ADD MLOAD PUSH1 0x0 NOT PUSH1 0xF8 DUP5 PUSH1 0x3 SHL AND SHR NOT AND SWAP1 SSTORE DUP5 DUP1 DUP1 PUSH2 0x1ABF JUMP JUMPDEST SWAP2 SWAP3 PUSH1 0x20 PUSH1 0x1 DUP2 SWAP3 DUP7 DUP12 ADD MLOAD DUP2 SSTORE ADD SWAP5 ADD SWAP3 ADD PUSH2 0x1AAA JUMP JUMPDEST PUSH2 0x1B29 SWAP1 DUP4 PUSH1 0x0 MSTORE PUSH1 0x20 PUSH1 0x0 KECCAK256 PUSH1 0x1F DUP5 ADD PUSH1 0x5 SHR DUP2 ADD SWAP2 PUSH1 0x20 DUP6 LT PUSH2 0x9AF JUMPI PUSH1 0x1F ADD PUSH1 0x5 SHR ADD SWAP1 PUSH2 0x34E3 JUMP JUMPDEST DUP5 PUSH2 0x1803 JUMP JUMPDEST PUSH1 0x1F NOT DUP3 AND SWAP9 DUP4 PUSH1 0x0 MSTORE DUP2 PUSH1 0x0 KECCAK256 SWAP10 PUSH1 0x0 JUMPDEST DUP2 DUP2 LT PUSH2 0x1B81 JUMPI POP SWAP2 PUSH1 0x6 SWAP9 SWAP10 SWAP11 SWAP2 DUP5 PUSH1 0x1 SWAP6 SWAP5 LT PUSH2 0x1B68 JUMPI JUMPDEST POP POP POP DUP2 SHL ADD SWAP1 SSTORE PUSH2 0x17AE JUMP JUMPDEST ADD MLOAD PUSH1 0x0 NOT PUSH1 0xF8 DUP5 PUSH1 0x3 SHL AND SHR NOT AND SWAP1 SSTORE DUP10 DUP1 DUP1 PUSH2 0x1B5B JUMP JUMPDEST DUP4 DUP4 ADD MLOAD DUP13 SSTORE PUSH1 0x1 SWAP1 SWAP12 ADD SWAP11 PUSH1 0x20 SWAP4 DUP5 ADD SWAP4 ADD PUSH2 0x1B41 JUMP JUMPDEST PUSH2 0x1BC5 SWAP1 DUP4 PUSH1 0x0 MSTORE PUSH1 0x20 PUSH1 0x0 KECCAK256 PUSH1 0x1F DUP5 ADD PUSH1 0x5 SHR DUP2 ADD SWAP2 PUSH1 0x20 DUP6 LT PUSH2 0x9AF JUMPI PUSH1 0x1F ADD PUSH1 0x5 SHR ADD SWAP1 PUSH2 0x34E3 JUMP JUMPDEST DUP9 PUSH2 0x1776 JUMP JUMPDEST SWAP1 PUSH1 0x1F NOT DUP4 AND SWAP2 DUP5 PUSH1 0x0 MSTORE DUP2 PUSH1 0x0 KECCAK256 SWAP3 PUSH1 0x0 JUMPDEST DUP2 DUP2 LT PUSH2 0x1C1A JUMPI POP SWAP1 DUP5 PUSH1 0x1 SWAP6 SWAP5 SWAP4 SWAP3 LT PUSH2 0x1C01 JUMPI JUMPDEST POP POP POP DUP2 SHL ADD SWAP1 SSTORE PUSH2 0x174C JUMP JUMPDEST ADD MLOAD PUSH1 0x0 NOT PUSH1 0xF8 DUP5 PUSH1 0x3 SHL AND SHR NOT AND SWAP1 SSTORE DUP10 DUP1 DUP1 PUSH2 0x1BF4 JUMP JUMPDEST SWAP3 SWAP4 PUSH1 0x20 PUSH1 0x1 DUP2 SWAP3 DUP8 DUP7 ADD MLOAD DUP2 SSTORE ADD SWAP6 ADD SWAP4 ADD PUSH2 0x1BDE JUMP JUMPDEST PUSH2 0x1C5E SWAP1 DUP5 PUSH1 0x0 MSTORE PUSH1 0x20 PUSH1 0x0 KECCAK256 PUSH1 0x1F DUP6 ADD PUSH1 0x5 SHR DUP2 ADD SWAP2 PUSH1 0x20 DUP7 LT PUSH2 0x9AF JUMPI PUSH1 0x1F ADD PUSH1 0x5 SHR ADD SWAP1 PUSH2 0x34E3 JUMP JUMPDEST DUP10 PUSH2 0x1718 JUMP JUMPDEST DUP1 MLOAD DUP1 MLOAD SWAP1 PUSH1 0x1 PUSH1 0x1 PUSH1 0x40 SHL SUB DUP3 GT PUSH2 0x9B9 JUMPI PUSH2 0x1C81 DUP7 SLOAD PUSH2 0x34A9 JUMP JUMPDEST PUSH1 0x1F DUP2 GT PUSH2 0x1D4A JUMPI JUMPDEST POP PUSH1 0x20 SWAP1 PUSH1 0x1F DUP4 GT PUSH1 0x1 EQ PUSH2 0x1CDD JUMPI SWAP3 PUSH2 0x1CC3 DUP4 PUSH1 0x1 SWAP6 SWAP5 PUSH1 0x20 SWAP5 DUP8 SWAP7 PUSH1 0x0 SWAP3 PUSH2 0x1CD2 JUMPI POP POP DUP2 PUSH1 0x1 SHL SWAP2 PUSH1 0x0 NOT SWAP1 PUSH1 0x3 SHL SHR NOT AND OR SWAP1 JUMP JUMPDEST DUP8 SSTORE JUMPDEST ADD SWAP5 ADD SWAP2 ADD SWAP1 SWAP3 PUSH2 0x16DD JUMP JUMPDEST ADD MLOAD SWAP1 POP CODESIZE DUP1 PUSH2 0x720 JUMP JUMPDEST SWAP1 PUSH1 0x1F NOT DUP4 AND SWAP2 DUP8 PUSH1 0x0 MSTORE DUP2 PUSH1 0x0 KECCAK256 SWAP3 PUSH1 0x0 JUMPDEST DUP2 DUP2 LT PUSH2 0x1D32 JUMPI POP SWAP4 PUSH1 0x20 SWAP4 PUSH1 0x1 SWAP7 SWAP4 DUP8 SWAP7 SWAP4 DUP4 DUP9 SWAP6 LT PUSH2 0x1D19 JUMPI JUMPDEST POP POP POP DUP2 SHL ADD DUP8 SSTORE PUSH2 0x1CC6 JUMP JUMPDEST ADD MLOAD PUSH1 0x0 NOT PUSH1 0xF8 DUP5 PUSH1 0x3 SHL AND SHR NOT AND SWAP1 SSTORE CODESIZE DUP1 DUP1 PUSH2 0x1D0C JUMP JUMPDEST SWAP3 SWAP4 PUSH1 0x20 PUSH1 0x1 DUP2 SWAP3 DUP8 DUP7 ADD MLOAD DUP2 SSTORE ADD SWAP6 ADD SWAP4 ADD PUSH2 0x1CF0 JUMP JUMPDEST PUSH2 0x1D76 SWAP1 DUP8 PUSH1 0x0 MSTORE PUSH1 0x20 PUSH1 0x0 KECCAK256 PUSH1 0x1F DUP6 ADD PUSH1 0x5 SHR DUP2 ADD SWAP2 PUSH1 0x20 DUP7 LT PUSH2 0x9AF JUMPI PUSH1 0x1F ADD PUSH1 0x5 SHR ADD SWAP1 PUSH2 0x34E3 JUMP JUMPDEST DUP15 PUSH2 0x1C8A JUMP JUMPDEST DUP8 PUSH1 0x0 MSTORE DUP3 PUSH1 0x20 PUSH1 0x0 KECCAK256 SWAP2 DUP3 ADD SWAP2 ADD JUMPDEST DUP2 DUP2 LT PUSH2 0x1D99 JUMPI POP PUSH2 0x16CE JUMP JUMPDEST DUP1 PUSH2 0x1DA6 PUSH1 0x1 SWAP3 SLOAD PUSH2 0x34A9 JUMP JUMPDEST DUP1 PUSH2 0x1DB3 JUMPI JUMPDEST POP ADD PUSH2 0x1D8C JUMP JUMPDEST PUSH1 0x1F DUP2 GT DUP4 EQ PUSH2 0x1DC9 JUMPI POP PUSH1 0x0 DUP2 SSTORE JUMPDEST DUP14 PUSH2 0x1DAC JUMP JUMPDEST PUSH2 0x1DE7 SWAP1 DUP3 PUSH1 0x0 MSTORE DUP4 PUSH1 0x1F PUSH1 0x20 PUSH1 0x0 KECCAK256 SWAP3 ADD PUSH1 0x5 SHR DUP3 ADD SWAP2 ADD PUSH2 0x34E3 JUMP JUMPDEST DUP1 PUSH1 0x0 MSTORE PUSH1 0x0 PUSH1 0x20 DUP2 KECCAK256 DUP2 DUP4 SSTORE SSTORE PUSH2 0x1DC3 JUMP JUMPDEST POP PUSH2 0x15C8 PUSH2 0x1E07 DUP5 PUSH2 0x3D2D JUMP JUMPDEST ISZERO SWAP1 POP PUSH2 0x15BC JUMP JUMPDEST POP PUSH2 0x1E19 DUP6 PUSH2 0x3D2D JUMP JUMPDEST ISZERO PUSH2 0x15B6 JUMP JUMPDEST POP DUP4 ISZERO ISZERO PUSH2 0x15B0 JUMP JUMPDEST CALLVALUE PUSH2 0x103 JUMPI PUSH1 0x20 CALLDATASIZE PUSH1 0x3 NOT ADD SLT PUSH2 0x103 JUMPI PUSH1 0x4 CALLDATALOAD PUSH1 0x1 PUSH1 0x1 PUSH1 0x40 SHL SUB DUP2 GT PUSH2 0x103 JUMPI PUSH2 0x1E58 SWAP1 CALLDATASIZE SWAP1 PUSH1 0x4 ADD PUSH2 0x32EC JUMP JUMPDEST CALLER PUSH1 0x0 MSTORE PUSH1 0x6C PUSH1 0x20 MSTORE PUSH2 0x1E71 PUSH1 0x6 PUSH1 0x40 PUSH1 0x0 KECCAK256 ADD PUSH2 0x35C2 JUMP JUMPDEST DUP1 MLOAD PUSH1 0x20 DUP3 ADD SWAP1 DUP2 KECCAK256 PUSH2 0x1E82 PUSH2 0x3666 JUMP JUMPDEST PUSH1 0x20 DUP2 MLOAD SWAP2 ADD KECCAK256 EQ ISZERO SWAP2 DUP3 PUSH2 0x2123 JUMPI JUMPDEST DUP3 PUSH2 0x20ED JUMPI JUMPDEST DUP3 PUSH2 0x20D0 JUMPI JUMPDEST POP POP PUSH2 0x1EA8 PUSH2 0x36D7 JUMP JUMPDEST PUSH2 0x1EB1 SWAP2 PUSH2 0x3565 JUMP JUMPDEST PUSH2 0x1EBA DUP2 PUSH2 0x3DF4 JUMP JUMPDEST SWAP1 PUSH1 0x20 DUP3 ADD MLOAD PUSH1 0x40 DUP4 ADD MLOAD SWAP3 PUSH1 0x60 ADD MLOAD SWAP1 PUSH2 0x1ED4 DUP4 PUSH2 0x3E7C JUMP JUMPDEST SWAP1 PUSH1 0xC0 DUP3 ADD MLOAD SWAP2 PUSH1 0x20 DUP2 ADD MLOAD SWAP1 PUSH1 0x40 ADD MLOAD SWAP3 PUSH2 0x1EEF DUP2 PUSH2 0x3F77 JUMP JUMPDEST PUSH1 0x40 ADD MLOAD SWAP3 PUSH2 0x1EFD SWAP1 PUSH2 0x4016 JUMP JUMPDEST PUSH1 0x60 DUP2 ADD MLOAD PUSH1 0x80 DUP3 ADD MLOAD PUSH1 0xE0 SWAP1 SWAP3 ADD MLOAD PUSH1 0x1 PUSH1 0x1 PUSH1 0xA0 SHL SUB AND SWAP6 SWAP2 SWAP5 SWAP1 SWAP4 SWAP1 SWAP2 PUSH2 0x1F25 PUSH2 0x3F40 JUMP JUMPDEST POP PUSH2 0x1F2F DUP8 PUSH2 0x4258 JUMP JUMPDEST ISZERO SWAP7 PUSH1 0x60 SWAP8 PUSH1 0x40 MLOAD PUSH2 0x1F41 DUP11 DUP3 PUSH2 0x32B0 JUMP JUMPDEST PUSH1 0x22 DUP2 MSTORE PUSH32 0x4163636F756E74204E756D6265722073686F756C64206E6F7420626520656D70 PUSH1 0x20 DUP3 ADD MSTORE PUSH2 0x7479 PUSH1 0xF0 SHL PUSH1 0x40 DUP3 ADD MSTORE PUSH2 0x1F7F SWAP2 PUSH2 0x3565 JUMP JUMPDEST PUSH1 0x0 MSTORE PUSH1 0x6C PUSH1 0x20 MSTORE PUSH1 0x40 PUSH1 0x0 KECCAK256 SWAP7 PUSH1 0x40 MLOAD PUSH2 0x1F99 DUP2 PUSH2 0x325E JUMP JUMPDEST DUP9 SLOAD PUSH1 0x1 PUSH1 0x1 PUSH1 0xA0 SHL SUB AND DUP2 MSTORE PUSH2 0x1FB2 PUSH1 0x1 DUP11 ADD PUSH2 0x35C2 JUMP JUMPDEST PUSH1 0x20 DUP3 ADD MSTORE PUSH2 0x1FC3 PUSH1 0x2 DUP11 ADD PUSH2 0x35C2 JUMP JUMPDEST PUSH1 0x40 DUP3 ADD SWAP1 DUP2 MSTORE SWAP1 PUSH2 0x1FD7 PUSH1 0x3 DUP12 ADD PUSH2 0x35C2 JUMP JUMPDEST DUP2 DUP5 ADD MSTORE PUSH2 0x1FE7 PUSH1 0x4 DUP12 ADD PUSH2 0x35C2 JUMP JUMPDEST PUSH1 0x80 DUP3 ADD MSTORE PUSH2 0x1FF8 PUSH1 0x5 DUP12 ADD PUSH2 0x35C2 JUMP JUMPDEST SWAP10 PUSH1 0xA0 DUP3 ADD SWAP11 DUP12 MSTORE PUSH1 0x6 ADD PUSH2 0x200C SWAP1 PUSH2 0x35C2 JUMP JUMPDEST SWAP1 PUSH1 0xC0 ADD MSTORE MLOAD SWAP8 MLOAD SWAP9 PUSH1 0x40 MLOAD SWAP12 DUP13 SWAP12 PUSH2 0x160 DUP14 MSTORE PUSH2 0x160 DUP14 ADD PUSH2 0x202E SWAP2 PUSH2 0x3356 JUMP JUMPDEST DUP13 DUP2 SUB PUSH1 0x20 DUP15 ADD MSTORE PUSH2 0x203F SWAP2 PUSH2 0x3395 JUMP JUMPDEST DUP12 DUP2 SUB PUSH1 0x40 DUP14 ADD MSTORE PUSH2 0x2050 SWAP2 PUSH2 0x3395 JUMP JUMPDEST SWAP1 DUP11 DUP3 SUB SWAP1 DUP12 ADD MSTORE PUSH2 0x2061 SWAP2 PUSH2 0x3356 JUMP JUMPDEST SWAP1 PUSH1 0x80 DUP10 ADD MSTORE DUP8 DUP2 SUB PUSH1 0xA0 DUP10 ADD MSTORE PUSH2 0x2078 SWAP2 PUSH2 0x3356 JUMP JUMPDEST DUP7 DUP2 SUB PUSH1 0xC0 DUP9 ADD MSTORE PUSH2 0x2089 SWAP2 PUSH2 0x3356 JUMP JUMPDEST DUP6 DUP2 SUB PUSH1 0xE0 DUP8 ADD MSTORE PUSH2 0x209A SWAP2 PUSH2 0x3356 JUMP JUMPDEST DUP5 DUP2 SUB PUSH2 0x100 DUP7 ADD MSTORE PUSH2 0x20AC SWAP2 PUSH2 0x3356 JUMP JUMPDEST DUP4 DUP2 SUB PUSH2 0x120 DUP6 ADD MSTORE PUSH2 0x20BE SWAP2 PUSH2 0x3356 JUMP JUMPDEST DUP3 DUP2 SUB PUSH2 0x140 DUP5 ADD MSTORE PUSH2 0x257 SWAP2 PUSH2 0x3356 JUMP JUMPDEST MLOAD SWAP1 KECCAK256 SWAP1 POP PUSH2 0x20DD PUSH2 0x36B1 JUMP JUMPDEST PUSH1 0x20 DUP2 MLOAD SWAP2 ADD KECCAK256 EQ ISZERO DUP3 DUP1 PUSH2 0x1E9E JUMP JUMPDEST DUP1 SWAP3 POP MLOAD DUP2 KECCAK256 PUSH1 0xB PUSH1 0x20 PUSH1 0x40 MLOAD PUSH2 0x2105 PUSH1 0x40 DUP3 PUSH2 0x32B0 JUMP JUMPDEST DUP3 DUP2 MSTORE ADD PUSH11 0x2A3930B739B837B93A32B9 PUSH1 0xA9 SHL DUP2 MSTORE KECCAK256 EQ ISZERO SWAP2 PUSH2 0x1E98 JUMP JUMPDEST DUP1 SWAP3 POP MLOAD DUP2 KECCAK256 PUSH2 0x2131 PUSH2 0x368A JUMP JUMPDEST PUSH1 0x20 DUP2 MLOAD SWAP2 ADD KECCAK256 EQ ISZERO SWAP2 PUSH2 0x1E92 JUMP JUMPDEST CALLVALUE PUSH2 0x103 JUMPI PUSH1 0x20 CALLDATASIZE PUSH1 0x3 NOT ADD SLT PUSH2 0x103 JUMPI PUSH1 0x4 CALLDATALOAD PUSH1 0x1 PUSH1 0x1 PUSH1 0xA0 SHL SUB DUP2 AND SWAP1 DUP2 SWAP1 SUB PUSH2 0x103 JUMPI PUSH1 0x1 DUP1 PUSH1 0xA0 SHL SUB NOT PUSH1 0x69 SLOAD AND OR PUSH1 0x69 SSTORE PUSH2 0x2190 PUSH1 0xFF PUSH1 0x0 SLOAD PUSH1 0x8 SHR AND PUSH2 0x218B DUP2 PUSH2 0x3D3C JUMP JUMPDEST PUSH2 0x3D3C JUMP JUMPDEST PUSH2 0x101 CALLER PUSH2 0x38AD JUMP JUMPDEST CALLVALUE PUSH2 0x103 JUMPI PUSH1 0xC0 CALLDATASIZE PUSH1 0x3 NOT ADD SLT PUSH2 0x103 JUMPI PUSH1 0x4 CALLDATALOAD PUSH1 0x1 PUSH1 0x1 PUSH1 0x40 SHL SUB DUP2 GT PUSH2 0x103 JUMPI PUSH2 0x21C9 SWAP1 CALLDATASIZE SWAP1 PUSH1 0x4 ADD PUSH2 0x32EC JUMP JUMPDEST PUSH1 0x24 CALLDATALOAD PUSH1 0x1 PUSH1 0x1 PUSH1 0x40 SHL SUB DUP2 GT PUSH2 0x103 JUMPI PUSH2 0x21E8 SWAP1 CALLDATASIZE SWAP1 PUSH1 0x4 ADD PUSH2 0x32EC JUMP JUMPDEST PUSH1 0x44 CALLDATALOAD PUSH1 0x1 PUSH1 0x1 PUSH1 0x40 SHL SUB DUP2 GT PUSH2 0x103 JUMPI PUSH2 0x2207 SWAP1 CALLDATASIZE SWAP1 PUSH1 0x4 ADD PUSH2 0x32EC JUMP JUMPDEST SWAP2 PUSH1 0x64 CALLDATALOAD PUSH1 0x1 PUSH1 0x1 PUSH1 0x40 SHL SUB DUP2 GT PUSH2 0x103 JUMPI PUSH2 0x2227 SWAP1 CALLDATASIZE SWAP1 PUSH1 0x4 ADD PUSH2 0x32EC JUMP JUMPDEST PUSH1 0x84 CALLDATALOAD PUSH1 0x1 PUSH1 0x1 PUSH1 0x40 SHL SUB DUP2 GT PUSH2 0x103 JUMPI PUSH2 0x2246 SWAP1 CALLDATASIZE SWAP1 PUSH1 0x4 ADD PUSH2 0x32EC JUMP JUMPDEST SWAP4 PUSH1 0xA4 CALLDATALOAD PUSH1 0x1 PUSH1 0x1 PUSH1 0x40 SHL SUB DUP2 GT PUSH2 0x103 JUMPI PUSH2 0x2266 SWAP1 CALLDATASIZE SWAP1 PUSH1 0x4 ADD PUSH2 0x32EC JUMP JUMPDEST SWAP4 PUSH2 0x2270 DUP5 PUSH2 0x3D2D JUMP JUMPDEST ISZERO DUP1 PUSH2 0x2F9E JUMPI JUMPDEST DUP1 PUSH2 0x2F8E JUMPI JUMPDEST DUP1 PUSH2 0x2F7E JUMPI JUMPDEST DUP1 PUSH2 0x2F6E JUMPI JUMPDEST DUP1 PUSH2 0x2F59 JUMPI JUMPDEST PUSH2 0x229B SWAP1 PUSH2 0x17A PUSH2 0x352A JUMP JUMPDEST PUSH1 0x40 MLOAD PUSH2 0x22A7 DUP2 PUSH2 0x325E JUMP JUMPDEST CALLER DUP1 DUP3 MSTORE PUSH1 0x20 DUP1 DUP4 ADD DUP8 DUP2 MSTORE PUSH1 0x40 DUP1 DUP6 ADD DUP7 DUP2 MSTORE PUSH1 0x60 DUP7 ADD DUP9 DUP2 MSTORE PUSH1 0x80 DUP8 ADD DUP11 DUP2 MSTORE PUSH1 0xA0 DUP9 ADD DUP15 DUP2 MSTORE PUSH1 0xC0 DUP10 ADD DUP15 DUP2 MSTORE PUSH1 0x0 SWAP9 DUP10 MSTORE PUSH1 0x6C SWAP1 SWAP8 MSTORE SWAP4 SWAP1 SWAP7 KECCAK256 SWAP7 MLOAD DUP8 SLOAD PUSH1 0x1 PUSH1 0x1 PUSH1 0xA0 SHL SUB NOT AND PUSH1 0x1 PUSH1 0x1 PUSH1 0xA0 SHL SUB SWAP2 SWAP1 SWAP2 AND OR DUP8 SSTORE SWAP3 MLOAD DUP1 MLOAD SWAP5 SWAP7 SWAP6 SWAP3 SWAP5 SWAP3 SWAP4 SWAP3 PUSH1 0x1 DUP8 ADD SWAP2 PUSH1 0x1 PUSH1 0x1 PUSH1 0x40 SHL SUB DUP3 GT PUSH2 0x9B9 JUMPI PUSH2 0x232B DUP4 SLOAD PUSH2 0x34A9 JUMP JUMPDEST PUSH1 0x1F DUP2 GT PUSH2 0x2F27 JUMPI JUMPDEST POP PUSH1 0x20 SWAP1 PUSH1 0x1F DUP4 GT PUSH1 0x1 EQ PUSH2 0x2EC0 JUMPI PUSH2 0x2365 SWAP3 SWAP2 PUSH1 0x0 SWAP2 DUP4 PUSH2 0x1CD2 JUMPI POP POP DUP2 PUSH1 0x1 SHL SWAP2 PUSH1 0x0 NOT SWAP1 PUSH1 0x3 SHL SHR NOT AND OR SWAP1 JUMP JUMPDEST SWAP1 SSTORE JUMPDEST MLOAD DUP1 MLOAD PUSH1 0x2 DUP7 ADD SWAP2 PUSH1 0x1 PUSH1 0x1 PUSH1 0x40 SHL SUB DUP3 GT PUSH2 0x9B9 JUMPI PUSH2 0x2388 DUP4 SLOAD PUSH2 0x34A9 JUMP JUMPDEST PUSH1 0x1F DUP2 GT PUSH2 0x2E8E JUMPI JUMPDEST POP PUSH1 0x20 SWAP1 PUSH1 0x1F DUP4 GT PUSH1 0x1 EQ PUSH2 0x2E27 JUMPI PUSH2 0x23C2 SWAP3 SWAP2 PUSH1 0x0 SWAP2 DUP4 PUSH2 0x2E1C JUMPI POP POP DUP2 PUSH1 0x1 SHL SWAP2 PUSH1 0x0 NOT SWAP1 PUSH1 0x3 SHL SHR NOT AND OR SWAP1 JUMP JUMPDEST SWAP1 SSTORE JUMPDEST MLOAD DUP1 MLOAD PUSH1 0x3 DUP6 ADD SWAP2 PUSH1 0x1 PUSH1 0x1 PUSH1 0x40 SHL SUB DUP3 GT PUSH2 0x9B9 JUMPI PUSH2 0x23E5 DUP4 SLOAD PUSH2 0x34A9 JUMP JUMPDEST PUSH1 0x1F DUP2 GT PUSH2 0x2DEA JUMPI JUMPDEST POP PUSH1 0x20 SWAP1 PUSH1 0x1F DUP4 GT PUSH1 0x1 EQ PUSH2 0x2D83 JUMPI PUSH2 0x241F SWAP3 SWAP2 PUSH1 0x0 SWAP2 DUP4 PUSH2 0x2D78 JUMPI POP POP DUP2 PUSH1 0x1 SHL SWAP2 PUSH1 0x0 NOT SWAP1 PUSH1 0x3 SHL SHR NOT AND OR SWAP1 JUMP JUMPDEST SWAP1 SSTORE JUMPDEST MLOAD DUP1 MLOAD PUSH1 0x4 DUP5 ADD SWAP2 PUSH1 0x1 PUSH1 0x1 PUSH1 0x40 SHL SUB DUP3 GT PUSH2 0x9B9 JUMPI PUSH2 0x2442 DUP4 SLOAD PUSH2 0x34A9 JUMP JUMPDEST PUSH1 0x1F DUP2 GT PUSH2 0x2D46 JUMPI JUMPDEST POP PUSH1 0x20 SWAP1 PUSH1 0x1F DUP4 GT PUSH1 0x1 EQ PUSH2 0x2CDF JUMPI PUSH2 0x247C SWAP3 SWAP2 PUSH1 0x0 SWAP2 DUP4 PUSH2 0xBB0 JUMPI POP POP DUP2 PUSH1 0x1 SHL SWAP2 PUSH1 0x0 NOT SWAP1 PUSH1 0x3 SHL SHR NOT AND OR SWAP1 JUMP JUMPDEST SWAP1 SSTORE JUMPDEST MLOAD DUP1 MLOAD PUSH1 0x5 DUP4 ADD SWAP2 PUSH1 0x1 PUSH1 0x1 PUSH1 0x40 SHL SUB DUP3 GT PUSH2 0x9B9 JUMPI PUSH2 0x249F DUP4 SLOAD PUSH2 0x34A9 JUMP JUMPDEST PUSH1 0x1F DUP2 GT PUSH2 0x2CAD JUMPI JUMPDEST POP PUSH1 0x20 SWAP1 PUSH1 0x1F DUP4 GT PUSH1 0x1 EQ PUSH2 0x2C42 JUMPI SWAP2 DUP1 PUSH2 0x24DE SWAP3 PUSH1 0x6 SWAP7 SWAP6 SWAP5 PUSH1 0x0 SWAP3 PUSH2 0xBB0 JUMPI POP POP DUP2 PUSH1 0x1 SHL SWAP2 PUSH1 0x0 NOT SWAP1 PUSH1 0x3 SHL SHR NOT AND OR SWAP1 JUMP JUMPDEST SWAP1 SSTORE JUMPDEST ADD SWAP1 MLOAD DUP1 MLOAD SWAP1 PUSH1 0x1 PUSH1 0x1 PUSH1 0x40 SHL SUB DUP3 GT PUSH2 0x9B9 JUMPI PUSH2 0x24FF DUP4 SLOAD PUSH2 0x34A9 JUMP JUMPDEST PUSH1 0x1F DUP2 GT PUSH2 0x2C10 JUMPI JUMPDEST POP PUSH1 0x20 SWAP1 PUSH1 0x1F DUP4 GT PUSH1 0x1 EQ PUSH2 0x2BA9 JUMPI PUSH2 0x2539 SWAP3 SWAP2 PUSH1 0x0 SWAP2 DUP4 PUSH2 0x9CF JUMPI POP POP DUP2 PUSH1 0x1 SHL SWAP2 PUSH1 0x0 NOT SWAP1 PUSH1 0x3 SHL SHR NOT AND OR SWAP1 JUMP JUMPDEST SWAP1 SSTORE JUMPDEST PUSH1 0x40 MLOAD SWAP4 PUSH2 0x2549 DUP6 PUSH2 0x325E JUMP JUMPDEST CALLER DUP6 MSTORE PUSH1 0x20 DUP6 ADD SWAP1 DUP2 MSTORE PUSH1 0x40 DUP6 ADD SWAP2 DUP3 MSTORE PUSH1 0x60 DUP6 ADD SWAP3 DUP4 MSTORE PUSH1 0x80 DUP6 ADD SWAP4 DUP5 MSTORE PUSH2 0x258F PUSH1 0x20 PUSH1 0xA0 DUP8 ADD SWAP9 DUP1 DUP11 MSTORE PUSH1 0xC0 DUP9 ADD SWAP9 DUP10 MSTORE DUP2 PUSH1 0x40 MLOAD SWAP4 DUP3 DUP6 DUP1 SWAP5 MLOAD SWAP4 DUP5 SWAP3 ADD PUSH2 0x3333 JUMP JUMPDEST PUSH1 0x6B SWAP1 DUP3 ADD SWAP1 DUP2 MSTORE SUB ADD SWAP1 KECCAK256 SWAP5 MLOAD DUP6 SLOAD PUSH1 0x1 PUSH1 0x1 PUSH1 0xA0 SHL SUB NOT AND PUSH1 0x1 PUSH1 0x1 PUSH1 0xA0 SHL SUB SWAP2 SWAP1 SWAP2 AND OR DUP6 SSTORE MLOAD DUP1 MLOAD PUSH1 0x1 DUP7 ADD SWAP2 PUSH1 0x1 PUSH1 0x1 PUSH1 0x40 SHL SUB DUP3 GT PUSH2 0x9B9 JUMPI PUSH2 0x25D8 DUP4 SLOAD PUSH2 0x34A9 JUMP JUMPDEST PUSH1 0x1F DUP2 GT PUSH2 0x2B77 JUMPI JUMPDEST POP PUSH1 0x20 SWAP1 PUSH1 0x1F DUP4 GT PUSH1 0x1 EQ PUSH2 0x2B10 JUMPI PUSH2 0x2612 SWAP3 SWAP2 PUSH1 0x0 SWAP2 DUP4 PUSH2 0x9CF JUMPI POP POP DUP2 PUSH1 0x1 SHL SWAP2 PUSH1 0x0 NOT SWAP1 PUSH1 0x3 SHL SHR NOT AND OR SWAP1 JUMP JUMPDEST SWAP1 SSTORE JUMPDEST MLOAD DUP1 MLOAD PUSH1 0x2 DUP6 ADD SWAP2 PUSH1 0x1 PUSH1 0x1 PUSH1 0x40 SHL SUB DUP3 GT PUSH2 0x9B9 JUMPI PUSH2 0x2635 DUP4 SLOAD PUSH2 0x34A9 JUMP JUMPDEST PUSH1 0x1F DUP2 GT PUSH2 0x2ADE JUMPI JUMPDEST POP PUSH1 0x20 SWAP1 PUSH1 0x1F DUP4 GT PUSH1 0x1 EQ PUSH2 0x2A77 JUMPI PUSH2 0x266F SWAP3 SWAP2 PUSH1 0x0 SWAP2 DUP4 PUSH2 0x2A6C JUMPI POP POP DUP2 PUSH1 0x1 SHL SWAP2 PUSH1 0x0 NOT SWAP1 PUSH1 0x3 SHL SHR NOT AND OR SWAP1 JUMP JUMPDEST SWAP1 SSTORE JUMPDEST MLOAD DUP1 MLOAD PUSH1 0x3 DUP5 ADD SWAP2 PUSH1 0x1 PUSH1 0x1 PUSH1 0x40 SHL SUB DUP3 GT PUSH2 0x9B9 JUMPI PUSH2 0x2692 DUP4 SLOAD PUSH2 0x34A9 JUMP JUMPDEST PUSH1 0x1F DUP2 GT PUSH2 0x2A3A JUMPI JUMPDEST POP PUSH1 0x20 SWAP1 PUSH1 0x1F DUP4 GT PUSH1 0x1 EQ PUSH2 0x29D3 JUMPI PUSH2 0x26CC SWAP3 SWAP2 PUSH1 0x0 SWAP2 DUP4 PUSH2 0x29C8 JUMPI POP POP DUP2 PUSH1 0x1 SHL SWAP2 PUSH1 0x0 NOT SWAP1 PUSH1 0x3 SHL SHR NOT AND OR SWAP1 JUMP JUMPDEST SWAP1 SSTORE JUMPDEST MLOAD DUP1 MLOAD PUSH1 0x4 DUP4 ADD SWAP2 PUSH1 0x1 PUSH1 0x1 PUSH1 0x40 SHL SUB DUP3 GT PUSH2 0x9B9 JUMPI PUSH2 0x26EF DUP4 SLOAD PUSH2 0x34A9 JUMP JUMPDEST PUSH1 0x1F DUP2 GT PUSH2 0x2996 JUMPI JUMPDEST POP PUSH1 0x20 SWAP1 PUSH1 0x1F DUP4 GT PUSH1 0x1 EQ PUSH2 0x292F JUMPI PUSH2 0x2729 SWAP3 SWAP2 PUSH1 0x0 SWAP2 DUP4 PUSH2 0x1227 JUMPI POP POP DUP2 PUSH1 0x1 SHL SWAP2 PUSH1 0x0 NOT SWAP1 PUSH1 0x3 SHL SHR NOT AND OR SWAP1 JUMP JUMPDEST SWAP1 SSTORE JUMPDEST PUSH1 0x5 DUP2 ADD SWAP3 MLOAD SWAP3 DUP4 MLOAD PUSH1 0x1 PUSH1 0x1 PUSH1 0x40 SHL SUB DUP2 GT PUSH2 0x9B9 JUMPI PUSH2 0x274D DUP3 SLOAD PUSH2 0x34A9 JUMP JUMPDEST PUSH1 0x1F DUP2 GT PUSH2 0x28FD JUMPI JUMPDEST POP PUSH1 0x20 PUSH1 0x1F DUP3 GT PUSH1 0x1 EQ PUSH2 0x2894 JUMPI SWAP1 DUP1 PUSH2 0x278A SWAP3 PUSH1 0x6 SWAP7 SWAP8 PUSH1 0x0 SWAP3 PUSH2 0x1227 JUMPI POP POP DUP2 PUSH1 0x1 SHL SWAP2 PUSH1 0x0 NOT SWAP1 PUSH1 0x3 SHL SHR NOT AND OR SWAP1 JUMP JUMPDEST SWAP1 SSTORE JUMPDEST ADD SWAP1 MLOAD SWAP1 DUP2 MLOAD PUSH1 0x1 PUSH1 0x1 PUSH1 0x40 SHL SUB DUP2 GT PUSH2 0x9B9 JUMPI PUSH2 0x27AB DUP3 SLOAD PUSH2 0x34A9 JUMP JUMPDEST PUSH1 0x1F DUP2 GT PUSH2 0x2862 JUMPI JUMPDEST POP PUSH1 0x20 SWAP3 PUSH1 0x1F DUP3 GT PUSH1 0x1 EQ PUSH2 0x27FF JUMPI PUSH2 0x27E6 SWAP3 SWAP4 DUP3 SWAP2 PUSH1 0x0 SWAP3 PUSH2 0x27F4 JUMPI POP POP DUP2 PUSH1 0x1 SHL SWAP2 PUSH1 0x0 NOT SWAP1 PUSH1 0x3 SHL SHR NOT AND OR SWAP1 JUMP JUMPDEST SWAP1 SSTORE JUMPDEST PUSH2 0x247 PUSH2 0xF06 PUSH2 0x3595 JUMP JUMPDEST ADD MLOAD SWAP1 POP DUP5 DUP1 PUSH2 0x720 JUMP JUMPDEST PUSH1 0x1F NOT DUP3 AND SWAP4 DUP4 PUSH1 0x0 MSTORE DUP1 PUSH1 0x0 KECCAK256 SWAP2 PUSH1 0x0 JUMPDEST DUP7 DUP2 LT PUSH2 0x284A JUMPI POP DUP4 PUSH1 0x1 SWAP6 SWAP7 LT PUSH2 0x2831 JUMPI JUMPDEST POP POP POP DUP2 SHL ADD SWAP1 SSTORE PUSH2 0x27E9 JUMP JUMPDEST ADD MLOAD PUSH1 0x0 NOT PUSH1 0xF8 DUP5 PUSH1 0x3 SHL AND SHR NOT AND SWAP1 SSTORE DUP4 DUP1 DUP1 PUSH2 0x2824 JUMP JUMPDEST SWAP2 SWAP3 PUSH1 0x20 PUSH1 0x1 DUP2 SWAP3 DUP7 DUP6 ADD MLOAD DUP2 SSTORE ADD SWAP5 ADD SWAP3 ADD PUSH2 0x2811 JUMP JUMPDEST PUSH2 0x288E SWAP1 DUP4 PUSH1 0x0 MSTORE PUSH1 0x20 PUSH1 0x0 KECCAK256 PUSH1 0x1F DUP5 ADD PUSH1 0x5 SHR DUP2 ADD SWAP2 PUSH1 0x20 DUP6 LT PUSH2 0x9AF JUMPI PUSH1 0x1F ADD PUSH1 0x5 SHR ADD SWAP1 PUSH2 0x34E3 JUMP JUMPDEST DUP4 PUSH2 0x27B4 JUMP JUMPDEST PUSH1 0x1F NOT DUP3 AND SWAP6 DUP4 PUSH1 0x0 MSTORE DUP2 PUSH1 0x0 KECCAK256 SWAP7 PUSH1 0x0 JUMPDEST DUP2 DUP2 LT PUSH2 0x28E5 JUMPI POP SWAP2 PUSH1 0x6 SWAP7 SWAP8 SWAP2 DUP5 PUSH1 0x1 SWAP6 SWAP5 LT PUSH2 0x28CC JUMPI JUMPDEST POP POP POP DUP2 SHL ADD SWAP1 SSTORE PUSH2 0x278D JUMP JUMPDEST ADD MLOAD PUSH1 0x0 NOT PUSH1 0xF8 DUP5 PUSH1 0x3 SHL AND SHR NOT AND SWAP1 SSTORE DUP7 DUP1 DUP1 PUSH2 0x28BF JUMP JUMPDEST DUP4 DUP4 ADD MLOAD DUP10 SSTORE PUSH1 0x1 SWAP1 SWAP9 ADD SWAP8 PUSH1 0x20 SWAP4 DUP5 ADD SWAP4 ADD PUSH2 0x28A6 JUMP JUMPDEST PUSH2 0x2929 SWAP1 DUP4 PUSH1 0x0 MSTORE PUSH1 0x20 PUSH1 0x0 KECCAK256 PUSH1 0x1F DUP5 ADD PUSH1 0x5 SHR DUP2 ADD SWAP2 PUSH1 0x20 DUP6 LT PUSH2 0x9AF JUMPI PUSH1 0x1F ADD PUSH1 0x5 SHR ADD SWAP1 PUSH2 0x34E3 JUMP JUMPDEST DUP6 PUSH2 0x2756 JUMP JUMPDEST SWAP1 PUSH1 0x1F NOT DUP4 AND SWAP2 DUP5 PUSH1 0x0 MSTORE DUP2 PUSH1 0x0 KECCAK256 SWAP3 PUSH1 0x0 JUMPDEST DUP2 DUP2 LT PUSH2 0x297E JUMPI POP SWAP1 DUP5 PUSH1 0x1 SWAP6 SWAP5 SWAP4 SWAP3 LT PUSH2 0x2965 JUMPI JUMPDEST POP POP POP DUP2 SHL ADD SWAP1 SSTORE PUSH2 0x272C JUMP JUMPDEST ADD MLOAD PUSH1 0x0 NOT PUSH1 0xF8 DUP5 PUSH1 0x3 SHL AND SHR NOT AND SWAP1 SSTORE DUP7 DUP1 DUP1 PUSH2 0x2958 JUMP JUMPDEST SWAP3 SWAP4 PUSH1 0x20 PUSH1 0x1 DUP2 SWAP3 DUP8 DUP7 ADD MLOAD DUP2 SSTORE ADD SWAP6 ADD SWAP4 ADD PUSH2 0x2942 JUMP JUMPDEST PUSH2 0x29C2 SWAP1 DUP5 PUSH1 0x0 MSTORE PUSH1 0x20 PUSH1 0x0 KECCAK256 PUSH1 0x1F DUP6 ADD PUSH1 0x5 SHR DUP2 ADD SWAP2 PUSH1 0x20 DUP7 LT PUSH2 0x9AF JUMPI PUSH1 0x1F ADD PUSH1 0x5 SHR ADD SWAP1 PUSH2 0x34E3 JUMP JUMPDEST DUP7 PUSH2 0x26F8 JUMP JUMPDEST ADD MLOAD SWAP1 POP DUP9 DUP1 PUSH2 0x720 JUMP JUMPDEST SWAP1 PUSH1 0x1F NOT DUP4 AND SWAP2 DUP5 PUSH1 0x0 MSTORE DUP2 PUSH1 0x0 KECCAK256 SWAP3 PUSH1 0x0 JUMPDEST DUP2 DUP2 LT PUSH2 0x2A22 JUMPI POP SWAP1 DUP5 PUSH1 0x1 SWAP6 SWAP5 SWAP4 SWAP3 LT PUSH2 0x2A09 JUMPI JUMPDEST POP POP POP DUP2 SHL ADD SWAP1 SSTORE PUSH2 0x26CF JUMP JUMPDEST ADD MLOAD PUSH1 0x0 NOT PUSH1 0xF8 DUP5 PUSH1 0x3 SHL AND SHR NOT AND SWAP1 SSTORE DUP8 DUP1 DUP1 PUSH2 0x29FC JUMP JUMPDEST SWAP3 SWAP4 PUSH1 0x20 PUSH1 0x1 DUP2 SWAP3 DUP8 DUP7 ADD MLOAD DUP2 SSTORE ADD SWAP6 ADD SWAP4 ADD PUSH2 0x29E6 JUMP JUMPDEST PUSH2 0x2A66 SWAP1 DUP5 PUSH1 0x0 MSTORE PUSH1 0x20 PUSH1 0x0 KECCAK256 PUSH1 0x1F DUP6 ADD PUSH1 0x5 SHR DUP2 ADD SWAP2 PUSH1 0x20 DUP7 LT PUSH2 0x9AF JUMPI PUSH1 0x1F ADD PUSH1 0x5 SHR ADD SWAP1 PUSH2 0x34E3 JUMP JUMPDEST DUP8 PUSH2 0x269B JUMP JUMPDEST ADD MLOAD SWAP1 POP DUP10 DUP1 PUSH2 0x720 JUMP JUMPDEST SWAP1 PUSH1 0x1F NOT DUP4 AND SWAP2 DUP5 PUSH1 0x0 MSTORE DUP2 PUSH1 0x0 KECCAK256 SWAP3 PUSH1 0x0 JUMPDEST DUP2 DUP2 LT PUSH2 0x2AC6 JUMPI POP SWAP1 DUP5 PUSH1 0x1 SWAP6 SWAP5 SWAP4 SWAP3 LT PUSH2 0x2AAD JUMPI JUMPDEST POP POP POP DUP2 SHL ADD SWAP1 SSTORE PUSH2 0x2672 JUMP JUMPDEST ADD MLOAD PUSH1 0x0 NOT PUSH1 0xF8 DUP5 PUSH1 0x3 SHL AND SHR NOT AND SWAP1 SSTORE DUP9 DUP1 DUP1 PUSH2 0x2AA0 JUMP JUMPDEST SWAP3 SWAP4 PUSH1 0x20 PUSH1 0x1 DUP2 SWAP3 DUP8 DUP7 ADD MLOAD DUP2 SSTORE ADD SWAP6 ADD SWAP4 ADD PUSH2 0x2A8A JUMP JUMPDEST PUSH2 0x2B0A SWAP1 DUP5 PUSH1 0x0 MSTORE PUSH1 0x20 PUSH1 0x0 KECCAK256 PUSH1 0x1F DUP6 ADD PUSH1 0x5 SHR DUP2 ADD SWAP2 PUSH1 0x20 DUP7 LT PUSH2 0x9AF JUMPI PUSH1 0x1F ADD PUSH1 0x5 SHR ADD SWAP1 PUSH2 0x34E3 JUMP JUMPDEST DUP9 PUSH2 0x263E JUMP JUMPDEST SWAP1 PUSH1 0x1F NOT DUP4 AND SWAP2 DUP5 PUSH1 0x0 MSTORE DUP2 PUSH1 0x0 KECCAK256 SWAP3 PUSH1 0x0 JUMPDEST DUP2 DUP2 LT PUSH2 0x2B5F JUMPI POP SWAP1 DUP5 PUSH1 0x1 SWAP6 SWAP5 SWAP4 SWAP3 LT PUSH2 0x2B46 JUMPI JUMPDEST POP POP POP DUP2 SHL ADD SWAP1 SSTORE PUSH2 0x2615 JUMP JUMPDEST ADD MLOAD PUSH1 0x0 NOT PUSH1 0xF8 DUP5 PUSH1 0x3 SHL AND SHR NOT AND SWAP1 SSTORE DUP10 DUP1 DUP1 PUSH2 0x2B39 JUMP JUMPDEST SWAP3 SWAP4 PUSH1 0x20 PUSH1 0x1 DUP2 SWAP3 DUP8 DUP7 ADD MLOAD DUP2 SSTORE ADD SWAP6 ADD SWAP4 ADD PUSH2 0x2B23 JUMP JUMPDEST PUSH2 0x2BA3 SWAP1 DUP5 PUSH1 0x0 MSTORE PUSH1 0x20 PUSH1 0x0 KECCAK256 PUSH1 0x1F DUP6 ADD PUSH1 0x5 SHR DUP2 ADD SWAP2 PUSH1 0x20 DUP7 LT PUSH2 0x9AF JUMPI PUSH1 0x1F ADD PUSH1 0x5 SHR ADD SWAP1 PUSH2 0x34E3 JUMP JUMPDEST DUP10 PUSH2 0x25E1 JUMP JUMPDEST SWAP1 PUSH1 0x1F NOT DUP4 AND SWAP2 DUP5 PUSH1 0x0 MSTORE DUP2 PUSH1 0x0 KECCAK256 SWAP3 PUSH1 0x0 JUMPDEST DUP2 DUP2 LT PUSH2 0x2BF8 JUMPI POP SWAP1 DUP5 PUSH1 0x1 SWAP6 SWAP5 SWAP4 SWAP3 LT PUSH2 0x2BDF JUMPI JUMPDEST POP POP POP DUP2 SHL ADD SWAP1 SSTORE PUSH2 0x253C JUMP JUMPDEST ADD MLOAD PUSH1 0x0 NOT PUSH1 0xF8 DUP5 PUSH1 0x3 SHL AND SHR NOT AND SWAP1 SSTORE DUP10 DUP1 DUP1 PUSH2 0x2BD2 JUMP JUMPDEST SWAP3 SWAP4 PUSH1 0x20 PUSH1 0x1 DUP2 SWAP3 DUP8 DUP7 ADD MLOAD DUP2 SSTORE ADD SWAP6 ADD SWAP4 ADD PUSH2 0x2BBC JUMP JUMPDEST PUSH2 0x2C3C SWAP1 DUP5 PUSH1 0x0 MSTORE PUSH1 0x20 PUSH1 0x0 KECCAK256 PUSH1 0x1F DUP6 ADD PUSH1 0x5 SHR DUP2 ADD SWAP2 PUSH1 0x20 DUP7 LT PUSH2 0x9AF JUMPI PUSH1 0x1F ADD PUSH1 0x5 SHR ADD SWAP1 PUSH2 0x34E3 JUMP JUMPDEST DUP10 PUSH2 0x2508 JUMP JUMPDEST SWAP1 PUSH1 0x1F NOT DUP4 AND SWAP2 DUP5 PUSH1 0x0 MSTORE DUP2 PUSH1 0x0 KECCAK256 SWAP3 PUSH1 0x0 JUMPDEST DUP2 DUP2 LT PUSH2 0x2C95 JUMPI POP SWAP2 PUSH1 0x1 SWAP4 SWAP2 DUP6 PUSH1 0x6 SWAP9 SWAP8 SWAP7 SWAP5 LT PUSH2 0x2C7C JUMPI JUMPDEST POP POP POP DUP2 SHL ADD SWAP1 SSTORE PUSH2 0x24E1 JUMP JUMPDEST ADD MLOAD PUSH1 0x0 NOT PUSH1 0xF8 DUP5 PUSH1 0x3 SHL AND SHR NOT AND SWAP1 SSTORE DUP13 DUP1 DUP1 PUSH2 0x2C6F JUMP JUMPDEST SWAP3 SWAP4 PUSH1 0x20 PUSH1 0x1 DUP2 SWAP3 DUP8 DUP7 ADD MLOAD DUP2 SSTORE ADD SWAP6 ADD SWAP4 ADD PUSH2 0x2C55 JUMP JUMPDEST PUSH2 0x2CD9 SWAP1 DUP5 PUSH1 0x0 MSTORE PUSH1 0x20 PUSH1 0x0 KECCAK256 PUSH1 0x1F DUP6 ADD PUSH1 0x5 SHR DUP2 ADD SWAP2 PUSH1 0x20 DUP7 LT PUSH2 0x9AF JUMPI PUSH1 0x1F ADD PUSH1 0x5 SHR ADD SWAP1 PUSH2 0x34E3 JUMP JUMPDEST DUP12 PUSH2 0x24A8 JUMP JUMPDEST SWAP1 PUSH1 0x1F NOT DUP4 AND SWAP2 DUP5 PUSH1 0x0 MSTORE DUP2 PUSH1 0x0 KECCAK256 SWAP3 PUSH1 0x0 JUMPDEST DUP2 DUP2 LT PUSH2 0x2D2E JUMPI POP SWAP1 DUP5 PUSH1 0x1 SWAP6 SWAP5 SWAP4 SWAP3 LT PUSH2 0x2D15 JUMPI JUMPDEST POP POP POP DUP2 SHL ADD SWAP1 SSTORE PUSH2 0x247F JUMP JUMPDEST ADD MLOAD PUSH1 0x0 NOT PUSH1 0xF8 DUP5 PUSH1 0x3 SHL AND SHR NOT AND SWAP1 SSTORE DUP13 DUP1 DUP1 PUSH2 0x2D08 JUMP JUMPDEST SWAP3 SWAP4 PUSH1 0x20 PUSH1 0x1 DUP2 SWAP3 DUP8 DUP7 ADD MLOAD DUP2 SSTORE ADD SWAP6 ADD SWAP4 ADD PUSH2 0x2CF2 JUMP JUMPDEST PUSH2 0x2D72 SWAP1 DUP5 PUSH1 0x0 MSTORE PUSH1 0x20 PUSH1 0x0 KECCAK256 PUSH1 0x1F DUP6 ADD PUSH1 0x5 SHR DUP2 ADD SWAP2 PUSH1 0x20 DUP7 LT PUSH2 0x9AF JUMPI PUSH1 0x1F ADD PUSH1 0x5 SHR ADD SWAP1 PUSH2 0x34E3 JUMP JUMPDEST DUP13 PUSH2 0x244B JUMP JUMPDEST ADD MLOAD SWAP1 POP DUP15 DUP1 PUSH2 0x720 JUMP JUMPDEST SWAP1 PUSH1 0x1F NOT DUP4 AND SWAP2 DUP5 PUSH1 0x0 MSTORE DUP2 PUSH1 0x0 KECCAK256 SWAP3 PUSH1 0x0 JUMPDEST DUP2 DUP2 LT PUSH2 0x2DD2 JUMPI POP SWAP1 DUP5 PUSH1 0x1 SWAP6 SWAP5 SWAP4 SWAP3 LT PUSH2 0x2DB9 JUMPI JUMPDEST POP POP POP DUP2 SHL ADD SWAP1 SSTORE PUSH2 0x2422 JUMP JUMPDEST ADD MLOAD PUSH1 0x0 NOT PUSH1 0xF8 DUP5 PUSH1 0x3 SHL AND SHR NOT AND SWAP1 SSTORE DUP14 DUP1 DUP1 PUSH2 0x2DAC JUMP JUMPDEST SWAP3 SWAP4 PUSH1 0x20 PUSH1 0x1 DUP2 SWAP3 DUP8 DUP7 ADD MLOAD DUP2 SSTORE ADD SWAP6 ADD SWAP4 ADD PUSH2 0x2D96 JUMP JUMPDEST PUSH2 0x2E16 SWAP1 DUP5 PUSH1 0x0 MSTORE PUSH1 0x20 PUSH1 0x0 KECCAK256 PUSH1 0x1F DUP6 ADD PUSH1 0x5 SHR DUP2 ADD SWAP2 PUSH1 0x20 DUP7 LT PUSH2 0x9AF JUMPI PUSH1 0x1F ADD PUSH1 0x5 SHR ADD SWAP1 PUSH2 0x34E3 JUMP JUMPDEST DUP14 PUSH2 0x23EE JUMP JUMPDEST ADD MLOAD SWAP1 POP DUP16 DUP1 PUSH2 0x720 JUMP JUMPDEST SWAP1 PUSH1 0x1F NOT DUP4 AND SWAP2 DUP5 PUSH1 0x0 MSTORE DUP2 PUSH1 0x0 KECCAK256 SWAP3 PUSH1 0x0 JUMPDEST DUP2 DUP2 LT PUSH2 0x2E76 JUMPI POP SWAP1 DUP5 PUSH1 0x1 SWAP6 SWAP5 SWAP4 SWAP3 LT PUSH2 0x2E5D JUMPI JUMPDEST POP POP POP DUP2 SHL ADD SWAP1 SSTORE PUSH2 0x23C5 JUMP JUMPDEST ADD MLOAD PUSH1 0x0 NOT PUSH1 0xF8 DUP5 PUSH1 0x3 SHL AND SHR NOT AND SWAP1 SSTORE DUP15 DUP1 DUP1 PUSH2 0x2E50 JUMP JUMPDEST SWAP3 SWAP4 PUSH1 0x20 PUSH1 0x1 DUP2 SWAP3 DUP8 DUP7 ADD MLOAD DUP2 SSTORE ADD SWAP6 ADD SWAP4 ADD PUSH2 0x2E3A JUMP JUMPDEST PUSH2 0x2EBA SWAP1 DUP5 PUSH1 0x0 MSTORE PUSH1 0x20 PUSH1 0x0 KECCAK256 PUSH1 0x1F DUP6 ADD PUSH1 0x5 SHR DUP2 ADD SWAP2 PUSH1 0x20 DUP7 LT PUSH2 0x9AF JUMPI PUSH1 0x1F ADD PUSH1 0x5 SHR ADD SWAP1 PUSH2 0x34E3 JUMP JUMPDEST DUP15 PUSH2 0x2391 JUMP JUMPDEST SWAP1 PUSH1 0x1F NOT DUP4 AND SWAP2 DUP5 PUSH1 0x0 MSTORE DUP2 PUSH1 0x0 KECCAK256 SWAP3 PUSH1 0x0 JUMPDEST DUP2 DUP2 LT PUSH2 0x2F0F JUMPI POP SWAP1 DUP5 PUSH1 0x1 SWAP6 SWAP5 SWAP4 SWAP3 LT PUSH2 0x2EF6 JUMPI JUMPDEST POP POP POP DUP2 SHL ADD SWAP1 SSTORE PUSH2 0x2368 JUMP JUMPDEST ADD MLOAD PUSH1 0x0 NOT PUSH1 0xF8 DUP5 PUSH1 0x3 SHL AND SHR NOT AND SWAP1 SSTORE DUP16 DUP1 DUP1 PUSH2 0x2EE9 JUMP JUMPDEST SWAP3 SWAP4 PUSH1 0x20 PUSH1 0x1 DUP2 SWAP3 DUP8 DUP7 ADD MLOAD DUP2 SSTORE ADD SWAP6 ADD SWAP4 ADD PUSH2 0x2ED3 JUMP JUMPDEST PUSH2 0x2F53 SWAP1 DUP5 PUSH1 0x0 MSTORE PUSH1 0x20 PUSH1 0x0 KECCAK256 PUSH1 0x1F DUP6 ADD PUSH1 0x5 SHR DUP2 ADD SWAP2 PUSH1 0x20 DUP7 LT PUSH2 0x9AF JUMPI PUSH1 0x1F ADD PUSH1 0x5 SHR ADD SWAP1 PUSH2 0x34E3 JUMP JUMPDEST DUP16 PUSH2 0x2334 JUMP JUMPDEST POP PUSH2 0x229B PUSH2 0x2F66 DUP7 PUSH2 0x3D2D JUMP JUMPDEST ISZERO SWAP1 POP PUSH2 0x228F JUMP JUMPDEST POP PUSH2 0x2F78 DUP7 PUSH2 0x3D2D JUMP JUMPDEST ISZERO PUSH2 0x2289 JUMP JUMPDEST POP PUSH2 0x2F88 DUP4 PUSH2 0x3D2D JUMP JUMPDEST ISZERO PUSH2 0x2283 JUMP JUMPDEST POP PUSH2 0x2F98 DUP3 PUSH2 0x3D2D JUMP JUMPDEST ISZERO PUSH2 0x227D JUMP JUMPDEST POP PUSH2 0x2FA8 DUP2 PUSH2 0x3D2D JUMP JUMPDEST ISZERO PUSH2 0x2277 JUMP JUMPDEST CALLVALUE PUSH2 0x103 JUMPI PUSH1 0x40 CALLDATASIZE PUSH1 0x3 NOT ADD SLT PUSH2 0x103 JUMPI PUSH1 0x4 CALLDATALOAD PUSH1 0x24 CALLDATALOAD PUSH1 0x1 PUSH1 0x1 PUSH1 0x40 SHL SUB DUP2 GT PUSH2 0x103 JUMPI PUSH2 0x2FE1 SWAP1 CALLDATASIZE SWAP1 PUSH1 0x4 ADD PUSH2 0x32EC JUMP JUMPDEST SWAP1 PUSH2 0x2FEA PUSH2 0x3923 JUMP JUMPDEST PUSH1 0x40 MLOAD PUSH1 0xFF DUP4 MLOAD SWAP2 PUSH1 0x20 DUP2 DUP2 DUP8 ADD SWAP5 PUSH2 0x3004 DUP2 DUP4 DUP9 PUSH2 0x3333 JUMP JUMPDEST DUP2 ADD PUSH1 0x67 DUP2 MSTORE SUB ADD SWAP1 KECCAK256 SLOAD AND ISZERO PUSH2 0x306B JUMPI JUMPDEST PUSH2 0x257 DUP3 PUSH2 0x305E PUSH1 0x40 SWAP2 DUP3 MLOAD SWAP1 PUSH2 0x302D DUP5 DUP4 PUSH2 0x32B0 JUMP JUMPDEST PUSH1 0x19 DUP3 MSTORE PUSH25 0x544F4B454E204D494E544544205355434345535346554C4C59 PUSH1 0x38 SHL PUSH1 0x20 DUP4 ADD MSTORE TIMESTAMP SWAP2 CALLER SWAP1 ADDRESS SWAP1 PUSH2 0x3959 JUMP JUMPDEST SWAP3 SWAP1 SWAP2 MLOAD SWAP3 DUP4 SWAP3 DUP4 PUSH2 0x337B JUMP JUMPDEST PUSH1 0x68 SLOAD PUSH1 0x1 DUP2 ADD DUP1 SWAP2 GT PUSH2 0x196D JUMPI PUSH1 0x68 SSTORE PUSH1 0x40 MLOAD PUSH1 0x20 DUP2 DUP6 MLOAD PUSH2 0x308F DUP2 DUP4 DUP8 PUSH2 0x3333 JUMP JUMPDEST DUP2 ADD PUSH1 0x67 DUP2 MSTORE SUB ADD SWAP1 KECCAK256 PUSH1 0x1 PUSH1 0xFF NOT DUP3 SLOAD AND OR SWAP1 SSTORE PUSH1 0x68 SLOAD PUSH1 0x40 MLOAD SWAP1 PUSH1 0x40 DUP3 ADD DUP3 DUP2 LT PUSH1 0x1 PUSH1 0x1 PUSH1 0x40 SHL SUB DUP3 GT OR PUSH2 0x9B9 JUMPI PUSH1 0x1 SWAP4 PUSH2 0x30E8 SWAP3 PUSH1 0x20 SWAP3 PUSH1 0x40 MSTORE DUP5 MSTORE DUP2 DUP5 ADD SWAP7 DUP1 DUP9 MSTORE PUSH1 0x40 MLOAD SWAP4 DUP5 SWAP3 DUP4 SWAP3 MLOAD SWAP3 DUP4 SWAP2 PUSH2 0x3333 JUMP JUMPDEST DUP2 ADD PUSH1 0x6A DUP2 MSTORE SUB ADD SWAP1 KECCAK256 SWAP1 MLOAD DUP2 SSTORE ADD SWAP2 MLOAD SWAP2 DUP3 MLOAD SWAP3 PUSH1 0x1 PUSH1 0x1 PUSH1 0x40 SHL SUB DUP5 GT PUSH2 0x9B9 JUMPI PUSH2 0x3115 DUP3 SLOAD PUSH2 0x34A9 JUMP JUMPDEST PUSH1 0x1F DUP2 GT PUSH2 0x322C JUMPI JUMPDEST POP PUSH1 0x20 SWAP1 PUSH1 0x1F DUP6 GT PUSH1 0x1 EQ PUSH2 0x31C2 JUMPI SWAP4 DUP1 PUSH2 0x3153 SWAP3 PUSH2 0x257 SWAP7 PUSH1 0x0 SWAP3 PUSH2 0x31B7 JUMPI POP POP DUP2 PUSH1 0x1 SHL SWAP2 PUSH1 0x0 NOT SWAP1 PUSH1 0x3 SHL SHR NOT AND OR SWAP1 JUMP JUMPDEST SWAP1 SSTORE JUMPDEST PUSH1 0x69 SLOAD PUSH1 0x68 SLOAD PUSH1 0x40 MLOAD PUSH4 0x32C9625F PUSH1 0xE2 SHL PUSH1 0x20 DUP3 ADD SWAP1 DUP2 MSTORE ADDRESS PUSH1 0x24 DUP4 ADD MSTORE PUSH1 0x44 DUP3 ADD SWAP3 SWAP1 SWAP3 MSTORE PUSH1 0x64 DUP2 ADD DUP5 SWAP1 MSTORE PUSH1 0x0 SWAP3 DUP4 SWAP3 PUSH1 0x1 PUSH1 0x1 PUSH1 0xA0 SHL SUB SWAP1 SWAP2 AND SWAP2 DUP4 SWAP1 PUSH2 0x31A3 DUP2 PUSH1 0x84 DUP2 ADD PUSH2 0x1F5 JUMP JUMPDEST MLOAD SWAP3 GAS CALL POP PUSH2 0x31B0 PUSH2 0x34FA JUMP JUMPDEST POP DUP3 PUSH2 0x3016 JUMP JUMPDEST ADD MLOAD SWAP1 POP DUP7 DUP1 PUSH2 0x720 JUMP JUMPDEST SWAP1 PUSH1 0x1F NOT DUP6 AND SWAP2 DUP4 PUSH1 0x0 MSTORE DUP2 PUSH1 0x0 KECCAK256 SWAP3 PUSH1 0x0 JUMPDEST DUP2 DUP2 LT PUSH2 0x3214 JUMPI POP SWAP2 PUSH1 0x1 SWAP4 SWAP2 DUP8 PUSH2 0x257 SWAP9 SWAP5 LT PUSH2 0x31FB JUMPI JUMPDEST POP POP POP DUP2 SHL ADD SWAP1 SSTORE PUSH2 0x3156 JUMP JUMPDEST ADD MLOAD PUSH1 0x0 NOT PUSH1 0xF8 DUP5 PUSH1 0x3 SHL AND SHR NOT AND SWAP1 SSTORE DUP6 DUP1 DUP1 PUSH2 0x31EE JUMP JUMPDEST SWAP3 SWAP4 PUSH1 0x20 PUSH1 0x1 DUP2 SWAP3 DUP8 DUP7 ADD MLOAD DUP2 SSTORE ADD SWAP6 ADD SWAP4 ADD PUSH2 0x31D5 JUMP JUMPDEST PUSH2 0x3258 SWAP1 DUP4 PUSH1 0x0 MSTORE PUSH1 0x20 PUSH1 0x0 KECCAK256 PUSH1 0x1F DUP8 ADD PUSH1 0x5 SHR DUP2 ADD SWAP2 PUSH1 0x20 DUP9 LT PUSH2 0x9AF JUMPI PUSH1 0x1F ADD PUSH1 0x5 SHR ADD SWAP1 PUSH2 0x34E3 JUMP JUMPDEST DUP5 PUSH2 0x311E JUMP JUMPDEST PUSH1 0xE0 DUP2 ADD SWAP1 DUP2 LT PUSH1 0x1 PUSH1 0x1 PUSH1 0x40 SHL SUB DUP3 GT OR PUSH2 0x9B9 JUMPI PUSH1 0x40 MSTORE JUMP JUMPDEST PUSH1 0x80 DUP2 ADD SWAP1 DUP2 LT PUSH1 0x1 PUSH1 0x1 PUSH1 0x40 SHL SUB DUP3 GT OR PUSH2 0x9B9 JUMPI PUSH1 0x40 MSTORE JUMP JUMPDEST PUSH2 0x100 DUP2 ADD SWAP1 DUP2 LT PUSH1 0x1 PUSH1 0x1 PUSH1 0x40 SHL SUB DUP3 GT OR PUSH2 0x9B9 JUMPI PUSH1 0x40 MSTORE JUMP JUMPDEST SWAP1 PUSH1 0x1F DUP1 NOT SWAP2 ADD AND DUP2 ADD SWAP1 DUP2 LT PUSH1 0x1 PUSH1 0x1 PUSH1 0x40 SHL SUB DUP3 GT OR PUSH2 0x9B9 JUMPI PUSH1 0x40 MSTORE JUMP JUMPDEST PUSH1 0x1 PUSH1 0x1 PUSH1 0x40 SHL SUB DUP2 GT PUSH2 0x9B9 JUMPI PUSH1 0x1F ADD PUSH1 0x1F NOT AND PUSH1 0x20 ADD SWAP1 JUMP JUMPDEST DUP2 PUSH1 0x1F DUP3 ADD SLT ISZERO PUSH2 0x103 JUMPI DUP1 CALLDATALOAD SWAP1 PUSH2 0x3303 DUP3 PUSH2 0x32D1 JUMP JUMPDEST SWAP3 PUSH2 0x3311 PUSH1 0x40 MLOAD SWAP5 DUP6 PUSH2 0x32B0 JUMP JUMPDEST DUP3 DUP5 MSTORE PUSH1 0x20 DUP4 DUP4 ADD ADD GT PUSH2 0x103 JUMPI DUP2 PUSH1 0x0 SWAP3 PUSH1 0x20 DUP1 SWAP4 ADD DUP4 DUP7 ADD CALLDATACOPY DUP4 ADD ADD MSTORE SWAP1 JUMP JUMPDEST PUSH1 0x0 JUMPDEST DUP4 DUP2 LT PUSH2 0x3346 JUMPI POP POP PUSH1 0x0 SWAP2 ADD MSTORE JUMP JUMPDEST DUP2 DUP2 ADD MLOAD DUP4 DUP3 ADD MSTORE PUSH1 0x20 ADD PUSH2 0x3336 JUMP JUMPDEST SWAP1 PUSH1 0x20 SWAP2 PUSH2 0x336F DUP2 MLOAD DUP1 SWAP3 DUP2 DUP6 MSTORE DUP6 DUP1 DUP7 ADD SWAP2 ADD PUSH2 0x3333 JUMP JUMPDEST PUSH1 0x1F ADD PUSH1 0x1F NOT AND ADD ADD SWAP1 JUMP JUMPDEST PUSH1 0x40 SWAP1 PUSH2 0x3392 SWAP4 SWAP3 DUP2 MSTORE DUP2 PUSH1 0x20 DUP3 ADD MSTORE ADD SWAP1 PUSH2 0x3356 JUMP JUMPDEST SWAP1 JUMP JUMPDEST SWAP1 DUP1 PUSH1 0x20 DUP4 MLOAD SWAP2 DUP3 DUP2 MSTORE ADD SWAP2 PUSH1 0x20 DUP1 DUP4 PUSH1 0x5 SHL DUP4 ADD ADD SWAP5 ADD SWAP3 PUSH1 0x0 SWAP2 JUMPDEST DUP4 DUP4 LT PUSH2 0x33C1 JUMPI POP POP POP POP POP SWAP1 JUMP JUMPDEST SWAP1 SWAP2 SWAP3 SWAP4 SWAP5 PUSH1 0x20 DUP1 PUSH2 0x33DF PUSH1 0x1 SWAP4 PUSH1 0x1F NOT DUP7 DUP3 SUB ADD DUP8 MSTORE DUP10 MLOAD PUSH2 0x3356 JUMP JUMPDEST SWAP8 ADD SWAP4 ADD SWAP4 ADD SWAP2 SWAP4 SWAP3 SWAP1 PUSH2 0x33B2 JUMP JUMPDEST PUSH1 0x1 PUSH1 0x1 PUSH1 0x40 SHL SUB DUP2 GT PUSH2 0x9B9 JUMPI PUSH1 0x5 SHL PUSH1 0x20 ADD SWAP1 JUMP JUMPDEST SWAP1 DUP1 PUSH1 0x1F DUP4 ADD SLT ISZERO PUSH2 0x103 JUMPI DUP2 CALLDATALOAD PUSH2 0x341C DUP2 PUSH2 0x33EE JUMP JUMPDEST SWAP3 PUSH2 0x342A PUSH1 0x40 MLOAD SWAP5 DUP6 PUSH2 0x32B0 JUMP JUMPDEST DUP2 DUP5 MSTORE PUSH1 0x20 DUP1 DUP6 ADD SWAP3 PUSH1 0x5 SHL DUP3 ADD ADD SWAP2 DUP4 DUP4 GT PUSH2 0x103 JUMPI PUSH1 0x20 DUP3 ADD SWAP1 JUMPDEST DUP4 DUP3 LT PUSH2 0x3456 JUMPI POP POP POP POP POP SWAP1 JUMP JUMPDEST DUP2 CALLDATALOAD PUSH1 0x1 PUSH1 0x1 PUSH1 0x40 SHL SUB DUP2 GT PUSH2 0x103 JUMPI PUSH1 0x20 SWAP2 PUSH2 0x3478 DUP8 DUP5 DUP1 SWAP5 DUP9 ADD ADD PUSH2 0x32EC JUMP JUMPDEST DUP2 MSTORE ADD SWAP2 ADD SWAP1 PUSH2 0x3447 JUMP JUMPDEST PUSH1 0x20 PUSH2 0x349C SWAP2 DUP2 PUSH1 0x40 MLOAD SWAP4 DUP3 DUP6 DUP1 SWAP5 MLOAD SWAP4 DUP5 SWAP3 ADD PUSH2 0x3333 JUMP JUMPDEST DUP2 ADD PUSH1 0x6D DUP2 MSTORE SUB ADD SWAP1 KECCAK256 SWAP1 JUMP JUMPDEST SWAP1 PUSH1 0x1 DUP3 DUP2 SHR SWAP3 AND DUP1 ISZERO PUSH2 0x34D9 JUMPI JUMPDEST PUSH1 0x20 DUP4 LT EQ PUSH2 0x34C3 JUMPI JUMP JUMPDEST PUSH4 0x4E487B71 PUSH1 0xE0 SHL PUSH1 0x0 MSTORE PUSH1 0x22 PUSH1 0x4 MSTORE PUSH1 0x24 PUSH1 0x0 REVERT JUMPDEST SWAP2 PUSH1 0x7F AND SWAP2 PUSH2 0x34B8 JUMP JUMPDEST DUP2 DUP2 LT PUSH2 0x34EE JUMPI POP POP JUMP JUMPDEST PUSH1 0x0 DUP2 SSTORE PUSH1 0x1 ADD PUSH2 0x34E3 JUMP JUMPDEST RETURNDATASIZE ISZERO PUSH2 0x3525 JUMPI RETURNDATASIZE SWAP1 PUSH2 0x350B DUP3 PUSH2 0x32D1 JUMP JUMPDEST SWAP2 PUSH2 0x3519 PUSH1 0x40 MLOAD SWAP4 DUP5 PUSH2 0x32B0 JUMP JUMPDEST DUP3 MSTORE RETURNDATASIZE PUSH1 0x0 PUSH1 0x20 DUP5 ADD RETURNDATACOPY JUMP JUMPDEST PUSH1 0x60 SWAP1 JUMP JUMPDEST PUSH1 0x40 MLOAD SWAP1 PUSH2 0x3539 PUSH1 0x40 DUP4 PUSH2 0x32B0 JUMP JUMPDEST PUSH1 0x20 DUP3 MSTORE PUSH32 0x4E6F2076616C75652073686F756C6420626520656D707479206F72207A65726F PUSH1 0x20 DUP4 ADD MSTORE JUMP JUMPDEST ISZERO PUSH2 0x356D JUMPI POP JUMP JUMPDEST PUSH1 0x40 MLOAD PUSH3 0x461BCD PUSH1 0xE5 SHL DUP2 MSTORE PUSH1 0x20 PUSH1 0x4 DUP3 ADD MSTORE SWAP1 DUP2 SWAP1 PUSH2 0x3591 SWAP1 PUSH1 0x24 DUP4 ADD SWAP1 PUSH2 0x3356 JUMP JUMPDEST SUB SWAP1 REVERT JUMPDEST PUSH1 0x40 MLOAD SWAP1 PUSH2 0x35A4 PUSH1 0x40 DUP4 PUSH2 0x32B0 JUMP JUMPDEST PUSH1 0xF DUP3 MSTORE PUSH15 0x1554D15488149151D254D511549151 PUSH1 0x8A SHL PUSH1 0x20 DUP4 ADD MSTORE JUMP JUMPDEST SWAP1 PUSH1 0x40 MLOAD SWAP2 DUP3 PUSH1 0x0 DUP3 SLOAD SWAP3 PUSH2 0x35D6 DUP5 PUSH2 0x34A9 JUMP JUMPDEST DUP1 DUP5 MSTORE SWAP4 PUSH1 0x1 DUP2 AND SWAP1 DUP2 ISZERO PUSH2 0x3644 JUMPI POP PUSH1 0x1 EQ PUSH2 0x35FD JUMPI JUMPDEST POP PUSH2 0x35FB SWAP3 POP SUB DUP4 PUSH2 0x32B0 JUMP JUMPDEST JUMP JUMPDEST SWAP1 POP PUSH1 0x0 SWAP3 SWAP2 SWAP3 MSTORE PUSH1 0x20 PUSH1 0x0 KECCAK256 SWAP1 PUSH1 0x0 SWAP2 JUMPDEST DUP2 DUP4 LT PUSH2 0x3628 JUMPI POP POP SWAP1 PUSH1 0x20 PUSH2 0x35FB SWAP3 DUP3 ADD ADD CODESIZE PUSH2 0x35EE JUMP JUMPDEST PUSH1 0x20 SWAP2 SWAP4 POP DUP1 PUSH1 0x1 SWAP2 SLOAD DUP4 DUP6 DUP10 ADD ADD MSTORE ADD SWAP2 ADD SWAP1 SWAP2 DUP5 SWAP3 PUSH2 0x360F JUMP JUMPDEST SWAP1 POP PUSH1 0x20 SWAP3 POP PUSH2 0x35FB SWAP5 SWAP2 POP PUSH1 0xFF NOT AND DUP3 DUP5 ADD MSTORE ISZERO ISZERO PUSH1 0x5 SHL DUP3 ADD ADD CODESIZE PUSH2 0x35EE JUMP JUMPDEST PUSH1 0x40 MLOAD SWAP1 PUSH2 0x3675 PUSH1 0x40 DUP4 PUSH2 0x32B0 JUMP JUMPDEST PUSH1 0x6 DUP3 MSTORE PUSH6 0x2330B936B2B9 PUSH1 0xD1 SHL PUSH1 0x20 DUP4 ADD MSTORE JUMP JUMPDEST PUSH1 0x40 MLOAD SWAP1 PUSH2 0x3699 PUSH1 0x40 DUP4 PUSH2 0x32B0 JUMP JUMPDEST PUSH1 0x9 DUP3 MSTORE PUSH9 0x283937B1B2B9B9B7B9 PUSH1 0xB9 SHL PUSH1 0x20 DUP4 ADD MSTORE JUMP JUMPDEST PUSH1 0x40 MLOAD SWAP1 PUSH2 0x36C0 PUSH1 0x40 DUP4 PUSH2 0x32B0 JUMP JUMPDEST PUSH1 0x8 DUP3 MSTORE PUSH8 0x2932BA30B4B632B9 PUSH1 0xC1 SHL PUSH1 0x20 DUP4 ADD MSTORE JUMP JUMPDEST PUSH1 0x40 MLOAD SWAP1 PUSH2 0x36E6 PUSH1 0x40 DUP4 PUSH2 0x32B0 JUMP JUMPDEST PUSH1 0x13 DUP3 MSTORE PUSH19 0x2737BA1020BABA3437B934BD32B2102AB9B2B9 PUSH1 0x69 SHL PUSH1 0x20 DUP4 ADD MSTORE JUMP JUMPDEST PUSH1 0xFF AND PUSH1 0xFF DUP2 EQ PUSH2 0x196D JUMPI PUSH1 0x1 ADD SWAP1 JUMP JUMPDEST PUSH1 0x60 MLOAD DUP2 LT ISZERO PUSH2 0x372C JUMPI PUSH1 0x5 SHL PUSH1 0x80 ADD SWAP1 JUMP JUMPDEST PUSH4 0x4E487B71 PUSH1 0xE0 SHL PUSH1 0x0 MSTORE PUSH1 0x32 PUSH1 0x4 MSTORE PUSH1 0x24 PUSH1 0x0 REVERT JUMPDEST PUSH1 0x60 MLOAD ISZERO PUSH2 0x372C JUMPI PUSH1 0x80 SWAP1 JUMP JUMPDEST DUP1 MLOAD DUP3 LT ISZERO PUSH2 0x372C JUMPI PUSH1 0x20 SWAP2 PUSH1 0x5 SHL ADD ADD SWAP1 JUMP JUMPDEST PUSH1 0x40 MLOAD SWAP1 PUSH2 0x3772 PUSH1 0x40 DUP4 PUSH2 0x32B0 JUMP JUMPDEST PUSH1 0xD DUP3 MSTORE PUSH13 0x15115048141493D0D154D4D151 PUSH1 0x9A SHL PUSH1 0x20 DUP4 ADD MSTORE JUMP JUMPDEST PUSH1 0x40 MLOAD SWAP1 PUSH2 0x379D PUSH1 0x40 DUP4 PUSH2 0x32B0 JUMP JUMPDEST PUSH1 0x1E DUP3 MSTORE PUSH32 0x475354204E756D6265722073686F756C64206E6F7420626520656D7074790000 PUSH1 0x20 DUP4 ADD MSTORE JUMP JUMPDEST PUSH1 0x40 MLOAD SWAP1 PUSH2 0x37D8 PUSH1 0x40 DUP4 PUSH2 0x32B0 JUMP JUMPDEST PUSH1 0xF DUP3 MSTORE PUSH15 0x151150481514905394D413D4951151 PUSH1 0x8A SHL PUSH1 0x20 DUP4 ADD MSTORE JUMP JUMPDEST PUSH1 0x40 MLOAD SWAP1 PUSH2 0x3805 PUSH1 0x40 DUP4 PUSH2 0x32B0 JUMP JUMPDEST PUSH1 0x14 DUP3 MSTORE PUSH20 0x151BDAD95B88191BD95CC81B9BDD08195E1A5CDD PUSH1 0x62 SHL PUSH1 0x20 DUP4 ADD MSTORE JUMP JUMPDEST PUSH1 0x40 MLOAD SWAP1 PUSH2 0x3837 PUSH1 0x40 DUP4 PUSH2 0x32B0 JUMP JUMPDEST PUSH1 0xD DUP3 MSTORE PUSH13 0x15115048121054959154D51151 PUSH1 0x9A SHL PUSH1 0x20 DUP4 ADD MSTORE JUMP JUMPDEST PUSH1 0x40 MLOAD SWAP1 PUSH2 0x3862 PUSH1 0x40 DUP4 PUSH2 0x32B0 JUMP JUMPDEST PUSH1 0xE DUP3 MSTORE PUSH14 0x1511504811115312515591549151 PUSH1 0x92 SHL PUSH1 0x20 DUP4 ADD MSTORE JUMP JUMPDEST PUSH1 0x40 MLOAD SWAP1 PUSH2 0x388E PUSH1 0x40 DUP4 PUSH2 0x32B0 JUMP JUMPDEST PUSH1 0x10 DUP3 MSTORE PUSH16 0x435550204F4620544541205245414459 PUSH1 0x80 SHL PUSH1 0x20 DUP4 ADD MSTORE JUMP JUMPDEST PUSH1 0x1 PUSH1 0x1 PUSH1 0xA0 SHL SUB AND DUP1 ISZERO PUSH2 0x390D JUMPI PUSH1 0x0 DUP1 MLOAD PUSH1 0x20 PUSH2 0x42CC DUP4 CODECOPY DUP2 MLOAD SWAP2 MSTORE DUP1 SLOAD PUSH1 0x1 PUSH1 0x1 PUSH1 0xA0 SHL SUB NOT DUP2 AND DUP4 OR SWAP1 SWAP2 SSTORE PUSH1 0x1 PUSH1 0x1 PUSH1 0xA0 SHL SUB AND PUSH32 0x8BE0079C531659141344CD1FD0A4F28419497F9722A3DAAFE3B4186F6B6457E0 PUSH1 0x0 DUP1 LOG3 JUMP JUMPDEST PUSH4 0x1E4FBDF7 PUSH1 0xE0 SHL PUSH1 0x0 MSTORE PUSH1 0x0 PUSH1 0x4 MSTORE PUSH1 0x24 PUSH1 0x0 REVERT JUMPDEST PUSH1 0x0 DUP1 MLOAD PUSH1 0x20 PUSH2 0x42CC DUP4 CODECOPY DUP2 MLOAD SWAP2 MSTORE SLOAD PUSH1 0x1 PUSH1 0x1 PUSH1 0xA0 SHL SUB AND ORIGIN SUB PUSH2 0x3944 JUMPI JUMP JUMPDEST PUSH4 0x118CDAA7 PUSH1 0xE0 SHL PUSH1 0x0 MSTORE ORIGIN PUSH1 0x4 MSTORE PUSH1 0x24 PUSH1 0x0 REVERT JUMPDEST SWAP5 SWAP4 SWAP3 SWAP2 POP POP PUSH1 0x40 SWAP4 DUP5 MLOAD SWAP2 PUSH2 0x396F DUP7 DUP5 PUSH2 0x32B0 JUMP JUMPDEST PUSH1 0x7 DUP4 MSTORE PUSH7 0x53554343455353 PUSH1 0xC8 SHL PUSH1 0x20 DUP5 ADD MSTORE PUSH2 0x3994 PUSH2 0x398E PUSH2 0x3595 JUMP JUMPDEST DUP4 PUSH2 0x426A JUMP JUMPDEST ISZERO PUSH2 0x39FD JUMPI PUSH32 0x9221943055D762887FA3AD9D36E966BA8B8A13BBF34004AE031CDAA62B5C55E9 SWAP4 PUSH2 0x39CA SWAP2 DUP8 MLOAD SWAP5 DUP6 SWAP5 DUP6 PUSH2 0x4223 JUMP JUMPDEST SUB SWAP1 LOG1 JUMPDEST PUSH2 0x39DA DUP3 MLOAD SWAP3 DUP4 PUSH2 0x32B0 JUMP JUMPDEST PUSH1 0x10 DUP3 MSTORE PUSH16 0x5472616E736665722053756363657373 PUSH1 0x80 SHL PUSH1 0x20 DUP4 ADD MSTORE PUSH1 0x33 SWAP2 SWAP1 JUMP JUMPDEST PUSH2 0x3A08 PUSH2 0x398E PUSH2 0x3828 JUMP JUMPDEST ISZERO PUSH2 0x3A46 JUMPI PUSH32 0x2DA02ED6E7D6C0954E91580E907A661BC17262B43B9B694497F741DB078717E2 SWAP4 PUSH2 0x3A3E SWAP2 DUP8 MLOAD SWAP5 DUP6 SWAP5 DUP6 PUSH2 0x4223 JUMP JUMPDEST SUB SWAP1 LOG1 PUSH2 0x39CE JUMP JUMPDEST PUSH2 0x3A51 PUSH2 0x398E PUSH2 0x3763 JUMP JUMPDEST ISZERO PUSH2 0x3A87 JUMPI PUSH32 0x5EE0B295C9621913D21A48FA7FA31ED6735BE2290A6CC08DACCD3DED9608B71F SWAP4 PUSH2 0x3A3E SWAP2 DUP8 MLOAD SWAP5 DUP6 SWAP5 DUP6 PUSH2 0x4223 JUMP JUMPDEST PUSH2 0x3A92 PUSH2 0x398E PUSH2 0x37C9 JUMP JUMPDEST ISZERO PUSH2 0x3AC8 JUMPI PUSH32 0x710392CF7E41003BD46ADF859A75DBF65BB541FE54B1C838BDCB1AA820B3E220 SWAP4 PUSH2 0x3A3E SWAP2 DUP8 MLOAD SWAP5 DUP6 SWAP5 DUP6 PUSH2 0x4223 JUMP JUMPDEST PUSH2 0x3AD3 PUSH2 0x398E PUSH2 0x3853 JUMP JUMPDEST ISZERO PUSH2 0x3B09 JUMPI PUSH32 0xCFDD1B71F2BA0269E6C149A8BE2F7D9B30119587686BA15809A877F00B509115 SWAP4 PUSH2 0x3A3E SWAP2 DUP8 MLOAD SWAP5 DUP6 SWAP5 DUP6 PUSH2 0x4223 JUMP JUMPDEST PUSH2 0x3B14 PUSH2 0x398E PUSH2 0x387F JUMP JUMPDEST PUSH2 0x3B22 JUMPI JUMPDEST POP POP POP POP PUSH2 0x39CE JUMP JUMPDEST PUSH32 0x5A7CDE9945DF01BF6C89A0ACBC121569BADA3B139ACBFA3E8B41538A225566B1 SWAP4 PUSH2 0x3B53 SWAP2 DUP8 MLOAD SWAP5 DUP6 SWAP5 DUP6 PUSH2 0x4223 JUMP JUMPDEST SUB SWAP1 LOG1 CODESIZE DUP1 DUP1 DUP1 PUSH2 0x3B19 JUMP JUMPDEST SWAP4 SWAP3 SWAP2 POP POP PUSH1 0x40 SWAP3 DUP4 MLOAD SWAP1 PUSH2 0x3B74 DUP6 DUP4 PUSH2 0x32B0 JUMP JUMPDEST PUSH1 0x7 DUP3 MSTORE PUSH7 0x53554343455353 PUSH1 0xC8 SHL PUSH1 0x20 DUP4 ADD MSTORE PUSH2 0x3B99 PUSH2 0x3B93 PUSH2 0x3595 JUMP JUMPDEST DUP3 PUSH2 0x426A JUMP JUMPDEST ISZERO PUSH2 0x3BD0 JUMPI PUSH2 0x39CA PUSH32 0x9221943055D762887FA3AD9D36E966BA8B8A13BBF34004AE031CDAA62B5C55E9 SWAP4 PUSH1 0x0 DUP8 MLOAD SWAP5 DUP6 SWAP5 DUP6 PUSH2 0x4223 JUMP JUMPDEST PUSH2 0x3BDB PUSH2 0x3B93 PUSH2 0x3828 JUMP JUMPDEST ISZERO PUSH2 0x3C12 JUMPI PUSH2 0x3A3E PUSH32 0x2DA02ED6E7D6C0954E91580E907A661BC17262B43B9B694497F741DB078717E2 SWAP4 PUSH1 0x0 DUP8 MLOAD SWAP5 DUP6 SWAP5 DUP6 PUSH2 0x4223 JUMP JUMPDEST PUSH2 0x3C1D PUSH2 0x3B93 PUSH2 0x3763 JUMP JUMPDEST ISZERO PUSH2 0x3C54 JUMPI PUSH2 0x3A3E PUSH32 0x5EE0B295C9621913D21A48FA7FA31ED6735BE2290A6CC08DACCD3DED9608B71F SWAP4 PUSH1 0x0 DUP8 MLOAD SWAP5 DUP6 SWAP5 DUP6 PUSH2 0x4223 JUMP JUMPDEST PUSH2 0x3C5F PUSH2 0x3B93 PUSH2 0x37C9 JUMP JUMPDEST ISZERO PUSH2 0x3C96 JUMPI PUSH2 0x3A3E PUSH32 0x710392CF7E41003BD46ADF859A75DBF65BB541FE54B1C838BDCB1AA820B3E220 SWAP4 PUSH1 0x0 DUP8 MLOAD SWAP5 DUP6 SWAP5 DUP6 PUSH2 0x4223 JUMP JUMPDEST PUSH2 0x3CA1 PUSH2 0x3B93 PUSH2 0x3853 JUMP JUMPDEST ISZERO PUSH2 0x3CD8 JUMPI PUSH2 0x3A3E PUSH32 0xCFDD1B71F2BA0269E6C149A8BE2F7D9B30119587686BA15809A877F00B509115 SWAP4 PUSH1 0x0 DUP8 MLOAD SWAP5 DUP6 SWAP5 DUP6 PUSH2 0x4223 JUMP JUMPDEST PUSH2 0x3CE3 PUSH2 0x3B93 PUSH2 0x387F JUMP JUMPDEST PUSH2 0x3CF0 JUMPI JUMPDEST POP POP POP PUSH2 0x39CE JUMP JUMPDEST PUSH2 0x3D22 PUSH32 0x5A7CDE9945DF01BF6C89A0ACBC121569BADA3B139ACBFA3E8B41538A225566B1 SWAP4 PUSH1 0x0 DUP8 MLOAD SWAP5 DUP6 SWAP5 DUP6 PUSH2 0x4223 JUMP JUMPDEST SUB SWAP1 LOG1 CODESIZE DUP1 DUP1 PUSH2 0x3CE8 JUMP JUMPDEST MLOAD PUSH2 0x3D37 JUMPI PUSH1 0x1 SWAP1 JUMP JUMPDEST PUSH1 0x0 SWAP1 JUMP JUMPDEST ISZERO PUSH2 0x3D43 JUMPI JUMP JUMPDEST PUSH1 0x40 MLOAD PUSH3 0x461BCD PUSH1 0xE5 SHL DUP2 MSTORE PUSH1 0x20 PUSH1 0x4 DUP3 ADD MSTORE PUSH1 0x2B PUSH1 0x24 DUP3 ADD MSTORE PUSH32 0x496E697469616C697A61626C653A20636F6E7472616374206973206E6F742069 PUSH1 0x44 DUP3 ADD MSTORE PUSH11 0x6E697469616C697A696E67 PUSH1 0xA8 SHL PUSH1 0x64 DUP3 ADD MSTORE PUSH1 0x84 SWAP1 REVERT JUMPDEST SWAP1 DUP2 SLOAD PUSH2 0x3DA8 DUP2 PUSH2 0x33EE JUMP JUMPDEST SWAP3 PUSH2 0x3DB6 PUSH1 0x40 MLOAD SWAP5 DUP6 PUSH2 0x32B0 JUMP JUMPDEST DUP2 DUP5 MSTORE PUSH1 0x20 DUP5 ADD SWAP1 PUSH1 0x0 MSTORE PUSH1 0x20 PUSH1 0x0 KECCAK256 PUSH1 0x0 SWAP2 JUMPDEST DUP4 DUP4 LT PUSH2 0x3DD7 JUMPI POP POP POP POP JUMP JUMPDEST PUSH1 0x1 PUSH1 0x20 DUP2 SWAP3 PUSH2 0x3DE6 DUP6 PUSH2 0x35C2 JUMP JUMPDEST DUP2 MSTORE ADD SWAP3 ADD SWAP3 ADD SWAP2 SWAP1 PUSH2 0x3DCA JUMP JUMPDEST PUSH1 0x20 PUSH2 0x3E25 SWAP2 PUSH1 0x60 DUP1 PUSH1 0x40 MLOAD PUSH2 0x3E09 DUP2 PUSH2 0x3279 JUMP JUMPDEST DUP2 DUP2 MSTORE DUP2 DUP6 DUP3 ADD MSTORE DUP2 PUSH1 0x40 DUP3 ADD MSTORE ADD MSTORE PUSH2 0x304 PUSH2 0x2FB DUP3 PUSH2 0x3D2D JUMP JUMPDEST DUP2 ADD PUSH1 0x6F DUP2 MSTORE SUB ADD SWAP1 KECCAK256 PUSH2 0x3E74 PUSH1 0x3 PUSH1 0x40 MLOAD SWAP3 PUSH2 0x3E41 DUP5 PUSH2 0x3279 JUMP JUMPDEST PUSH2 0x3E4A DUP2 PUSH2 0x35C2 JUMP JUMPDEST DUP5 MSTORE PUSH2 0x3E58 PUSH1 0x1 DUP3 ADD PUSH2 0x35C2 JUMP JUMPDEST PUSH1 0x20 DUP6 ADD MSTORE PUSH2 0x3E69 PUSH1 0x2 DUP3 ADD PUSH2 0x3D9C JUMP JUMPDEST PUSH1 0x40 DUP6 ADD MSTORE ADD PUSH2 0x3D9C JUMP JUMPDEST PUSH1 0x60 DUP3 ADD MSTORE SWAP1 JUMP JUMPDEST PUSH1 0x20 PUSH2 0x3EC2 SWAP2 PUSH1 0x60 PUSH1 0xC0 PUSH1 0x40 MLOAD PUSH2 0x3E92 DUP2 PUSH2 0x325E JUMP JUMPDEST DUP3 DUP2 MSTORE PUSH1 0x0 DUP6 DUP3 ADD MSTORE DUP3 PUSH1 0x40 DUP3 ADD MSTORE DUP3 DUP1 DUP3 ADD MSTORE PUSH1 0x0 PUSH1 0x80 DUP3 ADD MSTORE PUSH1 0x0 PUSH1 0xA0 DUP3 ADD MSTORE ADD MSTORE PUSH2 0x304 PUSH2 0x2FB DUP3 PUSH2 0x3D2D JUMP JUMPDEST DUP2 ADD PUSH1 0x6E DUP2 MSTORE SUB ADD SWAP1 KECCAK256 PUSH2 0x3F38 PUSH1 0x6 PUSH1 0x40 MLOAD SWAP3 PUSH2 0x3EDE DUP5 PUSH2 0x325E JUMP JUMPDEST PUSH2 0x3EE7 DUP2 PUSH2 0x3D9C JUMP JUMPDEST DUP5 MSTORE PUSH1 0x1 DUP2 ADD SLOAD PUSH1 0x20 DUP6 ADD MSTORE PUSH2 0x3EFF PUSH1 0x2 DUP3 ADD PUSH2 0x35C2 JUMP JUMPDEST PUSH1 0x40 DUP6 ADD MSTORE PUSH2 0x3F10 PUSH1 0x3 DUP3 ADD PUSH2 0x35C2 JUMP JUMPDEST PUSH1 0x60 DUP6 ADD MSTORE PUSH1 0x4 DUP2 ADD SLOAD PUSH1 0x1 PUSH1 0x1 PUSH1 0xA0 SHL SUB AND PUSH1 0x80 DUP6 ADD MSTORE PUSH1 0x5 DUP2 ADD SLOAD PUSH1 0xA0 DUP6 ADD MSTORE ADD PUSH2 0x35C2 JUMP JUMPDEST PUSH1 0xC0 DUP3 ADD MSTORE SWAP1 JUMP JUMPDEST PUSH1 0x40 MLOAD SWAP1 PUSH2 0x3F4D DUP3 PUSH2 0x325E JUMP JUMPDEST PUSH1 0x60 PUSH1 0xC0 DUP4 PUSH1 0x0 DUP2 MSTORE DUP3 PUSH1 0x20 DUP3 ADD MSTORE DUP3 PUSH1 0x40 DUP3 ADD MSTORE DUP3 DUP1 DUP3 ADD MSTORE DUP3 PUSH1 0x80 DUP3 ADD MSTORE DUP3 PUSH1 0xA0 DUP3 ADD MSTORE ADD MSTORE JUMP JUMPDEST PUSH1 0x20 PUSH2 0x3F92 SWAP2 PUSH2 0x3F85 PUSH2 0x3F40 JUMP JUMPDEST POP PUSH2 0x304 PUSH2 0x2FB DUP3 PUSH2 0x3D2D JUMP JUMPDEST DUP2 ADD PUSH1 0x6B DUP2 MSTORE SUB ADD SWAP1 KECCAK256 PUSH2 0x3F38 PUSH1 0x6 PUSH1 0x40 MLOAD SWAP3 PUSH2 0x3FAE DUP5 PUSH2 0x325E JUMP JUMPDEST DUP1 SLOAD PUSH1 0x1 PUSH1 0x1 PUSH1 0xA0 SHL SUB AND DUP5 MSTORE PUSH2 0x3FC7 PUSH1 0x1 DUP3 ADD PUSH2 0x35C2 JUMP JUMPDEST PUSH1 0x20 DUP6 ADD MSTORE PUSH2 0x3FD8 PUSH1 0x2 DUP3 ADD PUSH2 0x35C2 JUMP JUMPDEST PUSH1 0x40 DUP6 ADD MSTORE PUSH2 0x3FE9 PUSH1 0x3 DUP3 ADD PUSH2 0x35C2 JUMP JUMPDEST PUSH1 0x60 DUP6 ADD MSTORE PUSH2 0x3FFA PUSH1 0x4 DUP3 ADD PUSH2 0x35C2 JUMP JUMPDEST PUSH1 0x80 DUP6 ADD MSTORE PUSH2 0x400B PUSH1 0x5 DUP3 ADD PUSH2 0x35C2 JUMP JUMPDEST PUSH1 0xA0 DUP6 ADD MSTORE ADD PUSH2 0x35C2 JUMP JUMPDEST PUSH1 0x20 PUSH2 0x4064 SWAP2 PUSH1 0x0 PUSH1 0xE0 PUSH1 0x40 MLOAD PUSH2 0x402C DUP2 PUSH2 0x3294 JUMP JUMPDEST DUP3 DUP2 MSTORE PUSH1 0x60 DUP6 DUP3 ADD MSTORE PUSH1 0x60 PUSH1 0x40 DUP3 ADD MSTORE PUSH1 0x60 DUP1 DUP3 ADD MSTORE PUSH1 0x60 PUSH1 0x80 DUP3 ADD MSTORE DUP3 PUSH1 0xA0 DUP3 ADD MSTORE PUSH1 0x60 PUSH1 0xC0 DUP3 ADD MSTORE ADD MSTORE PUSH2 0x304 PUSH2 0x2FB DUP3 PUSH2 0x3D2D JUMP JUMPDEST DUP2 ADD PUSH1 0x6D DUP2 MSTORE SUB ADD SWAP1 KECCAK256 PUSH1 0x40 MLOAD SWAP1 PUSH2 0x407B DUP3 PUSH2 0x3294 JUMP JUMPDEST DUP1 SLOAD DUP3 MSTORE PUSH2 0x408B PUSH1 0x1 DUP3 ADD PUSH2 0x35C2 JUMP JUMPDEST PUSH1 0x20 DUP4 ADD MSTORE PUSH2 0x409C PUSH1 0x2 DUP3 ADD PUSH2 0x35C2 JUMP JUMPDEST PUSH1 0x40 DUP4 ADD MSTORE PUSH2 0x40AD PUSH1 0x3 DUP3 ADD PUSH2 0x35C2 JUMP JUMPDEST PUSH1 0x60 DUP4 ADD MSTORE PUSH2 0x40BE PUSH1 0x4 DUP3 ADD PUSH2 0x35C2 JUMP JUMPDEST PUSH1 0x80 DUP4 ADD MSTORE PUSH1 0x5 DUP2 ADD SLOAD PUSH1 0xA0 DUP4 ADD MSTORE PUSH2 0x40D9 PUSH1 0x6 DUP3 ADD PUSH2 0x35C2 JUMP JUMPDEST PUSH1 0xC0 DUP4 ADD MSTORE PUSH1 0x7 ADD SLOAD PUSH1 0x1 PUSH1 0x1 PUSH1 0xA0 SHL SUB AND PUSH1 0xE0 DUP3 ADD MSTORE SWAP1 JUMP JUMPDEST PUSH1 0x1 PUSH1 0x1 PUSH1 0xA0 SHL SUB SWAP2 DUP3 AND DUP2 MSTORE SWAP2 AND PUSH1 0x20 DUP3 ADD MSTORE PUSH1 0x40 DUP2 ADD SWAP2 SWAP1 SWAP2 MSTORE PUSH1 0x60 DUP2 ADD SWAP2 SWAP1 SWAP2 MSTORE PUSH1 0x80 ADD SWAP1 JUMP JUMPDEST PUSH1 0x20 PUSH2 0x4136 SWAP2 DUP2 PUSH1 0x40 MLOAD SWAP4 DUP3 DUP6 DUP1 SWAP5 MLOAD SWAP4 DUP5 SWAP3 ADD PUSH2 0x3333 JUMP JUMPDEST DUP2 ADD PUSH1 0x6A DUP2 MSTORE SUB ADD SWAP1 KECCAK256 SLOAD DUP1 PUSH1 0x68 SSTORE PUSH2 0x3392 PUSH2 0x4150 PUSH2 0x37F6 JUMP JUMPDEST DUP3 ISZERO ISZERO PUSH2 0x3565 JUMP JUMPDEST PUSH1 0x69 SLOAD PUSH1 0x40 MLOAD PUSH4 0x4C313AE7 PUSH1 0xE1 SHL PUSH1 0x20 DUP3 ADD SWAP1 DUP2 MSTORE PUSH1 0x1 PUSH1 0x1 PUSH1 0xA0 SHL SUB DUP1 DUP8 AND PUSH1 0x24 DUP5 ADD MSTORE PUSH1 0x44 DUP4 ADD DUP7 SWAP1 MSTORE SWAP5 SWAP6 SWAP4 SWAP5 PUSH1 0x0 SWAP4 DUP5 SWAP4 SWAP2 AND SWAP2 SWAP1 DUP4 SWAP1 PUSH2 0x41A0 DUP2 PUSH1 0x64 DUP2 ADD PUSH2 0x1F5 JUMP JUMPDEST MLOAD SWAP3 GAS CALL POP PUSH2 0x41AD PUSH2 0x34FA JUMP JUMPDEST PUSH1 0x20 DUP2 MLOAD SWAP2 DUP2 DUP1 DUP3 ADD SWAP4 DUP5 SWAP3 ADD ADD SUB SLT PUSH2 0x103 JUMPI DUP3 SWAP1 MLOAD LT ISZERO PUSH2 0x41D5 JUMPI JUMPDEST POP POP POP POP PUSH1 0x68 SLOAD SWAP1 JUMP JUMPDEST PUSH1 0x0 DUP1 SWAP5 SWAP4 PUSH2 0x420C DUP3 SWAP6 PUSH2 0x1F5 PUSH1 0x1 DUP1 PUSH1 0xA0 SHL SUB PUSH1 0x69 SLOAD AND SWAP7 PUSH1 0x40 MLOAD SWAP5 DUP6 SWAP4 PUSH1 0x20 DUP6 ADD SWAP9 PUSH4 0x2413534F PUSH1 0xE1 SHL DUP11 MSTORE PUSH1 0x24 DUP7 ADD PUSH2 0x40F3 JUMP JUMPDEST MLOAD SWAP3 GAS CALL POP PUSH2 0x4219 PUSH2 0x34FA JUMP JUMPDEST POP CODESIZE DUP1 DUP1 DUP1 PUSH2 0x41CB JUMP JUMPDEST SWAP1 PUSH1 0x60 SWAP3 PUSH2 0x4240 PUSH2 0x424E SWAP3 SWAP8 SWAP7 SWAP6 SWAP8 PUSH1 0x80 DUP6 MSTORE PUSH1 0x80 DUP6 ADD SWAP1 PUSH2 0x3356 JUMP JUMPDEST SWAP1 DUP4 DUP3 SUB PUSH1 0x20 DUP6 ADD MSTORE PUSH2 0x3356 JUMP JUMPDEST SWAP5 PUSH1 0x40 DUP3 ADD MSTORE ADD MSTORE JUMP JUMPDEST PUSH1 0x1 PUSH1 0x1 PUSH1 0xA0 SHL SUB AND PUSH2 0x3D37 JUMPI PUSH1 0x1 SWAP1 JUMP JUMPDEST PUSH1 0x40 MLOAD PUSH2 0x4298 PUSH1 0x20 DUP3 DUP2 PUSH2 0x4287 DUP2 DUP4 ADD SWAP7 DUP8 DUP2 MLOAD SWAP4 DUP5 SWAP3 ADD PUSH2 0x3333 JUMP JUMPDEST DUP2 ADD SUB ADD PUSH1 0x1F NOT DUP2 ADD DUP4 MSTORE DUP3 PUSH2 0x32B0 JUMP JUMPDEST MLOAD SWAP1 KECCAK256 SWAP1 PUSH1 0x40 MLOAD PUSH2 0x42B9 PUSH1 0x20 DUP3 DUP2 PUSH2 0x4287 DUP2 DUP4 ADD SWAP7 DUP8 DUP2 MLOAD SWAP4 DUP5 SWAP3 ADD PUSH2 0x3333 JUMP JUMPDEST MLOAD SWAP1 KECCAK256 EQ PUSH2 0x42C6 JUMPI PUSH1 0x0 SWAP1 JUMP JUMPDEST PUSH1 0x1 SWAP1 JUMP INVALID SWAP1 AND 0xD0 SWAP14 PUSH19 0xD40FDAE2FD8CEAC6B6234C7706214FD39C1CD1 0xE6 MULMOD LOG0 MSTORE DUP13 NOT SWAP4 STOP LOG2 PUSH5 0x6970667358 0x22 SLT KECCAK256 BLOBHASH SMOD 0xDF 0xD1 SWAP9 0xE3 0xBD 0xCD PREVRANDAO 0xCE 0xC8 0xE7 0xC4 SWAP6 MSIZE 0xBE 0xEF CODESIZE OR 0xEA 0xA9 SGT CHAINID MLOAD JUMPDEST PUSH9 0x55D6DC5CE17564736F PUSH13 0x634300081A0033000000000000 "},"methodIdentifiers":{"ACupOfTeaReady(string,uint256)":"e934262d","_initialize(address)":"319775c4","batchingHarvestByprocessor(string[],uint256,string,string,string)":"55b4bc02","getHarvestDetail(string)":"df742406","getOwner()":"893d20e8","getRegisteredTeaTokenPlayerDetail(string)":"5894b6e7","harvestByFarmer(string,string,string,string,string,string,uint256,string)":"ae725088","implementationAdd()":"b017dde9","mintTokenAdmin(uint256,string)":"011d3a94","owner()":"8da5cb5b","registerTeaTokenPlayers(string,string,string,string,string,string)":"139e8bc8","renounceOwnership()":"715018a6","teaPlacedInShelvesByRetailer(string)":"b60b02e1","teaTokenTrackingByTransporter(string,string,string[],string[])":"717d27e6","teaTokenTrackingHistoryFechByConsumer(string)":"42fc839b","transferOwnership(address)":"f2fde38b"}}}}}