{"contracts/proxy/ProxyImp.sol":{"ProxyImp":{"abi":[{"inputs":[],"stateMutability":"nonpayable","type":"constructor"},{"stateMutability":"payable","type":"fallback"},{"inputs":[],"name":"implementation","outputs":[{"internalType":"address","name":"","type":"address"}],"stateMutability":"view","type":"function"},{"inputs":[{"internalType":"address","name":"_implementation","type":"address"}],"name":"setImplementation","outputs":[],"stateMutability":"nonpayable","type":"function"}],"evm":{"bytecode":{"linkReferences":{},"object":"60808060405234602757603480546001600160a01b03191633179055610230908161002d8239f35b600080fdfe60806040526004361061016b5760003560e01c80635c60da1b146100a25763d784d4260361016b573461009d57602036600319011261009d576004356001600160a01b0381169081900361009d5761008760018060a01b036034541633146100656100df565b90722737ba1020baba3437b934bd32b2102ab9b2b960691b6020830152610108565b603380546001600160a01b031916919091179055005b600080fd5b3461009d57600036600319011261009d576033546001600160a01b03166080908152602090f35b634e487b7160e01b600052604160045260246000fd5b604051906040820182811067ffffffffffffffff8211176101035760405260138252565b6100c9565b156101105750565b6040519062461bcd60e51b8252602060048301528181519182602483015260005b8381106101535750508160006044809484010152601f80199101168101030190fd5b60208282018101516044878401015285935001610131565b60335460405160608101916001600160a01b031667ffffffffffffffff831182841017610103576101db600093928493604052602281527f4163636f756e74204e756d6265722073686f756c64206e6f7420626520656d70602082015261747960f01b6040820152821515610108565b6040513683823736915af43d6000803e156101f5573d6000f35b3d6000fdfea2646970667358221220e9a667dafe2cccae48a53147a34dac4771758f9bff883082140835756964541864736f6c634300081a0033","opcodes":"PUSH1 0x80 DUP1 PUSH1 0x40 MSTORE CALLVALUE PUSH1 0x27 JUMPI PUSH1 0x34 DUP1 SLOAD PUSH1 0x1 PUSH1 0x1 PUSH1 0xA0 SHL SUB NOT AND CALLER OR SWAP1 SSTORE PUSH2 0x230 SWAP1 DUP2 PUSH2 0x2D DUP3 CODECOPY RETURN JUMPDEST PUSH1 0x0 DUP1 REVERT INVALID PUSH1 0x80 PUSH1 0x40 MSTORE PUSH1 0x4 CALLDATASIZE LT PUSH2 0x16B JUMPI PUSH1 0x0 CALLDATALOAD PUSH1 0xE0 SHR DUP1 PUSH4 0x5C60DA1B EQ PUSH2 0xA2 JUMPI PUSH4 0xD784D426 SUB PUSH2 0x16B JUMPI CALLVALUE PUSH2 0x9D JUMPI PUSH1 0x20 CALLDATASIZE PUSH1 0x3 NOT ADD SLT PUSH2 0x9D JUMPI PUSH1 0x4 CALLDATALOAD PUSH1 0x1 PUSH1 0x1 PUSH1 0xA0 SHL SUB DUP2 AND SWAP1 DUP2 SWAP1 SUB PUSH2 0x9D JUMPI PUSH2 0x87 PUSH1 0x1 DUP1 PUSH1 0xA0 SHL SUB PUSH1 0x34 SLOAD AND CALLER EQ PUSH2 0x65 PUSH2 0xDF JUMP JUMPDEST SWAP1 PUSH19 0x2737BA1020BABA3437B934BD32B2102AB9B2B9 PUSH1 0x69 SHL PUSH1 0x20 DUP4 ADD MSTORE PUSH2 0x108 JUMP JUMPDEST PUSH1 0x33 DUP1 SLOAD PUSH1 0x1 PUSH1 0x1 PUSH1 0xA0 SHL SUB NOT AND SWAP2 SWAP1 SWAP2 OR SWAP1 SSTORE STOP JUMPDEST PUSH1 0x0 DUP1 REVERT JUMPDEST CALLVALUE PUSH2 0x9D JUMPI PUSH1 0x0 CALLDATASIZE PUSH1 0x3 NOT ADD SLT PUSH2 0x9D JUMPI PUSH1 0x33 SLOAD PUSH1 0x1 PUSH1 0x1 PUSH1 0xA0 SHL SUB AND PUSH1 0x80 SWAP1 DUP2 MSTORE PUSH1 0x20 SWAP1 RETURN JUMPDEST PUSH4 0x4E487B71 PUSH1 0xE0 SHL PUSH1 0x0 MSTORE PUSH1 0x41 PUSH1 0x4 MSTORE PUSH1 0x24 PUSH1 0x0 REVERT JUMPDEST PUSH1 0x40 MLOAD SWAP1 PUSH1 0x40 DUP3 ADD DUP3 DUP2 LT PUSH8 0xFFFFFFFFFFFFFFFF DUP3 GT OR PUSH2 0x103 JUMPI PUSH1 0x40 MSTORE PUSH1 0x13 DUP3 MSTORE JUMP JUMPDEST PUSH2 0xC9 JUMP JUMPDEST ISZERO PUSH2 0x110 JUMPI POP JUMP JUMPDEST PUSH1 0x40 MLOAD SWAP1 PUSH3 0x461BCD PUSH1 0xE5 SHL DUP3 MSTORE PUSH1 0x20 PUSH1 0x4 DUP4 ADD MSTORE DUP2 DUP2 MLOAD SWAP2 DUP3 PUSH1 0x24 DUP4 ADD MSTORE PUSH1 0x0 JUMPDEST DUP4 DUP2 LT PUSH2 0x153 JUMPI POP POP DUP2 PUSH1 0x0 PUSH1 0x44 DUP1 SWAP5 DUP5 ADD ADD MSTORE PUSH1 0x1F DUP1 NOT SWAP2 ADD AND DUP2 ADD SUB ADD SWAP1 REVERT JUMPDEST PUSH1 0x20 DUP3 DUP3 ADD DUP2 ADD MLOAD PUSH1 0x44 DUP8 DUP5 ADD ADD MSTORE DUP6 SWAP4 POP ADD PUSH2 0x131 JUMP JUMPDEST PUSH1 0x33 SLOAD PUSH1 0x40 MLOAD PUSH1 0x60 DUP2 ADD SWAP2 PUSH1 0x1 PUSH1 0x1 PUSH1 0xA0 SHL SUB AND PUSH8 0xFFFFFFFFFFFFFFFF DUP4 GT DUP3 DUP5 LT OR PUSH2 0x103 JUMPI PUSH2 0x1DB PUSH1 0x0 SWAP4 SWAP3 DUP5 SWAP4 PUSH1 0x40 MSTORE PUSH1 0x22 DUP2 MSTORE PUSH32 0x4163636F756E74204E756D6265722073686F756C64206E6F7420626520656D70 PUSH1 0x20 DUP3 ADD MSTORE PUSH2 0x7479 PUSH1 0xF0 SHL PUSH1 0x40 DUP3 ADD MSTORE DUP3 ISZERO ISZERO PUSH2 0x108 JUMP JUMPDEST PUSH1 0x40 MLOAD CALLDATASIZE DUP4 DUP3 CALLDATACOPY CALLDATASIZE SWAP2 GAS DELEGATECALL RETURNDATASIZE PUSH1 0x0 DUP1 RETURNDATACOPY ISZERO PUSH2 0x1F5 JUMPI RETURNDATASIZE PUSH1 0x0 RETURN JUMPDEST RETURNDATASIZE PUSH1 0x0 REVERT INVALID LOG2 PUSH5 0x6970667358 0x22 SLT KECCAK256 0xE9 0xA6 PUSH8 0xDAFE2CCCAE48A531 SELFBALANCE LOG3 0x4D 0xAC SELFBALANCE PUSH18 0x758F9BFF883082140835756964541864736F PUSH13 0x634300081A0033000000000000 "},"methodIdentifiers":{"implementation()":"5c60da1b","setImplementation(address)":"d784d426"}}}}}