{"contracts/MultiTeaContract.sol":{"MultiTeaContract":{"abi":[{"inputs":[],"stateMutability":"nonpayable","type":"constructor"},{"anonymous":false,"inputs":[{"indexed":true,"internalType":"address","name":"account","type":"address"},{"indexed":true,"internalType":"address","name":"operator","type":"address"},{"indexed":false,"internalType":"bool","name":"approved","type":"bool"}],"name":"ApprovalForAll","type":"event"},{"anonymous":false,"inputs":[{"indexed":false,"internalType":"string","name":"txnType","type":"string"},{"indexed":false,"internalType":"string","name":"txnStatus","type":"string"},{"indexed":false,"internalType":"address","name":"senderId","type":"address"},{"indexed":false,"internalType":"address","name":"receiverId","type":"address"},{"indexed":false,"internalType":"uint256","name":"quantity","type":"uint256"},{"indexed":false,"internalType":"uint256","name":"txnDate","type":"uint256"}],"name":"MintTeaTkn","type":"event"},{"anonymous":false,"inputs":[{"indexed":true,"internalType":"address","name":"operator","type":"address"},{"indexed":true,"internalType":"address","name":"from","type":"address"},{"indexed":true,"internalType":"address","name":"to","type":"address"},{"indexed":false,"internalType":"uint256[]","name":"ids","type":"uint256[]"},{"indexed":false,"internalType":"uint256[]","name":"values","type":"uint256[]"}],"name":"TransferBatch","type":"event"},{"anonymous":false,"inputs":[{"indexed":true,"internalType":"address","name":"operator","type":"address"},{"indexed":true,"internalType":"address","name":"from","type":"address"},{"indexed":true,"internalType":"address","name":"to","type":"address"},{"indexed":false,"internalType":"uint256","name":"id","type":"uint256"},{"indexed":false,"internalType":"uint256","name":"value","type":"uint256"}],"name":"TransferSingle","type":"event"},{"anonymous":false,"inputs":[{"indexed":false,"internalType":"string","name":"txnType","type":"string"},{"indexed":false,"internalType":"string","name":"txnStatus","type":"string"},{"indexed":false,"internalType":"address","name":"senderId","type":"address"},{"indexed":false,"internalType":"address","name":"receiverId","type":"address"},{"indexed":false,"internalType":"uint256","name":"quantity","type":"uint256"},{"indexed":false,"internalType":"uint256","name":"txnDate","type":"uint256"}],"name":"TransferTeaTkn","type":"event"},{"anonymous":false,"inputs":[{"indexed":false,"internalType":"string","name":"value","type":"string"},{"indexed":true,"internalType":"uint256","name":"id","type":"uint256"}],"name":"URI","type":"event"},{"inputs":[{"internalType":"address[]","name":"_accounts","type":"address[]"},{"internalType":"uint256[]","name":"_ids","type":"uint256[]"}],"name":"_balanceOfBatchTeaToken","outputs":[{"internalType":"uint256[]","name":"","type":"uint256[]"}],"stateMutability":"view","type":"function"},{"inputs":[{"internalType":"address","name":"_address","type":"address"},{"internalType":"uint256","name":"_id","type":"uint256"}],"name":"_balanceOfTeaToken","outputs":[{"internalType":"uint256","name":"","type":"uint256"}],"stateMutability":"view","type":"function"},{"inputs":[{"internalType":"address","name":"_account","type":"address"},{"internalType":"uint256","name":"_tokenId","type":"uint256"},{"internalType":"uint256","name":"_quantity","type":"uint256"}],"name":"_destroyTeaToken","outputs":[{"internalType":"uint256","name":"","type":"uint256"},{"internalType":"string","name":"","type":"string"}],"stateMutability":"nonpayable","type":"function"},{"inputs":[],"name":"_initialize","outputs":[],"stateMutability":"nonpayable","type":"function"},{"inputs":[{"internalType":"address","name":"_account","type":"address"},{"internalType":"uint256","name":"_tokenId","type":"uint256"},{"internalType":"uint256","name":"_quantity","type":"uint256"}],"name":"_mintTeaToken","outputs":[{"internalType":"uint256","name":"","type":"uint256"},{"internalType":"string","name":"","type":"string"}],"stateMutability":"nonpayable","type":"function"},{"inputs":[{"internalType":"address","name":"_from","type":"address"},{"internalType":"address","name":"_to","type":"address"},{"internalType":"uint256","name":"_id","type":"uint256"},{"internalType":"uint256","name":"_quantity","type":"uint256"}],"name":"_transferTeaToken","outputs":[{"internalType":"uint256","name":"","type":"uint256"},{"internalType":"string","name":"","type":"string"}],"stateMutability":"nonpayable","type":"function"},{"inputs":[],"name":"admin","outputs":[{"internalType":"address","name":"","type":"address"}],"stateMutability":"view","type":"function"},{"inputs":[{"internalType":"address","name":"account","type":"address"},{"internalType":"uint256","name":"id","type":"uint256"}],"name":"balanceOf","outputs":[{"internalType":"uint256","name":"","type":"uint256"}],"stateMutability":"view","type":"function"},{"inputs":[{"internalType":"address[]","name":"accounts","type":"address[]"},{"internalType":"uint256[]","name":"ids","type":"uint256[]"}],"name":"balanceOfBatch","outputs":[{"internalType":"uint256[]","name":"","type":"uint256[]"}],"stateMutability":"view","type":"function"},{"inputs":[],"name":"implementationAdd","outputs":[{"internalType":"address","name":"","type":"address"}],"stateMutability":"view","type":"function"},{"inputs":[{"internalType":"address","name":"account","type":"address"},{"internalType":"address","name":"operator","type":"address"}],"name":"isApprovedForAll","outputs":[{"internalType":"bool","name":"","type":"bool"}],"stateMutability":"view","type":"function"},{"inputs":[{"internalType":"address","name":"from","type":"address"},{"internalType":"address","name":"to","type":"address"},{"internalType":"uint256[]","name":"ids","type":"uint256[]"},{"internalType":"uint256[]","name":"amounts","type":"uint256[]"},{"internalType":"bytes","name":"data","type":"bytes"}],"name":"safeBatchTransferFrom","outputs":[],"stateMutability":"nonpayable","type":"function"},{"inputs":[{"internalType":"address","name":"from","type":"address"},{"internalType":"address","name":"to","type":"address"},{"internalType":"uint256","name":"id","type":"uint256"},{"internalType":"uint256","name":"amount","type":"uint256"},{"internalType":"bytes","name":"data","type":"bytes"}],"name":"safeTransferFrom","outputs":[],"stateMutability":"nonpayable","type":"function"},{"inputs":[{"internalType":"address","name":"operator","type":"address"},{"internalType":"bool","name":"approved","type":"bool"}],"name":"setApprovalForAll","outputs":[],"stateMutability":"nonpayable","type":"function"},{"inputs":[{"internalType":"bytes4","name":"interfaceId","type":"bytes4"}],"name":"supportsInterface","outputs":[{"internalType":"bool","name":"","type":"bool"}],"stateMutability":"view","type":"function"},{"inputs":[{"internalType":"uint256","name":"","type":"uint256"}],"name":"uri","outputs":[{"internalType":"string","name":"","type":"string"}],"stateMutability":"view","type":"function"}],"evm":{"bytecode":{"linkReferences":{},"object":"608080604052346015576118aa908161001b8239f35b600080fdfe6080604052600436101561001257600080fd5b60003560e01c8062fdd58e14610f4c57806301ffc9a714610ede5780630e89341c14610dfd5780632eb2c2d6146109f3578063457e3ef8146108655780634826a69e1461071f5780634e1273f41461070557806380ae4ebc146105a557806393535a3814610518578063986275ce146104c2578063a22cb465146103de578063b017dde9146103b5578063cb25897c14610281578063e985e9c514610226578063f242432a146100f95763f851a440146100cb57600080fd5b346100f45760003660031901126100f45760ca546040516001600160a01b039091168152602090f35b600080fd5b346100f45760a03660031901126100f457610112610f73565b61011a610f89565b604435606435926084356001600160401b0381116100f45761014090369060040161107c565b506001600160a01b0316913283148015610203575b61015e906112bc565b6001600160a01b0316926101738415156114cc565b61017c8261177c565b506101868161177c565b508160005260cb6020526040600020836000526020526040600020546101ae82821015611526565b600083815260cb60209081526040808320878452909152808220928490039092558581522080546101e0908390611585565b9055604051918252602082015260008051602061185583398151915260403292a4005b50600083815260986020908152604080832032845290915290205460ff16610155565b346100f45760403660031901126100f45761023f610f73565b610247610f89565b9060018060a01b0316600052609860205260406000209060018060a01b0316600052602052602060ff604060002054166040519015158152f35b346100f45761028f366110d2565b6001600160a01b038316801593928415806103ac575b806103a3575b6102bd906102b761131f565b9061135a565b60209460006040516102cf8882610fe7565b52610354578083610340966102e560009461177c565b506102ef8261177c565b5082845260cb81526040842085855281526040842061030f838254611585565b905560405192835282015260008051602061185583398151915260403292a4610336611362565b91429233906115a8565b90610350604051928392836110fc565b0390f35b60405162461bcd60e51b815260048101869052602160248201527f455243313135353a206d696e7420746f20746865207a65726f206164647265736044820152607360f81b6064820152608490fd5b508015156102ab565b508215156102a5565b346100f45760003660031901126100f45760c9546040516001600160a01b039091168152602090f35b346100f45760403660031901126100f4576103f7610f73565b602435908115158092036100f4576001600160a01b03169032821461046b57326000526098602052604060002082600052602052604060002060ff1981541660ff83161790556040519081527f17307eab39ab6107e8899845ad3d59bd9653f200f220920489ca2b5937696c3160203292a3005b60405162461bcd60e51b815260206004820152602960248201527f455243313135353a2073657474696e6720617070726f76616c20737461747573604482015268103337b91039b2b63360b91b6064820152608490fd5b346100f45760403660031901126100f45760206105076104e0610f73565b602435906001600160a01b03811615158061050f575b610502906102b761131f565b6111f5565b604051908152f35b508115156104f6565b346100f45761052636611116565b908051825103610551576103509161053d916113ea565b6040519182916020835260208301906111c1565b60405162461bcd60e51b815260206004820152602660248201527f455243313135353a206163636f756e7473206c656e6774682063616e2774206260448201526565207a65726f60d01b6064820152608490fd5b346100f45760003660031901126100f45760405160206105c58183610fe7565b600082526105e360ff60005460081c166105de816116a9565b6116a9565b8151906001600160401b0382116106ef576105ff609954611282565b601f81116106a8575b5080601f831160011461064457508192600092610639575b5050600019600383901b1c191660019190911b17609955005b015190508280610620565b90601f19831693609960005282600020926000905b8682106106905750508360019510610677575b505050811b01609955005b015160001960f88460031b161c1916905582808061066c565b80600185968294968601518155019501930190610659565b609960005281600020601f840160051c8101918385106106e5575b601f0160051c01905b8181106106d95750610608565b600081556001016106cc565b90915081906106c3565b634e487b7160e01b600052604160045260246000fd5b346100f45761035061053d61071936611116565b906113ea565b346100f45760803660031901126100f45761034061073b610f73565b610743610f89565b9060643590604435906001600160a01b031680151580610853575b8061084a575b80610841575b610776906102b761131f565b60209160006040516107888582610fe7565b526001600160a01b0385169284906107a18515156114cc565b6107aa8361177c565b506107b48261177c565b508260005260cb815260406000208460005281526040600020546107da83821015611526565b8360005260cb82526040600020856000528252826040600020910390558260005260cb81526040600020856000528152604060002061081a838254611585565b905560405192835282015260008051602061185583398151915260403292a461033661138f565b5082151561076a565b50811515610764565b506001600160a01b038416151561075e565b346100f457610873366110d2565b9091906001600160a01b03821680158015806109ea575b806109e1575b61089c906102b761131f565b610990576108a98461177c565b506108b38261177c565b5060209360006040516108c68782610fe7565b528060005260978552604060002082600052855260406000205483811061093f576000928284926103409894845260978552604084208385528552866040852091039055604051908152858482015260008051602061185583398151915260403292a46109366040519182610fe7565b52610336611362565b60405162461bcd60e51b8152600481018790526024808201527f455243313135353a206275726e20616d6f756e7420657863656564732062616c604482015263616e636560e01b6064820152608490fd5b60405162461bcd60e51b815260206004820152602360248201527f455243313135353a206275726e2066726f6d20746865207a65726f206164647260448201526265737360e81b6064820152608490fd5b50841515610890565b5082151561088a565b346100f45760a03660031901126100f457610a0c610f73565b610a14610f89565b6044356001600160401b0381116100f457610a3390369060040161101f565b6064356001600160401b0381116100f457610a5290369060040161101f565b926084356001600160401b0381116100f457610a7290369060040161107c565b6001600160a01b03909116913283148015610dda575b610a91906112bc565b8051855103610d84576001600160a01b03841691610ab08315156114cc565b60005b8251811015610b375780610ac9600192856113c0565b51610ad4828a6113c0565b51908060005260976020526040806000206000908a82526020522054610afc83821015611526565b60009182526097602090815260408084208b855290915280832091849003909155878252902080549091610b2f91611585565b905501610ab3565b50938284604051604081527f4a39dc06d4c0dbc64b70af90fd698a233a518aa5d07e595d983b8c0526c8f7fb610b7060408301876111c1565b91808303602082015280610b8532948d6111c1565b0390a43b610b8f57005b6000610bce93610bf2602096610be0604051998a988997889663bc197c8160e01b8852326004890152602488015260a0604488015260a48701906111c1565b858103600319016064870152906111c1565b83810360031901608485015290610fc2565b03925af18091600091610d3a575b5090610ccb57600060033d11610cb9575b6308c379a014610c7e575b60405162461bcd60e51b815260206004820152603460248201527f455243313135353a207472616e7366657220746f206e6f6e2d455243313135356044820152732932b1b2b4bb32b91034b6b83632b6b2b73a32b960611b6064820152608490fd5b610c86611709565b80610c915750610c1c565b60405162461bcd60e51b815260206004820152908190610cb5906024830190610fc2565b0390fd5b5060046000803e60005160e01c610c11565b6001600160e01b0319166343e6837f60e01b01610ce457005b60405162461bcd60e51b815260206004820152602860248201527f455243313135353a204552433131353552656365697665722072656a656374656044820152676420746f6b656e7360c01b6064820152608490fd5b6020813d602011610d7c575b81610d5360209383610fe7565b81010312610d785751906001600160e01b031982168203610d75575082610c00565b80fd5b5080fd5b3d9150610d46565b60405162461bcd60e51b815260206004820152602860248201527f455243313135353a2069647320616e6420616d6f756e7473206c656e677468206044820152670dad2e6dac2e8c6d60c31b6064820152608490fd5b50600083815260986020908152604080832032845290915290205460ff16610a88565b346100f45760203660031901126100f4576040516000609954610e1f81611282565b8084529060018116908115610eba5750600114610e5b575b61035083610e4781850382610fe7565b604051918291602083526020830190610fc2565b609960009081527f72a152ddfb8e864297c917af52ea6c1c68aead0fee1a62673fcc7e0c94979d00939250905b808210610ea057509091508101602001610e47610e37565b919260018160209254838588010152019101909291610e88565b60ff191660208086019190915291151560051b84019091019150610e479050610e37565b346100f45760203660031901126100f45760043563ffffffff60e01b81168091036100f457602090636cdb3d1360e11b8114908115610f3b575b8115610f2a575b506040519015158152f35b6301ffc9a760e01b14905082610f1f565b6303a24d0760e21b81149150610f18565b346100f45760403660031901126100f4576020610507610f6a610f73565b602435906111f5565b600435906001600160a01b03821682036100f457565b602435906001600160a01b03821682036100f457565b60005b838110610fb25750506000910152565b8181015183820152602001610fa2565b90602091610fdb81518092818552858086019101610f9f565b601f01601f1916010190565b90601f801991011681019081106001600160401b038211176106ef57604052565b6001600160401b0381116106ef5760051b60200190565b9080601f830112156100f457813561103681611008565b926110446040519485610fe7565b81845260208085019260051b8201019283116100f457602001905b82821061106c5750505090565b813581526020918201910161105f565b81601f820112156100f4578035906001600160401b0382116106ef57604051926110b0601f8401601f191660200185610fe7565b828452602083830101116100f457816000926020809301838601378301015290565b60609060031901126100f4576004356001600160a01b03811681036100f457906024359060443590565b604090611113939281528160208201520190610fc2565b90565b9060406003198301126100f4576004356001600160401b0381116100f457826023820112156100f457806004013561114d81611008565b9161115b6040519384610fe7565b8183526024602084019260051b820101908582116100f457602401915b8183106111a15750505091602435906001600160401b0382116100f4576111139160040161101f565b82356001600160a01b03811681036100f457815260209283019201611178565b906020808351928381520192019060005b8181106111df5750505090565b82518452602093840193909201916001016111d2565b906001600160a01b0382161561122a5760005260cb60205260406000209060018060a01b031660005260205260406000205490565b60405162461bcd60e51b815260206004820152602a60248201527f455243313135353a2061646472657373207a65726f206973206e6f742061207660448201526930b634b21037bbb732b960b11b6064820152608490fd5b90600182811c921680156112b2575b602083101461129c57565b634e487b7160e01b600052602260045260246000fd5b91607f1691611291565b156112c357565b60405162461bcd60e51b815260206004820152602e60248201527f455243313135353a2063616c6c6572206973206e6f7420746f6b656e206f776e60448201526d195c881bdc88185c1c1c9bdd995960921b6064820152608490fd5b6040519061132e604083610fe7565b601c82527f4e6f2076616c75652073686f756c64206e6f74206265205a65726f2e000000006020830152565b15610c915750565b60405190611371604083610fe7565b600f82526e151150481513d2d15394c813525395608a1b6020830152565b6040519061139e604083610fe7565b60138252722a22a0902a27a5a2a729902a2920a729a322a960691b6020830152565b80518210156113d45760209160051b010190565b634e487b7160e01b600052603260045260246000fd5b91909180518351036114755780519061140282611008565b916114106040519384610fe7565b80835261141f601f1991611008565b0136602084013760005b815181101561146e5760019061145d6001600160a01b0361144a83866113c0565b511661145683896113c0565b51906111f5565b61146782866113c0565b5201611429565b5090925050565b60405162461bcd60e51b815260206004820152602960248201527f455243313135353a206163636f756e747320616e6420696473206c656e677468604482015268040dad2e6dac2e8c6d60bb1b6064820152608490fd5b156114d357565b60405162461bcd60e51b815260206004820152602560248201527f455243313135353a207472616e7366657220746f20746865207a65726f206164604482015264647265737360d81b6064820152608490fd5b1561152d57565b60405162461bcd60e51b815260206004820152602a60248201527f455243313135353a20696e73756666696369656e742062616c616e636520666f60448201526939103a3930b739b332b960b11b6064820152608490fd5b9190820180921161159257565b634e487b7160e01b600052601160045260246000fd5b90919294936040958651936115bd8886610fe7565b60078552665355434345535360c81b60208601526115e26115dc611362565b856117f3565b1561164d57907f3142fcbe227bc92f10fced29f317ca3c2f4163f46d7b64f988a6485dc210def39561161a93928951968796876117a7565b0390a15b61162a82519283610fe7565b601082526f5472616e73666572205375636365737360801b602083015260339190565b919061165a6115dc61138f565b61166a575b50505050505061161e565b7fc444fe7d48a24aa63a770b0ab4797132cbe097e5dce205425c8a1153234c66879561169b938951968796876117a7565b0390a138808080808061165f565b156116b057565b60405162461bcd60e51b815260206004820152602b60248201527f496e697469616c697a61626c653a20636f6e7472616374206973206e6f74206960448201526a6e697469616c697a696e6760a81b6064820152608490fd5b600060443d10611113576040513d600319016004823e8051913d60248401116001600160401b0384111761177657828201928351916001600160401b03831161176e573d8401600319018584016020011161176e575061111392910160200190610fe7565b949350505050565b92915050565b60409081519161178c8184610fe7565b600183526020830190601f19013682378251156113d4575290565b92969594916117d3906117c560a0969360c0875260c0870190610fc2565b908582036020870152610fc2565b6000196001861b0197881660408501529616606083015260808201520152565b604051611821602082816118108183019687815193849201610f9f565b81010301601f198101835282610fe7565b51902090604051611842602082816118108183019687815193849201610f9f565b5190201461184f57600090565b60019056fec3d58168c5ae7397731d063d5bbf3d657854427343f4c083240f7aacaa2d0f62a2646970667358221220593fab13ebb977efd8dbfda833db2d875841f84b87fca10bad1ccee975d4555c64736f6c634300081a0033","opcodes":"PUSH1 0x80 DUP1 PUSH1 0x40 MSTORE CALLVALUE PUSH1 0x15 JUMPI PUSH2 0x18AA SWAP1 DUP2 PUSH2 0x1B DUP3 CODECOPY RETURN JUMPDEST PUSH1 0x0 DUP1 REVERT INVALID PUSH1 0x80 PUSH1 0x40 MSTORE PUSH1 0x4 CALLDATASIZE LT ISZERO PUSH2 0x12 JUMPI PUSH1 0x0 DUP1 REVERT JUMPDEST PUSH1 0x0 CALLDATALOAD PUSH1 0xE0 SHR DUP1 PUSH3 0xFDD58E EQ PUSH2 0xF4C JUMPI DUP1 PUSH4 0x1FFC9A7 EQ PUSH2 0xEDE JUMPI DUP1 PUSH4 0xE89341C EQ PUSH2 0xDFD JUMPI DUP1 PUSH4 0x2EB2C2D6 EQ PUSH2 0x9F3 JUMPI DUP1 PUSH4 0x457E3EF8 EQ PUSH2 0x865 JUMPI DUP1 PUSH4 0x4826A69E EQ PUSH2 0x71F JUMPI DUP1 PUSH4 0x4E1273F4 EQ PUSH2 0x705 JUMPI DUP1 PUSH4 0x80AE4EBC EQ PUSH2 0x5A5 JUMPI DUP1 PUSH4 0x93535A38 EQ PUSH2 0x518 JUMPI DUP1 PUSH4 0x986275CE EQ PUSH2 0x4C2 JUMPI DUP1 PUSH4 0xA22CB465 EQ PUSH2 0x3DE JUMPI DUP1 PUSH4 0xB017DDE9 EQ PUSH2 0x3B5 JUMPI DUP1 PUSH4 0xCB25897C EQ PUSH2 0x281 JUMPI DUP1 PUSH4 0xE985E9C5 EQ PUSH2 0x226 JUMPI DUP1 PUSH4 0xF242432A EQ PUSH2 0xF9 JUMPI PUSH4 0xF851A440 EQ PUSH2 0xCB JUMPI PUSH1 0x0 DUP1 REVERT JUMPDEST CALLVALUE PUSH2 0xF4 JUMPI PUSH1 0x0 CALLDATASIZE PUSH1 0x3 NOT ADD SLT PUSH2 0xF4 JUMPI PUSH1 0xCA SLOAD PUSH1 0x40 MLOAD PUSH1 0x1 PUSH1 0x1 PUSH1 0xA0 SHL SUB SWAP1 SWAP2 AND DUP2 MSTORE PUSH1 0x20 SWAP1 RETURN JUMPDEST PUSH1 0x0 DUP1 REVERT JUMPDEST CALLVALUE PUSH2 0xF4 JUMPI PUSH1 0xA0 CALLDATASIZE PUSH1 0x3 NOT ADD SLT PUSH2 0xF4 JUMPI PUSH2 0x112 PUSH2 0xF73 JUMP JUMPDEST PUSH2 0x11A PUSH2 0xF89 JUMP JUMPDEST PUSH1 0x44 CALLDATALOAD PUSH1 0x64 CALLDATALOAD SWAP3 PUSH1 0x84 CALLDATALOAD PUSH1 0x1 PUSH1 0x1 PUSH1 0x40 SHL SUB DUP2 GT PUSH2 0xF4 JUMPI PUSH2 0x140 SWAP1 CALLDATASIZE SWAP1 PUSH1 0x4 ADD PUSH2 0x107C JUMP JUMPDEST POP PUSH1 0x1 PUSH1 0x1 PUSH1 0xA0 SHL SUB AND SWAP2 ORIGIN DUP4 EQ DUP1 ISZERO PUSH2 0x203 JUMPI JUMPDEST PUSH2 0x15E SWAP1 PUSH2 0x12BC JUMP JUMPDEST PUSH1 0x1 PUSH1 0x1 PUSH1 0xA0 SHL SUB AND SWAP3 PUSH2 0x173 DUP5 ISZERO ISZERO PUSH2 0x14CC JUMP JUMPDEST PUSH2 0x17C DUP3 PUSH2 0x177C JUMP JUMPDEST POP PUSH2 0x186 DUP2 PUSH2 0x177C JUMP JUMPDEST POP DUP2 PUSH1 0x0 MSTORE PUSH1 0xCB PUSH1 0x20 MSTORE PUSH1 0x40 PUSH1 0x0 KECCAK256 DUP4 PUSH1 0x0 MSTORE PUSH1 0x20 MSTORE PUSH1 0x40 PUSH1 0x0 KECCAK256 SLOAD PUSH2 0x1AE DUP3 DUP3 LT ISZERO PUSH2 0x1526 JUMP JUMPDEST PUSH1 0x0 DUP4 DUP2 MSTORE PUSH1 0xCB PUSH1 0x20 SWAP1 DUP2 MSTORE PUSH1 0x40 DUP1 DUP4 KECCAK256 DUP8 DUP5 MSTORE SWAP1 SWAP2 MSTORE DUP1 DUP3 KECCAK256 SWAP3 DUP5 SWAP1 SUB SWAP1 SWAP3 SSTORE DUP6 DUP2 MSTORE KECCAK256 DUP1 SLOAD PUSH2 0x1E0 SWAP1 DUP4 SWAP1 PUSH2 0x1585 JUMP JUMPDEST SWAP1 SSTORE PUSH1 0x40 MLOAD SWAP2 DUP3 MSTORE PUSH1 0x20 DUP3 ADD MSTORE PUSH1 0x0 DUP1 MLOAD PUSH1 0x20 PUSH2 0x1855 DUP4 CODECOPY DUP2 MLOAD SWAP2 MSTORE PUSH1 0x40 ORIGIN SWAP3 LOG4 STOP JUMPDEST POP PUSH1 0x0 DUP4 DUP2 MSTORE PUSH1 0x98 PUSH1 0x20 SWAP1 DUP2 MSTORE PUSH1 0x40 DUP1 DUP4 KECCAK256 ORIGIN DUP5 MSTORE SWAP1 SWAP2 MSTORE SWAP1 KECCAK256 SLOAD PUSH1 0xFF AND PUSH2 0x155 JUMP JUMPDEST CALLVALUE PUSH2 0xF4 JUMPI PUSH1 0x40 CALLDATASIZE PUSH1 0x3 NOT ADD SLT PUSH2 0xF4 JUMPI PUSH2 0x23F PUSH2 0xF73 JUMP JUMPDEST PUSH2 0x247 PUSH2 0xF89 JUMP JUMPDEST SWAP1 PUSH1 0x1 DUP1 PUSH1 0xA0 SHL SUB AND PUSH1 0x0 MSTORE PUSH1 0x98 PUSH1 0x20 MSTORE PUSH1 0x40 PUSH1 0x0 KECCAK256 SWAP1 PUSH1 0x1 DUP1 PUSH1 0xA0 SHL SUB AND PUSH1 0x0 MSTORE PUSH1 0x20 MSTORE PUSH1 0x20 PUSH1 0xFF PUSH1 0x40 PUSH1 0x0 KECCAK256 SLOAD AND PUSH1 0x40 MLOAD SWAP1 ISZERO ISZERO DUP2 MSTORE RETURN JUMPDEST CALLVALUE PUSH2 0xF4 JUMPI PUSH2 0x28F CALLDATASIZE PUSH2 0x10D2 JUMP JUMPDEST PUSH1 0x1 PUSH1 0x1 PUSH1 0xA0 SHL SUB DUP4 AND DUP1 ISZERO SWAP4 SWAP3 DUP5 ISZERO DUP1 PUSH2 0x3AC JUMPI JUMPDEST DUP1 PUSH2 0x3A3 JUMPI JUMPDEST PUSH2 0x2BD SWAP1 PUSH2 0x2B7 PUSH2 0x131F JUMP JUMPDEST SWAP1 PUSH2 0x135A JUMP JUMPDEST PUSH1 0x20 SWAP5 PUSH1 0x0 PUSH1 0x40 MLOAD PUSH2 0x2CF DUP9 DUP3 PUSH2 0xFE7 JUMP JUMPDEST MSTORE PUSH2 0x354 JUMPI DUP1 DUP4 PUSH2 0x340 SWAP7 PUSH2 0x2E5 PUSH1 0x0 SWAP5 PUSH2 0x177C JUMP JUMPDEST POP PUSH2 0x2EF DUP3 PUSH2 0x177C JUMP JUMPDEST POP DUP3 DUP5 MSTORE PUSH1 0xCB DUP2 MSTORE PUSH1 0x40 DUP5 KECCAK256 DUP6 DUP6 MSTORE DUP2 MSTORE PUSH1 0x40 DUP5 KECCAK256 PUSH2 0x30F DUP4 DUP3 SLOAD PUSH2 0x1585 JUMP JUMPDEST SWAP1 SSTORE PUSH1 0x40 MLOAD SWAP3 DUP4 MSTORE DUP3 ADD MSTORE PUSH1 0x0 DUP1 MLOAD PUSH1 0x20 PUSH2 0x1855 DUP4 CODECOPY DUP2 MLOAD SWAP2 MSTORE PUSH1 0x40 ORIGIN SWAP3 LOG4 PUSH2 0x336 PUSH2 0x1362 JUMP JUMPDEST SWAP2 TIMESTAMP SWAP3 CALLER SWAP1 PUSH2 0x15A8 JUMP JUMPDEST SWAP1 PUSH2 0x350 PUSH1 0x40 MLOAD SWAP3 DUP4 SWAP3 DUP4 PUSH2 0x10FC JUMP JUMPDEST SUB SWAP1 RETURN JUMPDEST PUSH1 0x40 MLOAD PUSH3 0x461BCD PUSH1 0xE5 SHL DUP2 MSTORE PUSH1 0x4 DUP2 ADD DUP7 SWAP1 MSTORE PUSH1 0x21 PUSH1 0x24 DUP3 ADD MSTORE PUSH32 0x455243313135353A206D696E7420746F20746865207A65726F20616464726573 PUSH1 0x44 DUP3 ADD MSTORE PUSH1 0x73 PUSH1 0xF8 SHL PUSH1 0x64 DUP3 ADD MSTORE PUSH1 0x84 SWAP1 REVERT JUMPDEST POP DUP1 ISZERO ISZERO PUSH2 0x2AB JUMP JUMPDEST POP DUP3 ISZERO ISZERO PUSH2 0x2A5 JUMP JUMPDEST CALLVALUE PUSH2 0xF4 JUMPI PUSH1 0x0 CALLDATASIZE PUSH1 0x3 NOT ADD SLT PUSH2 0xF4 JUMPI PUSH1 0xC9 SLOAD PUSH1 0x40 MLOAD PUSH1 0x1 PUSH1 0x1 PUSH1 0xA0 SHL SUB SWAP1 SWAP2 AND DUP2 MSTORE PUSH1 0x20 SWAP1 RETURN JUMPDEST CALLVALUE PUSH2 0xF4 JUMPI PUSH1 0x40 CALLDATASIZE PUSH1 0x3 NOT ADD SLT PUSH2 0xF4 JUMPI PUSH2 0x3F7 PUSH2 0xF73 JUMP JUMPDEST PUSH1 0x24 CALLDATALOAD SWAP1 DUP2 ISZERO ISZERO DUP1 SWAP3 SUB PUSH2 0xF4 JUMPI PUSH1 0x1 PUSH1 0x1 PUSH1 0xA0 SHL SUB AND SWAP1 ORIGIN DUP3 EQ PUSH2 0x46B JUMPI ORIGIN PUSH1 0x0 MSTORE PUSH1 0x98 PUSH1 0x20 MSTORE PUSH1 0x40 PUSH1 0x0 KECCAK256 DUP3 PUSH1 0x0 MSTORE PUSH1 0x20 MSTORE PUSH1 0x40 PUSH1 0x0 KECCAK256 PUSH1 0xFF NOT DUP2 SLOAD AND PUSH1 0xFF DUP4 AND OR SWAP1 SSTORE PUSH1 0x40 MLOAD SWAP1 DUP2 MSTORE PUSH32 0x17307EAB39AB6107E8899845AD3D59BD9653F200F220920489CA2B5937696C31 PUSH1 0x20 ORIGIN SWAP3 LOG3 STOP JUMPDEST PUSH1 0x40 MLOAD PUSH3 0x461BCD PUSH1 0xE5 SHL DUP2 MSTORE PUSH1 0x20 PUSH1 0x4 DUP3 ADD MSTORE PUSH1 0x29 PUSH1 0x24 DUP3 ADD MSTORE PUSH32 0x455243313135353A2073657474696E6720617070726F76616C20737461747573 PUSH1 0x44 DUP3 ADD MSTORE PUSH9 0x103337B91039B2B633 PUSH1 0xB9 SHL PUSH1 0x64 DUP3 ADD MSTORE PUSH1 0x84 SWAP1 REVERT JUMPDEST CALLVALUE PUSH2 0xF4 JUMPI PUSH1 0x40 CALLDATASIZE PUSH1 0x3 NOT ADD SLT PUSH2 0xF4 JUMPI PUSH1 0x20 PUSH2 0x507 PUSH2 0x4E0 PUSH2 0xF73 JUMP JUMPDEST PUSH1 0x24 CALLDATALOAD SWAP1 PUSH1 0x1 PUSH1 0x1 PUSH1 0xA0 SHL SUB DUP2 AND ISZERO ISZERO DUP1 PUSH2 0x50F JUMPI JUMPDEST PUSH2 0x502 SWAP1 PUSH2 0x2B7 PUSH2 0x131F JUMP JUMPDEST PUSH2 0x11F5 JUMP JUMPDEST PUSH1 0x40 MLOAD SWAP1 DUP2 MSTORE RETURN JUMPDEST POP DUP2 ISZERO ISZERO PUSH2 0x4F6 JUMP JUMPDEST CALLVALUE PUSH2 0xF4 JUMPI PUSH2 0x526 CALLDATASIZE PUSH2 0x1116 JUMP JUMPDEST SWAP1 DUP1 MLOAD DUP3 MLOAD SUB PUSH2 0x551 JUMPI PUSH2 0x350 SWAP2 PUSH2 0x53D SWAP2 PUSH2 0x13EA JUMP JUMPDEST PUSH1 0x40 MLOAD SWAP2 DUP3 SWAP2 PUSH1 0x20 DUP4 MSTORE PUSH1 0x20 DUP4 ADD SWAP1 PUSH2 0x11C1 JUMP JUMPDEST PUSH1 0x40 MLOAD PUSH3 0x461BCD PUSH1 0xE5 SHL DUP2 MSTORE PUSH1 0x20 PUSH1 0x4 DUP3 ADD MSTORE PUSH1 0x26 PUSH1 0x24 DUP3 ADD MSTORE PUSH32 0x455243313135353A206163636F756E7473206C656E6774682063616E27742062 PUSH1 0x44 DUP3 ADD MSTORE PUSH6 0x65207A65726F PUSH1 0xD0 SHL PUSH1 0x64 DUP3 ADD MSTORE PUSH1 0x84 SWAP1 REVERT JUMPDEST CALLVALUE PUSH2 0xF4 JUMPI PUSH1 0x0 CALLDATASIZE PUSH1 0x3 NOT ADD SLT PUSH2 0xF4 JUMPI PUSH1 0x40 MLOAD PUSH1 0x20 PUSH2 0x5C5 DUP2 DUP4 PUSH2 0xFE7 JUMP JUMPDEST PUSH1 0x0 DUP3 MSTORE PUSH2 0x5E3 PUSH1 0xFF PUSH1 0x0 SLOAD PUSH1 0x8 SHR AND PUSH2 0x5DE DUP2 PUSH2 0x16A9 JUMP JUMPDEST PUSH2 0x16A9 JUMP JUMPDEST DUP2 MLOAD SWAP1 PUSH1 0x1 PUSH1 0x1 PUSH1 0x40 SHL SUB DUP3 GT PUSH2 0x6EF JUMPI PUSH2 0x5FF PUSH1 0x99 SLOAD PUSH2 0x1282 JUMP JUMPDEST PUSH1 0x1F DUP2 GT PUSH2 0x6A8 JUMPI JUMPDEST POP DUP1 PUSH1 0x1F DUP4 GT PUSH1 0x1 EQ PUSH2 0x644 JUMPI POP DUP2 SWAP3 PUSH1 0x0 SWAP3 PUSH2 0x639 JUMPI JUMPDEST POP POP PUSH1 0x0 NOT PUSH1 0x3 DUP4 SWAP1 SHL SHR NOT AND PUSH1 0x1 SWAP2 SWAP1 SWAP2 SHL OR PUSH1 0x99 SSTORE STOP JUMPDEST ADD MLOAD SWAP1 POP DUP3 DUP1 PUSH2 0x620 JUMP JUMPDEST SWAP1 PUSH1 0x1F NOT DUP4 AND SWAP4 PUSH1 0x99 PUSH1 0x0 MSTORE DUP3 PUSH1 0x0 KECCAK256 SWAP3 PUSH1 0x0 SWAP1 JUMPDEST DUP7 DUP3 LT PUSH2 0x690 JUMPI POP POP DUP4 PUSH1 0x1 SWAP6 LT PUSH2 0x677 JUMPI JUMPDEST POP POP POP DUP2 SHL ADD PUSH1 0x99 SSTORE STOP JUMPDEST ADD MLOAD PUSH1 0x0 NOT PUSH1 0xF8 DUP5 PUSH1 0x3 SHL AND SHR NOT AND SWAP1 SSTORE DUP3 DUP1 DUP1 PUSH2 0x66C JUMP JUMPDEST DUP1 PUSH1 0x1 DUP6 SWAP7 DUP3 SWAP5 SWAP7 DUP7 ADD MLOAD DUP2 SSTORE ADD SWAP6 ADD SWAP4 ADD SWAP1 PUSH2 0x659 JUMP JUMPDEST PUSH1 0x99 PUSH1 0x0 MSTORE DUP2 PUSH1 0x0 KECCAK256 PUSH1 0x1F DUP5 ADD PUSH1 0x5 SHR DUP2 ADD SWAP2 DUP4 DUP6 LT PUSH2 0x6E5 JUMPI JUMPDEST PUSH1 0x1F ADD PUSH1 0x5 SHR ADD SWAP1 JUMPDEST DUP2 DUP2 LT PUSH2 0x6D9 JUMPI POP PUSH2 0x608 JUMP JUMPDEST PUSH1 0x0 DUP2 SSTORE PUSH1 0x1 ADD PUSH2 0x6CC JUMP JUMPDEST SWAP1 SWAP2 POP DUP2 SWAP1 PUSH2 0x6C3 JUMP JUMPDEST PUSH4 0x4E487B71 PUSH1 0xE0 SHL PUSH1 0x0 MSTORE PUSH1 0x41 PUSH1 0x4 MSTORE PUSH1 0x24 PUSH1 0x0 REVERT JUMPDEST CALLVALUE PUSH2 0xF4 JUMPI PUSH2 0x350 PUSH2 0x53D PUSH2 0x719 CALLDATASIZE PUSH2 0x1116 JUMP JUMPDEST SWAP1 PUSH2 0x13EA JUMP JUMPDEST CALLVALUE PUSH2 0xF4 JUMPI PUSH1 0x80 CALLDATASIZE PUSH1 0x3 NOT ADD SLT PUSH2 0xF4 JUMPI PUSH2 0x340 PUSH2 0x73B PUSH2 0xF73 JUMP JUMPDEST PUSH2 0x743 PUSH2 0xF89 JUMP JUMPDEST SWAP1 PUSH1 0x64 CALLDATALOAD SWAP1 PUSH1 0x44 CALLDATALOAD SWAP1 PUSH1 0x1 PUSH1 0x1 PUSH1 0xA0 SHL SUB AND DUP1 ISZERO ISZERO DUP1 PUSH2 0x853 JUMPI JUMPDEST DUP1 PUSH2 0x84A JUMPI JUMPDEST DUP1 PUSH2 0x841 JUMPI JUMPDEST PUSH2 0x776 SWAP1 PUSH2 0x2B7 PUSH2 0x131F JUMP JUMPDEST PUSH1 0x20 SWAP2 PUSH1 0x0 PUSH1 0x40 MLOAD PUSH2 0x788 DUP6 DUP3 PUSH2 0xFE7 JUMP JUMPDEST MSTORE PUSH1 0x1 PUSH1 0x1 PUSH1 0xA0 SHL SUB DUP6 AND SWAP3 DUP5 SWAP1 PUSH2 0x7A1 DUP6 ISZERO ISZERO PUSH2 0x14CC JUMP JUMPDEST PUSH2 0x7AA DUP4 PUSH2 0x177C JUMP JUMPDEST POP PUSH2 0x7B4 DUP3 PUSH2 0x177C JUMP JUMPDEST POP DUP3 PUSH1 0x0 MSTORE PUSH1 0xCB DUP2 MSTORE PUSH1 0x40 PUSH1 0x0 KECCAK256 DUP5 PUSH1 0x0 MSTORE DUP2 MSTORE PUSH1 0x40 PUSH1 0x0 KECCAK256 SLOAD PUSH2 0x7DA DUP4 DUP3 LT ISZERO PUSH2 0x1526 JUMP JUMPDEST DUP4 PUSH1 0x0 MSTORE PUSH1 0xCB DUP3 MSTORE PUSH1 0x40 PUSH1 0x0 KECCAK256 DUP6 PUSH1 0x0 MSTORE DUP3 MSTORE DUP3 PUSH1 0x40 PUSH1 0x0 KECCAK256 SWAP2 SUB SWAP1 SSTORE DUP3 PUSH1 0x0 MSTORE PUSH1 0xCB DUP2 MSTORE PUSH1 0x40 PUSH1 0x0 KECCAK256 DUP6 PUSH1 0x0 MSTORE DUP2 MSTORE PUSH1 0x40 PUSH1 0x0 KECCAK256 PUSH2 0x81A DUP4 DUP3 SLOAD PUSH2 0x1585 JUMP JUMPDEST SWAP1 SSTORE PUSH1 0x40 MLOAD SWAP3 DUP4 MSTORE DUP3 ADD MSTORE PUSH1 0x0 DUP1 MLOAD PUSH1 0x20 PUSH2 0x1855 DUP4 CODECOPY DUP2 MLOAD SWAP2 MSTORE PUSH1 0x40 ORIGIN SWAP3 LOG4 PUSH2 0x336 PUSH2 0x138F JUMP JUMPDEST POP DUP3 ISZERO ISZERO PUSH2 0x76A JUMP JUMPDEST POP DUP2 ISZERO ISZERO PUSH2 0x764 JUMP JUMPDEST POP PUSH1 0x1 PUSH1 0x1 PUSH1 0xA0 SHL SUB DUP5 AND ISZERO ISZERO PUSH2 0x75E JUMP JUMPDEST CALLVALUE PUSH2 0xF4 JUMPI PUSH2 0x873 CALLDATASIZE PUSH2 0x10D2 JUMP JUMPDEST SWAP1 SWAP2 SWAP1 PUSH1 0x1 PUSH1 0x1 PUSH1 0xA0 SHL SUB DUP3 AND DUP1 ISZERO DUP1 ISZERO DUP1 PUSH2 0x9EA JUMPI JUMPDEST DUP1 PUSH2 0x9E1 JUMPI JUMPDEST PUSH2 0x89C SWAP1 PUSH2 0x2B7 PUSH2 0x131F JUMP JUMPDEST PUSH2 0x990 JUMPI PUSH2 0x8A9 DUP5 PUSH2 0x177C JUMP JUMPDEST POP PUSH2 0x8B3 DUP3 PUSH2 0x177C JUMP JUMPDEST POP PUSH1 0x20 SWAP4 PUSH1 0x0 PUSH1 0x40 MLOAD PUSH2 0x8C6 DUP8 DUP3 PUSH2 0xFE7 JUMP JUMPDEST MSTORE DUP1 PUSH1 0x0 MSTORE PUSH1 0x97 DUP6 MSTORE PUSH1 0x40 PUSH1 0x0 KECCAK256 DUP3 PUSH1 0x0 MSTORE DUP6 MSTORE PUSH1 0x40 PUSH1 0x0 KECCAK256 SLOAD DUP4 DUP2 LT PUSH2 0x93F JUMPI PUSH1 0x0 SWAP3 DUP3 DUP5 SWAP3 PUSH2 0x340 SWAP9 SWAP5 DUP5 MSTORE PUSH1 0x97 DUP6 MSTORE PUSH1 0x40 DUP5 KECCAK256 DUP4 DUP6 MSTORE DUP6 MSTORE DUP7 PUSH1 0x40 DUP6 KECCAK256 SWAP2 SUB SWAP1 SSTORE PUSH1 0x40 MLOAD SWAP1 DUP2 MSTORE DUP6 DUP5 DUP3 ADD MSTORE PUSH1 0x0 DUP1 MLOAD PUSH1 0x20 PUSH2 0x1855 DUP4 CODECOPY DUP2 MLOAD SWAP2 MSTORE PUSH1 0x40 ORIGIN SWAP3 LOG4 PUSH2 0x936 PUSH1 0x40 MLOAD SWAP2 DUP3 PUSH2 0xFE7 JUMP JUMPDEST MSTORE PUSH2 0x336 PUSH2 0x1362 JUMP JUMPDEST PUSH1 0x40 MLOAD PUSH3 0x461BCD PUSH1 0xE5 SHL DUP2 MSTORE PUSH1 0x4 DUP2 ADD DUP8 SWAP1 MSTORE PUSH1 0x24 DUP1 DUP3 ADD MSTORE PUSH32 0x455243313135353A206275726E20616D6F756E7420657863656564732062616C PUSH1 0x44 DUP3 ADD MSTORE PUSH4 0x616E6365 PUSH1 0xE0 SHL PUSH1 0x64 DUP3 ADD MSTORE PUSH1 0x84 SWAP1 REVERT JUMPDEST PUSH1 0x40 MLOAD PUSH3 0x461BCD PUSH1 0xE5 SHL DUP2 MSTORE PUSH1 0x20 PUSH1 0x4 DUP3 ADD MSTORE PUSH1 0x23 PUSH1 0x24 DUP3 ADD MSTORE PUSH32 0x455243313135353A206275726E2066726F6D20746865207A65726F2061646472 PUSH1 0x44 DUP3 ADD MSTORE PUSH3 0x657373 PUSH1 0xE8 SHL PUSH1 0x64 DUP3 ADD MSTORE PUSH1 0x84 SWAP1 REVERT JUMPDEST POP DUP5 ISZERO ISZERO PUSH2 0x890 JUMP JUMPDEST POP DUP3 ISZERO ISZERO PUSH2 0x88A JUMP JUMPDEST CALLVALUE PUSH2 0xF4 JUMPI PUSH1 0xA0 CALLDATASIZE PUSH1 0x3 NOT ADD SLT PUSH2 0xF4 JUMPI PUSH2 0xA0C PUSH2 0xF73 JUMP JUMPDEST PUSH2 0xA14 PUSH2 0xF89 JUMP JUMPDEST PUSH1 0x44 CALLDATALOAD PUSH1 0x1 PUSH1 0x1 PUSH1 0x40 SHL SUB DUP2 GT PUSH2 0xF4 JUMPI PUSH2 0xA33 SWAP1 CALLDATASIZE SWAP1 PUSH1 0x4 ADD PUSH2 0x101F JUMP JUMPDEST PUSH1 0x64 CALLDATALOAD PUSH1 0x1 PUSH1 0x1 PUSH1 0x40 SHL SUB DUP2 GT PUSH2 0xF4 JUMPI PUSH2 0xA52 SWAP1 CALLDATASIZE SWAP1 PUSH1 0x4 ADD PUSH2 0x101F JUMP JUMPDEST SWAP3 PUSH1 0x84 CALLDATALOAD PUSH1 0x1 PUSH1 0x1 PUSH1 0x40 SHL SUB DUP2 GT PUSH2 0xF4 JUMPI PUSH2 0xA72 SWAP1 CALLDATASIZE SWAP1 PUSH1 0x4 ADD PUSH2 0x107C JUMP JUMPDEST PUSH1 0x1 PUSH1 0x1 PUSH1 0xA0 SHL SUB SWAP1 SWAP2 AND SWAP2 ORIGIN DUP4 EQ DUP1 ISZERO PUSH2 0xDDA JUMPI JUMPDEST PUSH2 0xA91 SWAP1 PUSH2 0x12BC JUMP JUMPDEST DUP1 MLOAD DUP6 MLOAD SUB PUSH2 0xD84 JUMPI PUSH1 0x1 PUSH1 0x1 PUSH1 0xA0 SHL SUB DUP5 AND SWAP2 PUSH2 0xAB0 DUP4 ISZERO ISZERO PUSH2 0x14CC JUMP JUMPDEST PUSH1 0x0 JUMPDEST DUP3 MLOAD DUP2 LT ISZERO PUSH2 0xB37 JUMPI DUP1 PUSH2 0xAC9 PUSH1 0x1 SWAP3 DUP6 PUSH2 0x13C0 JUMP JUMPDEST MLOAD PUSH2 0xAD4 DUP3 DUP11 PUSH2 0x13C0 JUMP JUMPDEST MLOAD SWAP1 DUP1 PUSH1 0x0 MSTORE PUSH1 0x97 PUSH1 0x20 MSTORE PUSH1 0x40 DUP1 PUSH1 0x0 KECCAK256 PUSH1 0x0 SWAP1 DUP11 DUP3 MSTORE PUSH1 0x20 MSTORE KECCAK256 SLOAD PUSH2 0xAFC DUP4 DUP3 LT ISZERO PUSH2 0x1526 JUMP JUMPDEST PUSH1 0x0 SWAP2 DUP3 MSTORE PUSH1 0x97 PUSH1 0x20 SWAP1 DUP2 MSTORE PUSH1 0x40 DUP1 DUP5 KECCAK256 DUP12 DUP6 MSTORE SWAP1 SWAP2 MSTORE DUP1 DUP4 KECCAK256 SWAP2 DUP5 SWAP1 SUB SWAP1 SWAP2 SSTORE DUP8 DUP3 MSTORE SWAP1 KECCAK256 DUP1 SLOAD SWAP1 SWAP2 PUSH2 0xB2F SWAP2 PUSH2 0x1585 JUMP JUMPDEST SWAP1 SSTORE ADD PUSH2 0xAB3 JUMP JUMPDEST POP SWAP4 DUP3 DUP5 PUSH1 0x40 MLOAD PUSH1 0x40 DUP2 MSTORE PUSH32 0x4A39DC06D4C0DBC64B70AF90FD698A233A518AA5D07E595D983B8C0526C8F7FB PUSH2 0xB70 PUSH1 0x40 DUP4 ADD DUP8 PUSH2 0x11C1 JUMP JUMPDEST SWAP2 DUP1 DUP4 SUB PUSH1 0x20 DUP3 ADD MSTORE DUP1 PUSH2 0xB85 ORIGIN SWAP5 DUP14 PUSH2 0x11C1 JUMP JUMPDEST SUB SWAP1 LOG4 EXTCODESIZE PUSH2 0xB8F JUMPI STOP JUMPDEST PUSH1 0x0 PUSH2 0xBCE SWAP4 PUSH2 0xBF2 PUSH1 0x20 SWAP7 PUSH2 0xBE0 PUSH1 0x40 MLOAD SWAP10 DUP11 SWAP9 DUP10 SWAP8 DUP9 SWAP7 PUSH4 0xBC197C81 PUSH1 0xE0 SHL DUP9 MSTORE ORIGIN PUSH1 0x4 DUP10 ADD MSTORE PUSH1 0x24 DUP9 ADD MSTORE PUSH1 0xA0 PUSH1 0x44 DUP9 ADD MSTORE PUSH1 0xA4 DUP8 ADD SWAP1 PUSH2 0x11C1 JUMP JUMPDEST DUP6 DUP2 SUB PUSH1 0x3 NOT ADD PUSH1 0x64 DUP8 ADD MSTORE SWAP1 PUSH2 0x11C1 JUMP JUMPDEST DUP4 DUP2 SUB PUSH1 0x3 NOT ADD PUSH1 0x84 DUP6 ADD MSTORE SWAP1 PUSH2 0xFC2 JUMP JUMPDEST SUB SWAP3 GAS CALL DUP1 SWAP2 PUSH1 0x0 SWAP2 PUSH2 0xD3A JUMPI JUMPDEST POP SWAP1 PUSH2 0xCCB JUMPI PUSH1 0x0 PUSH1 0x3 RETURNDATASIZE GT PUSH2 0xCB9 JUMPI JUMPDEST PUSH4 0x8C379A0 EQ PUSH2 0xC7E JUMPI JUMPDEST PUSH1 0x40 MLOAD PUSH3 0x461BCD PUSH1 0xE5 SHL DUP2 MSTORE PUSH1 0x20 PUSH1 0x4 DUP3 ADD MSTORE PUSH1 0x34 PUSH1 0x24 DUP3 ADD MSTORE PUSH32 0x455243313135353A207472616E7366657220746F206E6F6E2D45524331313535 PUSH1 0x44 DUP3 ADD MSTORE PUSH20 0x2932B1B2B4BB32B91034B6B83632B6B2B73A32B9 PUSH1 0x61 SHL PUSH1 0x64 DUP3 ADD MSTORE PUSH1 0x84 SWAP1 REVERT JUMPDEST PUSH2 0xC86 PUSH2 0x1709 JUMP JUMPDEST DUP1 PUSH2 0xC91 JUMPI POP PUSH2 0xC1C JUMP JUMPDEST PUSH1 0x40 MLOAD PUSH3 0x461BCD PUSH1 0xE5 SHL DUP2 MSTORE PUSH1 0x20 PUSH1 0x4 DUP3 ADD MSTORE SWAP1 DUP2 SWAP1 PUSH2 0xCB5 SWAP1 PUSH1 0x24 DUP4 ADD SWAP1 PUSH2 0xFC2 JUMP JUMPDEST SUB SWAP1 REVERT JUMPDEST POP PUSH1 0x4 PUSH1 0x0 DUP1 RETURNDATACOPY PUSH1 0x0 MLOAD PUSH1 0xE0 SHR PUSH2 0xC11 JUMP JUMPDEST PUSH1 0x1 PUSH1 0x1 PUSH1 0xE0 SHL SUB NOT AND PUSH4 0x43E6837F PUSH1 0xE0 SHL ADD PUSH2 0xCE4 JUMPI STOP JUMPDEST PUSH1 0x40 MLOAD PUSH3 0x461BCD PUSH1 0xE5 SHL DUP2 MSTORE PUSH1 0x20 PUSH1 0x4 DUP3 ADD MSTORE PUSH1 0x28 PUSH1 0x24 DUP3 ADD MSTORE PUSH32 0x455243313135353A204552433131353552656365697665722072656A65637465 PUSH1 0x44 DUP3 ADD MSTORE PUSH8 0x6420746F6B656E73 PUSH1 0xC0 SHL PUSH1 0x64 DUP3 ADD MSTORE PUSH1 0x84 SWAP1 REVERT JUMPDEST PUSH1 0x20 DUP2 RETURNDATASIZE PUSH1 0x20 GT PUSH2 0xD7C JUMPI JUMPDEST DUP2 PUSH2 0xD53 PUSH1 0x20 SWAP4 DUP4 PUSH2 0xFE7 JUMP JUMPDEST DUP2 ADD SUB SLT PUSH2 0xD78 JUMPI MLOAD SWAP1 PUSH1 0x1 PUSH1 0x1 PUSH1 0xE0 SHL SUB NOT DUP3 AND DUP3 SUB PUSH2 0xD75 JUMPI POP DUP3 PUSH2 0xC00 JUMP JUMPDEST DUP1 REVERT JUMPDEST POP DUP1 REVERT JUMPDEST RETURNDATASIZE SWAP2 POP PUSH2 0xD46 JUMP JUMPDEST PUSH1 0x40 MLOAD PUSH3 0x461BCD PUSH1 0xE5 SHL DUP2 MSTORE PUSH1 0x20 PUSH1 0x4 DUP3 ADD MSTORE PUSH1 0x28 PUSH1 0x24 DUP3 ADD MSTORE PUSH32 0x455243313135353A2069647320616E6420616D6F756E7473206C656E67746820 PUSH1 0x44 DUP3 ADD MSTORE PUSH8 0xDAD2E6DAC2E8C6D PUSH1 0xC3 SHL PUSH1 0x64 DUP3 ADD MSTORE PUSH1 0x84 SWAP1 REVERT JUMPDEST POP PUSH1 0x0 DUP4 DUP2 MSTORE PUSH1 0x98 PUSH1 0x20 SWAP1 DUP2 MSTORE PUSH1 0x40 DUP1 DUP4 KECCAK256 ORIGIN DUP5 MSTORE SWAP1 SWAP2 MSTORE SWAP1 KECCAK256 SLOAD PUSH1 0xFF AND PUSH2 0xA88 JUMP JUMPDEST CALLVALUE PUSH2 0xF4 JUMPI PUSH1 0x20 CALLDATASIZE PUSH1 0x3 NOT ADD SLT PUSH2 0xF4 JUMPI PUSH1 0x40 MLOAD PUSH1 0x0 PUSH1 0x99 SLOAD PUSH2 0xE1F DUP2 PUSH2 0x1282 JUMP JUMPDEST DUP1 DUP5 MSTORE SWAP1 PUSH1 0x1 DUP2 AND SWAP1 DUP2 ISZERO PUSH2 0xEBA JUMPI POP PUSH1 0x1 EQ PUSH2 0xE5B JUMPI JUMPDEST PUSH2 0x350 DUP4 PUSH2 0xE47 DUP2 DUP6 SUB DUP3 PUSH2 0xFE7 JUMP JUMPDEST PUSH1 0x40 MLOAD SWAP2 DUP3 SWAP2 PUSH1 0x20 DUP4 MSTORE PUSH1 0x20 DUP4 ADD SWAP1 PUSH2 0xFC2 JUMP JUMPDEST PUSH1 0x99 PUSH1 0x0 SWAP1 DUP2 MSTORE PUSH32 0x72A152DDFB8E864297C917AF52EA6C1C68AEAD0FEE1A62673FCC7E0C94979D00 SWAP4 SWAP3 POP SWAP1 JUMPDEST DUP1 DUP3 LT PUSH2 0xEA0 JUMPI POP SWAP1 SWAP2 POP DUP2 ADD PUSH1 0x20 ADD PUSH2 0xE47 PUSH2 0xE37 JUMP JUMPDEST SWAP2 SWAP3 PUSH1 0x1 DUP2 PUSH1 0x20 SWAP3 SLOAD DUP4 DUP6 DUP9 ADD ADD MSTORE ADD SWAP2 ADD SWAP1 SWAP3 SWAP2 PUSH2 0xE88 JUMP JUMPDEST PUSH1 0xFF NOT AND PUSH1 0x20 DUP1 DUP7 ADD SWAP2 SWAP1 SWAP2 MSTORE SWAP2 ISZERO ISZERO PUSH1 0x5 SHL DUP5 ADD SWAP1 SWAP2 ADD SWAP2 POP PUSH2 0xE47 SWAP1 POP PUSH2 0xE37 JUMP JUMPDEST CALLVALUE PUSH2 0xF4 JUMPI PUSH1 0x20 CALLDATASIZE PUSH1 0x3 NOT ADD SLT PUSH2 0xF4 JUMPI PUSH1 0x4 CALLDATALOAD PUSH4 0xFFFFFFFF PUSH1 0xE0 SHL DUP2 AND DUP1 SWAP2 SUB PUSH2 0xF4 JUMPI PUSH1 0x20 SWAP1 PUSH4 0x6CDB3D13 PUSH1 0xE1 SHL DUP2 EQ SWAP1 DUP2 ISZERO PUSH2 0xF3B JUMPI JUMPDEST DUP2 ISZERO PUSH2 0xF2A JUMPI JUMPDEST POP PUSH1 0x40 MLOAD SWAP1 ISZERO ISZERO DUP2 MSTORE RETURN JUMPDEST PUSH4 0x1FFC9A7 PUSH1 0xE0 SHL EQ SWAP1 POP DUP3 PUSH2 0xF1F JUMP JUMPDEST PUSH4 0x3A24D07 PUSH1 0xE2 SHL DUP2 EQ SWAP2 POP PUSH2 0xF18 JUMP JUMPDEST CALLVALUE PUSH2 0xF4 JUMPI PUSH1 0x40 CALLDATASIZE PUSH1 0x3 NOT ADD SLT PUSH2 0xF4 JUMPI PUSH1 0x20 PUSH2 0x507 PUSH2 0xF6A PUSH2 0xF73 JUMP JUMPDEST PUSH1 0x24 CALLDATALOAD SWAP1 PUSH2 0x11F5 JUMP JUMPDEST PUSH1 0x4 CALLDATALOAD SWAP1 PUSH1 0x1 PUSH1 0x1 PUSH1 0xA0 SHL SUB DUP3 AND DUP3 SUB PUSH2 0xF4 JUMPI JUMP JUMPDEST PUSH1 0x24 CALLDATALOAD SWAP1 PUSH1 0x1 PUSH1 0x1 PUSH1 0xA0 SHL SUB DUP3 AND DUP3 SUB PUSH2 0xF4 JUMPI JUMP JUMPDEST PUSH1 0x0 JUMPDEST DUP4 DUP2 LT PUSH2 0xFB2 JUMPI POP POP PUSH1 0x0 SWAP2 ADD MSTORE JUMP JUMPDEST DUP2 DUP2 ADD MLOAD DUP4 DUP3 ADD MSTORE PUSH1 0x20 ADD PUSH2 0xFA2 JUMP JUMPDEST SWAP1 PUSH1 0x20 SWAP2 PUSH2 0xFDB DUP2 MLOAD DUP1 SWAP3 DUP2 DUP6 MSTORE DUP6 DUP1 DUP7 ADD SWAP2 ADD PUSH2 0xF9F JUMP JUMPDEST PUSH1 0x1F ADD PUSH1 0x1F NOT AND ADD ADD SWAP1 JUMP JUMPDEST SWAP1 PUSH1 0x1F DUP1 NOT SWAP2 ADD AND DUP2 ADD SWAP1 DUP2 LT PUSH1 0x1 PUSH1 0x1 PUSH1 0x40 SHL SUB DUP3 GT OR PUSH2 0x6EF JUMPI PUSH1 0x40 MSTORE JUMP JUMPDEST PUSH1 0x1 PUSH1 0x1 PUSH1 0x40 SHL SUB DUP2 GT PUSH2 0x6EF JUMPI PUSH1 0x5 SHL PUSH1 0x20 ADD SWAP1 JUMP JUMPDEST SWAP1 DUP1 PUSH1 0x1F DUP4 ADD SLT ISZERO PUSH2 0xF4 JUMPI DUP2 CALLDATALOAD PUSH2 0x1036 DUP2 PUSH2 0x1008 JUMP JUMPDEST SWAP3 PUSH2 0x1044 PUSH1 0x40 MLOAD SWAP5 DUP6 PUSH2 0xFE7 JUMP JUMPDEST DUP2 DUP5 MSTORE PUSH1 0x20 DUP1 DUP6 ADD SWAP3 PUSH1 0x5 SHL DUP3 ADD ADD SWAP3 DUP4 GT PUSH2 0xF4 JUMPI PUSH1 0x20 ADD SWAP1 JUMPDEST DUP3 DUP3 LT PUSH2 0x106C JUMPI POP POP POP SWAP1 JUMP JUMPDEST DUP2 CALLDATALOAD DUP2 MSTORE PUSH1 0x20 SWAP2 DUP3 ADD SWAP2 ADD PUSH2 0x105F JUMP JUMPDEST DUP2 PUSH1 0x1F DUP3 ADD SLT ISZERO PUSH2 0xF4 JUMPI DUP1 CALLDATALOAD SWAP1 PUSH1 0x1 PUSH1 0x1 PUSH1 0x40 SHL SUB DUP3 GT PUSH2 0x6EF JUMPI PUSH1 0x40 MLOAD SWAP3 PUSH2 0x10B0 PUSH1 0x1F DUP5 ADD PUSH1 0x1F NOT AND PUSH1 0x20 ADD DUP6 PUSH2 0xFE7 JUMP JUMPDEST DUP3 DUP5 MSTORE PUSH1 0x20 DUP4 DUP4 ADD ADD GT PUSH2 0xF4 JUMPI DUP2 PUSH1 0x0 SWAP3 PUSH1 0x20 DUP1 SWAP4 ADD DUP4 DUP7 ADD CALLDATACOPY DUP4 ADD ADD MSTORE SWAP1 JUMP JUMPDEST PUSH1 0x60 SWAP1 PUSH1 0x3 NOT ADD SLT PUSH2 0xF4 JUMPI PUSH1 0x4 CALLDATALOAD PUSH1 0x1 PUSH1 0x1 PUSH1 0xA0 SHL SUB DUP2 AND DUP2 SUB PUSH2 0xF4 JUMPI SWAP1 PUSH1 0x24 CALLDATALOAD SWAP1 PUSH1 0x44 CALLDATALOAD SWAP1 JUMP JUMPDEST PUSH1 0x40 SWAP1 PUSH2 0x1113 SWAP4 SWAP3 DUP2 MSTORE DUP2 PUSH1 0x20 DUP3 ADD MSTORE ADD SWAP1 PUSH2 0xFC2 JUMP JUMPDEST SWAP1 JUMP JUMPDEST SWAP1 PUSH1 0x40 PUSH1 0x3 NOT DUP4 ADD SLT PUSH2 0xF4 JUMPI PUSH1 0x4 CALLDATALOAD PUSH1 0x1 PUSH1 0x1 PUSH1 0x40 SHL SUB DUP2 GT PUSH2 0xF4 JUMPI DUP3 PUSH1 0x23 DUP3 ADD SLT ISZERO PUSH2 0xF4 JUMPI DUP1 PUSH1 0x4 ADD CALLDATALOAD PUSH2 0x114D DUP2 PUSH2 0x1008 JUMP JUMPDEST SWAP2 PUSH2 0x115B PUSH1 0x40 MLOAD SWAP4 DUP5 PUSH2 0xFE7 JUMP JUMPDEST DUP2 DUP4 MSTORE PUSH1 0x24 PUSH1 0x20 DUP5 ADD SWAP3 PUSH1 0x5 SHL DUP3 ADD ADD SWAP1 DUP6 DUP3 GT PUSH2 0xF4 JUMPI PUSH1 0x24 ADD SWAP2 JUMPDEST DUP2 DUP4 LT PUSH2 0x11A1 JUMPI POP POP POP SWAP2 PUSH1 0x24 CALLDATALOAD SWAP1 PUSH1 0x1 PUSH1 0x1 PUSH1 0x40 SHL SUB DUP3 GT PUSH2 0xF4 JUMPI PUSH2 0x1113 SWAP2 PUSH1 0x4 ADD PUSH2 0x101F JUMP JUMPDEST DUP3 CALLDATALOAD PUSH1 0x1 PUSH1 0x1 PUSH1 0xA0 SHL SUB DUP2 AND DUP2 SUB PUSH2 0xF4 JUMPI DUP2 MSTORE PUSH1 0x20 SWAP3 DUP4 ADD SWAP3 ADD PUSH2 0x1178 JUMP JUMPDEST SWAP1 PUSH1 0x20 DUP1 DUP4 MLOAD SWAP3 DUP4 DUP2 MSTORE ADD SWAP3 ADD SWAP1 PUSH1 0x0 JUMPDEST DUP2 DUP2 LT PUSH2 0x11DF JUMPI POP POP POP SWAP1 JUMP JUMPDEST DUP3 MLOAD DUP5 MSTORE PUSH1 0x20 SWAP4 DUP5 ADD SWAP4 SWAP1 SWAP3 ADD SWAP2 PUSH1 0x1 ADD PUSH2 0x11D2 JUMP JUMPDEST SWAP1 PUSH1 0x1 PUSH1 0x1 PUSH1 0xA0 SHL SUB DUP3 AND ISZERO PUSH2 0x122A JUMPI PUSH1 0x0 MSTORE PUSH1 0xCB PUSH1 0x20 MSTORE PUSH1 0x40 PUSH1 0x0 KECCAK256 SWAP1 PUSH1 0x1 DUP1 PUSH1 0xA0 SHL SUB AND PUSH1 0x0 MSTORE PUSH1 0x20 MSTORE PUSH1 0x40 PUSH1 0x0 KECCAK256 SLOAD SWAP1 JUMP JUMPDEST PUSH1 0x40 MLOAD PUSH3 0x461BCD PUSH1 0xE5 SHL DUP2 MSTORE PUSH1 0x20 PUSH1 0x4 DUP3 ADD MSTORE PUSH1 0x2A PUSH1 0x24 DUP3 ADD MSTORE PUSH32 0x455243313135353A2061646472657373207A65726F206973206E6F7420612076 PUSH1 0x44 DUP3 ADD MSTORE PUSH10 0x30B634B21037BBB732B9 PUSH1 0xB1 SHL PUSH1 0x64 DUP3 ADD MSTORE PUSH1 0x84 SWAP1 REVERT JUMPDEST SWAP1 PUSH1 0x1 DUP3 DUP2 SHR SWAP3 AND DUP1 ISZERO PUSH2 0x12B2 JUMPI JUMPDEST PUSH1 0x20 DUP4 LT EQ PUSH2 0x129C JUMPI JUMP JUMPDEST PUSH4 0x4E487B71 PUSH1 0xE0 SHL PUSH1 0x0 MSTORE PUSH1 0x22 PUSH1 0x4 MSTORE PUSH1 0x24 PUSH1 0x0 REVERT JUMPDEST SWAP2 PUSH1 0x7F AND SWAP2 PUSH2 0x1291 JUMP JUMPDEST ISZERO PUSH2 0x12C3 JUMPI JUMP JUMPDEST PUSH1 0x40 MLOAD PUSH3 0x461BCD PUSH1 0xE5 SHL DUP2 MSTORE PUSH1 0x20 PUSH1 0x4 DUP3 ADD MSTORE PUSH1 0x2E PUSH1 0x24 DUP3 ADD MSTORE PUSH32 0x455243313135353A2063616C6C6572206973206E6F7420746F6B656E206F776E PUSH1 0x44 DUP3 ADD MSTORE PUSH14 0x195C881BDC88185C1C1C9BDD9959 PUSH1 0x92 SHL PUSH1 0x64 DUP3 ADD MSTORE PUSH1 0x84 SWAP1 REVERT JUMPDEST PUSH1 0x40 MLOAD SWAP1 PUSH2 0x132E PUSH1 0x40 DUP4 PUSH2 0xFE7 JUMP JUMPDEST PUSH1 0x1C DUP3 MSTORE PUSH32 0x4E6F2076616C75652073686F756C64206E6F74206265205A65726F2E00000000 PUSH1 0x20 DUP4 ADD MSTORE JUMP JUMPDEST ISZERO PUSH2 0xC91 JUMPI POP JUMP JUMPDEST PUSH1 0x40 MLOAD SWAP1 PUSH2 0x1371 PUSH1 0x40 DUP4 PUSH2 0xFE7 JUMP JUMPDEST PUSH1 0xF DUP3 MSTORE PUSH15 0x151150481513D2D15394C813525395 PUSH1 0x8A SHL PUSH1 0x20 DUP4 ADD MSTORE JUMP JUMPDEST PUSH1 0x40 MLOAD SWAP1 PUSH2 0x139E PUSH1 0x40 DUP4 PUSH2 0xFE7 JUMP JUMPDEST PUSH1 0x13 DUP3 MSTORE PUSH19 0x2A22A0902A27A5A2A729902A2920A729A322A9 PUSH1 0x69 SHL PUSH1 0x20 DUP4 ADD MSTORE JUMP JUMPDEST DUP1 MLOAD DUP3 LT ISZERO PUSH2 0x13D4 JUMPI PUSH1 0x20 SWAP2 PUSH1 0x5 SHL ADD ADD SWAP1 JUMP JUMPDEST PUSH4 0x4E487B71 PUSH1 0xE0 SHL PUSH1 0x0 MSTORE PUSH1 0x32 PUSH1 0x4 MSTORE PUSH1 0x24 PUSH1 0x0 REVERT JUMPDEST SWAP2 SWAP1 SWAP2 DUP1 MLOAD DUP4 MLOAD SUB PUSH2 0x1475 JUMPI DUP1 MLOAD SWAP1 PUSH2 0x1402 DUP3 PUSH2 0x1008 JUMP JUMPDEST SWAP2 PUSH2 0x1410 PUSH1 0x40 MLOAD SWAP4 DUP5 PUSH2 0xFE7 JUMP JUMPDEST DUP1 DUP4 MSTORE PUSH2 0x141F PUSH1 0x1F NOT SWAP2 PUSH2 0x1008 JUMP JUMPDEST ADD CALLDATASIZE PUSH1 0x20 DUP5 ADD CALLDATACOPY PUSH1 0x0 JUMPDEST DUP2 MLOAD DUP2 LT ISZERO PUSH2 0x146E JUMPI PUSH1 0x1 SWAP1 PUSH2 0x145D PUSH1 0x1 PUSH1 0x1 PUSH1 0xA0 SHL SUB PUSH2 0x144A DUP4 DUP7 PUSH2 0x13C0 JUMP JUMPDEST MLOAD AND PUSH2 0x1456 DUP4 DUP10 PUSH2 0x13C0 JUMP JUMPDEST MLOAD SWAP1 PUSH2 0x11F5 JUMP JUMPDEST PUSH2 0x1467 DUP3 DUP7 PUSH2 0x13C0 JUMP JUMPDEST MSTORE ADD PUSH2 0x1429 JUMP JUMPDEST POP SWAP1 SWAP3 POP POP JUMP JUMPDEST PUSH1 0x40 MLOAD PUSH3 0x461BCD PUSH1 0xE5 SHL DUP2 MSTORE PUSH1 0x20 PUSH1 0x4 DUP3 ADD MSTORE PUSH1 0x29 PUSH1 0x24 DUP3 ADD MSTORE PUSH32 0x455243313135353A206163636F756E747320616E6420696473206C656E677468 PUSH1 0x44 DUP3 ADD MSTORE PUSH9 0x40DAD2E6DAC2E8C6D PUSH1 0xBB SHL PUSH1 0x64 DUP3 ADD MSTORE PUSH1 0x84 SWAP1 REVERT JUMPDEST ISZERO PUSH2 0x14D3 JUMPI JUMP JUMPDEST PUSH1 0x40 MLOAD PUSH3 0x461BCD PUSH1 0xE5 SHL DUP2 MSTORE PUSH1 0x20 PUSH1 0x4 DUP3 ADD MSTORE PUSH1 0x25 PUSH1 0x24 DUP3 ADD MSTORE PUSH32 0x455243313135353A207472616E7366657220746F20746865207A65726F206164 PUSH1 0x44 DUP3 ADD MSTORE PUSH5 0x6472657373 PUSH1 0xD8 SHL PUSH1 0x64 DUP3 ADD MSTORE PUSH1 0x84 SWAP1 REVERT JUMPDEST ISZERO PUSH2 0x152D JUMPI JUMP JUMPDEST PUSH1 0x40 MLOAD PUSH3 0x461BCD PUSH1 0xE5 SHL DUP2 MSTORE PUSH1 0x20 PUSH1 0x4 DUP3 ADD MSTORE PUSH1 0x2A PUSH1 0x24 DUP3 ADD MSTORE PUSH32 0x455243313135353A20696E73756666696369656E742062616C616E636520666F PUSH1 0x44 DUP3 ADD MSTORE PUSH10 0x39103A3930B739B332B9 PUSH1 0xB1 SHL PUSH1 0x64 DUP3 ADD MSTORE PUSH1 0x84 SWAP1 REVERT JUMPDEST SWAP2 SWAP1 DUP3 ADD DUP1 SWAP3 GT PUSH2 0x1592 JUMPI JUMP JUMPDEST PUSH4 0x4E487B71 PUSH1 0xE0 SHL PUSH1 0x0 MSTORE PUSH1 0x11 PUSH1 0x4 MSTORE PUSH1 0x24 PUSH1 0x0 REVERT JUMPDEST SWAP1 SWAP2 SWAP3 SWAP5 SWAP4 PUSH1 0x40 SWAP6 DUP7 MLOAD SWAP4 PUSH2 0x15BD DUP9 DUP7 PUSH2 0xFE7 JUMP JUMPDEST PUSH1 0x7 DUP6 MSTORE PUSH7 0x53554343455353 PUSH1 0xC8 SHL PUSH1 0x20 DUP7 ADD MSTORE PUSH2 0x15E2 PUSH2 0x15DC PUSH2 0x1362 JUMP JUMPDEST DUP6 PUSH2 0x17F3 JUMP JUMPDEST ISZERO PUSH2 0x164D JUMPI SWAP1 PUSH32 0x3142FCBE227BC92F10FCED29F317CA3C2F4163F46D7B64F988A6485DC210DEF3 SWAP6 PUSH2 0x161A SWAP4 SWAP3 DUP10 MLOAD SWAP7 DUP8 SWAP7 DUP8 PUSH2 0x17A7 JUMP JUMPDEST SUB SWAP1 LOG1 JUMPDEST PUSH2 0x162A DUP3 MLOAD SWAP3 DUP4 PUSH2 0xFE7 JUMP JUMPDEST PUSH1 0x10 DUP3 MSTORE PUSH16 0x5472616E736665722053756363657373 PUSH1 0x80 SHL PUSH1 0x20 DUP4 ADD MSTORE PUSH1 0x33 SWAP2 SWAP1 JUMP JUMPDEST SWAP2 SWAP1 PUSH2 0x165A PUSH2 0x15DC PUSH2 0x138F JUMP JUMPDEST PUSH2 0x166A JUMPI JUMPDEST POP POP POP POP POP POP PUSH2 0x161E JUMP JUMPDEST PUSH32 0xC444FE7D48A24AA63A770B0AB4797132CBE097E5DCE205425C8A1153234C6687 SWAP6 PUSH2 0x169B SWAP4 DUP10 MLOAD SWAP7 DUP8 SWAP7 DUP8 PUSH2 0x17A7 JUMP JUMPDEST SUB SWAP1 LOG1 CODESIZE DUP1 DUP1 DUP1 DUP1 DUP1 PUSH2 0x165F JUMP JUMPDEST ISZERO PUSH2 0x16B0 JUMPI JUMP JUMPDEST PUSH1 0x40 MLOAD PUSH3 0x461BCD PUSH1 0xE5 SHL DUP2 MSTORE PUSH1 0x20 PUSH1 0x4 DUP3 ADD MSTORE PUSH1 0x2B PUSH1 0x24 DUP3 ADD MSTORE PUSH32 0x496E697469616C697A61626C653A20636F6E7472616374206973206E6F742069 PUSH1 0x44 DUP3 ADD MSTORE PUSH11 0x6E697469616C697A696E67 PUSH1 0xA8 SHL PUSH1 0x64 DUP3 ADD MSTORE PUSH1 0x84 SWAP1 REVERT JUMPDEST PUSH1 0x0 PUSH1 0x44 RETURNDATASIZE LT PUSH2 0x1113 JUMPI PUSH1 0x40 MLOAD RETURNDATASIZE PUSH1 0x3 NOT ADD PUSH1 0x4 DUP3 RETURNDATACOPY DUP1 MLOAD SWAP2 RETURNDATASIZE PUSH1 0x24 DUP5 ADD GT PUSH1 0x1 PUSH1 0x1 PUSH1 0x40 SHL SUB DUP5 GT OR PUSH2 0x1776 JUMPI DUP3 DUP3 ADD SWAP3 DUP4 MLOAD SWAP2 PUSH1 0x1 PUSH1 0x1 PUSH1 0x40 SHL SUB DUP4 GT PUSH2 0x176E JUMPI RETURNDATASIZE DUP5 ADD PUSH1 0x3 NOT ADD DUP6 DUP5 ADD PUSH1 0x20 ADD GT PUSH2 0x176E JUMPI POP PUSH2 0x1113 SWAP3 SWAP2 ADD PUSH1 0x20 ADD SWAP1 PUSH2 0xFE7 JUMP JUMPDEST SWAP5 SWAP4 POP POP POP POP JUMP JUMPDEST SWAP3 SWAP2 POP POP JUMP JUMPDEST PUSH1 0x40 SWAP1 DUP2 MLOAD SWAP2 PUSH2 0x178C DUP2 DUP5 PUSH2 0xFE7 JUMP JUMPDEST PUSH1 0x1 DUP4 MSTORE PUSH1 0x20 DUP4 ADD SWAP1 PUSH1 0x1F NOT ADD CALLDATASIZE DUP3 CALLDATACOPY DUP3 MLOAD ISZERO PUSH2 0x13D4 JUMPI MSTORE SWAP1 JUMP JUMPDEST SWAP3 SWAP7 SWAP6 SWAP5 SWAP2 PUSH2 0x17D3 SWAP1 PUSH2 0x17C5 PUSH1 0xA0 SWAP7 SWAP4 PUSH1 0xC0 DUP8 MSTORE PUSH1 0xC0 DUP8 ADD SWAP1 PUSH2 0xFC2 JUMP JUMPDEST SWAP1 DUP6 DUP3 SUB PUSH1 0x20 DUP8 ADD MSTORE PUSH2 0xFC2 JUMP JUMPDEST PUSH1 0x0 NOT PUSH1 0x1 DUP7 SHL ADD SWAP8 DUP9 AND PUSH1 0x40 DUP6 ADD MSTORE SWAP7 AND PUSH1 0x60 DUP4 ADD MSTORE PUSH1 0x80 DUP3 ADD MSTORE ADD MSTORE JUMP JUMPDEST PUSH1 0x40 MLOAD PUSH2 0x1821 PUSH1 0x20 DUP3 DUP2 PUSH2 0x1810 DUP2 DUP4 ADD SWAP7 DUP8 DUP2 MLOAD SWAP4 DUP5 SWAP3 ADD PUSH2 0xF9F JUMP JUMPDEST DUP2 ADD SUB ADD PUSH1 0x1F NOT DUP2 ADD DUP4 MSTORE DUP3 PUSH2 0xFE7 JUMP JUMPDEST MLOAD SWAP1 KECCAK256 SWAP1 PUSH1 0x40 MLOAD PUSH2 0x1842 PUSH1 0x20 DUP3 DUP2 PUSH2 0x1810 DUP2 DUP4 ADD SWAP7 DUP8 DUP2 MLOAD SWAP4 DUP5 SWAP3 ADD PUSH2 0xF9F JUMP JUMPDEST MLOAD SWAP1 KECCAK256 EQ PUSH2 0x184F JUMPI PUSH1 0x0 SWAP1 JUMP JUMPDEST PUSH1 0x1 SWAP1 JUMP INVALID 0xC3 0xD5 DUP2 PUSH9 0xC5AE7397731D063D5B 0xBF RETURNDATASIZE PUSH6 0x7854427343F4 0xC0 DUP4 0x24 0xF PUSH27 0xACAA2D0F62A2646970667358221220593FAB13EBB977EFD8DBFDA8 CALLER 0xDB 0x2D DUP8 PC COINBASE 0xF8 0x4B DUP8 0xFC LOG1 SIGNEXTEND 0xAD SHR 0xCE 0xE9 PUSH22 0xD4555C64736F6C634300081A00330000000000000000 "},"methodIdentifiers":{"_balanceOfBatchTeaToken(address[],uint256[])":"93535a38","_balanceOfTeaToken(address,uint256)":"986275ce","_destroyTeaToken(address,uint256,uint256)":"457e3ef8","_initialize()":"80ae4ebc","_mintTeaToken(address,uint256,uint256)":"cb25897c","_transferTeaToken(address,address,uint256,uint256)":"4826a69e","admin()":"f851a440","balanceOf(address,uint256)":"00fdd58e","balanceOfBatch(address[],uint256[])":"4e1273f4","implementationAdd()":"b017dde9","isApprovedForAll(address,address)":"e985e9c5","safeBatchTransferFrom(address,address,uint256[],uint256[],bytes)":"2eb2c2d6","safeTransferFrom(address,address,uint256,uint256,bytes)":"f242432a","setApprovalForAll(address,bool)":"a22cb465","supportsInterface(bytes4)":"01ffc9a7","uri(uint256)":"0e89341c"}}}}}