{
  "_format": "hh-sol-artifact-1",
  "contractName": "MultiTeaContract",
  "sourceName": "contracts/MultiTeaContract.sol",
  "abi": [
    {
      "inputs": [],
      "stateMutability": "nonpayable",
      "type": "constructor"
    },
    {
      "anonymous": false,
      "inputs": [
        {
          "indexed": true,
          "internalType": "address",
          "name": "account",
          "type": "address"
        },
        {
          "indexed": true,
          "internalType": "address",
          "name": "operator",
          "type": "address"
        },
        {
          "indexed": false,
          "internalType": "bool",
          "name": "approved",
          "type": "bool"
        }
      ],
      "name": "ApprovalForAll",
      "type": "event"
    },
    {
      "anonymous": false,
      "inputs": [
        {
          "indexed": false,
          "internalType": "string",
          "name": "txnType",
          "type": "string"
        },
        {
          "indexed": false,
          "internalType": "string",
          "name": "txnStatus",
          "type": "string"
        },
        {
          "indexed": false,
          "internalType": "address",
          "name": "senderId",
          "type": "address"
        },
        {
          "indexed": false,
          "internalType": "address",
          "name": "receiverId",
          "type": "address"
        },
        {
          "indexed": false,
          "internalType": "uint256",
          "name": "quantity",
          "type": "uint256"
        },
        {
          "indexed": false,
          "internalType": "uint256",
          "name": "txnDate",
          "type": "uint256"
        }
      ],
      "name": "MintTeaTkn",
      "type": "event"
    },
    {
      "anonymous": false,
      "inputs": [
        {
          "indexed": true,
          "internalType": "address",
          "name": "operator",
          "type": "address"
        },
        {
          "indexed": true,
          "internalType": "address",
          "name": "from",
          "type": "address"
        },
        {
          "indexed": true,
          "internalType": "address",
          "name": "to",
          "type": "address"
        },
        {
          "indexed": false,
          "internalType": "uint256[]",
          "name": "ids",
          "type": "uint256[]"
        },
        {
          "indexed": false,
          "internalType": "uint256[]",
          "name": "values",
          "type": "uint256[]"
        }
      ],
      "name": "TransferBatch",
      "type": "event"
    },
    {
      "anonymous": false,
      "inputs": [
        {
          "indexed": true,
          "internalType": "address",
          "name": "operator",
          "type": "address"
        },
        {
          "indexed": true,
          "internalType": "address",
          "name": "from",
          "type": "address"
        },
        {
          "indexed": true,
          "internalType": "address",
          "name": "to",
          "type": "address"
        },
        {
          "indexed": false,
          "internalType": "uint256",
          "name": "id",
          "type": "uint256"
        },
        {
          "indexed": false,
          "internalType": "uint256",
          "name": "value",
          "type": "uint256"
        }
      ],
      "name": "TransferSingle",
      "type": "event"
    },
    {
      "anonymous": false,
      "inputs": [
        {
          "indexed": false,
          "internalType": "string",
          "name": "txnType",
          "type": "string"
        },
        {
          "indexed": false,
          "internalType": "string",
          "name": "txnStatus",
          "type": "string"
        },
        {
          "indexed": false,
          "internalType": "address",
          "name": "senderId",
          "type": "address"
        },
        {
          "indexed": false,
          "internalType": "address",
          "name": "receiverId",
          "type": "address"
        },
        {
          "indexed": false,
          "internalType": "uint256",
          "name": "quantity",
          "type": "uint256"
        },
        {
          "indexed": false,
          "internalType": "uint256",
          "name": "txnDate",
          "type": "uint256"
        }
      ],
      "name": "TransferTeaTkn",
      "type": "event"
    },
    {
      "anonymous": false,
      "inputs": [
        {
          "indexed": false,
          "internalType": "string",
          "name": "value",
          "type": "string"
        },
        {
          "indexed": true,
          "internalType": "uint256",
          "name": "id",
          "type": "uint256"
        }
      ],
      "name": "URI",
      "type": "event"
    },
    {
      "inputs": [
        {
          "internalType": "address[]",
          "name": "_accounts",
          "type": "address[]"
        },
        {
          "internalType": "uint256[]",
          "name": "_ids",
          "type": "uint256[]"
        }
      ],
      "name": "_balanceOfBatchTeaToken",
      "outputs": [
        {
          "internalType": "uint256[]",
          "name": "",
          "type": "uint256[]"
        }
      ],
      "stateMutability": "view",
      "type": "function"
    },
    {
      "inputs": [
        {
          "internalType": "address",
          "name": "_address",
          "type": "address"
        },
        {
          "internalType": "uint256",
          "name": "_id",
          "type": "uint256"
        }
      ],
      "name": "_balanceOfTeaToken",
      "outputs": [
        {
          "internalType": "uint256",
          "name": "",
          "type": "uint256"
        }
      ],
      "stateMutability": "view",
      "type": "function"
    },
    {
      "inputs": [
        {
          "internalType": "address",
          "name": "_account",
          "type": "address"
        },
        {
          "internalType": "uint256",
          "name": "_tokenId",
          "type": "uint256"
        },
        {
          "internalType": "uint256",
          "name": "_quantity",
          "type": "uint256"
        }
      ],
      "name": "_destroyTeaToken",
      "outputs": [
        {
          "internalType": "uint256",
          "name": "",
          "type": "uint256"
        },
        {
          "internalType": "string",
          "name": "",
          "type": "string"
        }
      ],
      "stateMutability": "nonpayable",
      "type": "function"
    },
    {
      "inputs": [],
      "name": "_initialize",
      "outputs": [],
      "stateMutability": "nonpayable",
      "type": "function"
    },
    {
      "inputs": [
        {
          "internalType": "address",
          "name": "_account",
          "type": "address"
        },
        {
          "internalType": "uint256",
          "name": "_tokenId",
          "type": "uint256"
        },
        {
          "internalType": "uint256",
          "name": "_quantity",
          "type": "uint256"
        }
      ],
      "name": "_mintTeaToken",
      "outputs": [
        {
          "internalType": "uint256",
          "name": "",
          "type": "uint256"
        },
        {
          "internalType": "string",
          "name": "",
          "type": "string"
        }
      ],
      "stateMutability": "nonpayable",
      "type": "function"
    },
    {
      "inputs": [
        {
          "internalType": "address",
          "name": "_from",
          "type": "address"
        },
        {
          "internalType": "address",
          "name": "_to",
          "type": "address"
        },
        {
          "internalType": "uint256",
          "name": "_id",
          "type": "uint256"
        },
        {
          "internalType": "uint256",
          "name": "_quantity",
          "type": "uint256"
        }
      ],
      "name": "_transferTeaToken",
      "outputs": [
        {
          "internalType": "uint256",
          "name": "",
          "type": "uint256"
        },
        {
          "internalType": "string",
          "name": "",
          "type": "string"
        }
      ],
      "stateMutability": "nonpayable",
      "type": "function"
    },
    {
      "inputs": [],
      "name": "admin",
      "outputs": [
        {
          "internalType": "address",
          "name": "",
          "type": "address"
        }
      ],
      "stateMutability": "view",
      "type": "function"
    },
    {
      "inputs": [
        {
          "internalType": "address",
          "name": "account",
          "type": "address"
        },
        {
          "internalType": "uint256",
          "name": "id",
          "type": "uint256"
        }
      ],
      "name": "balanceOf",
      "outputs": [
        {
          "internalType": "uint256",
          "name": "",
          "type": "uint256"
        }
      ],
      "stateMutability": "view",
      "type": "function"
    },
    {
      "inputs": [
        {
          "internalType": "address[]",
          "name": "accounts",
          "type": "address[]"
        },
        {
          "internalType": "uint256[]",
          "name": "ids",
          "type": "uint256[]"
        }
      ],
      "name": "balanceOfBatch",
      "outputs": [
        {
          "internalType": "uint256[]",
          "name": "",
          "type": "uint256[]"
        }
      ],
      "stateMutability": "view",
      "type": "function"
    },
    {
      "inputs": [],
      "name": "implementationAdd",
      "outputs": [
        {
          "internalType": "address",
          "name": "",
          "type": "address"
        }
      ],
      "stateMutability": "view",
      "type": "function"
    },
    {
      "inputs": [
        {
          "internalType": "address",
          "name": "account",
          "type": "address"
        },
        {
          "internalType": "address",
          "name": "operator",
          "type": "address"
        }
      ],
      "name": "isApprovedForAll",
      "outputs": [
        {
          "internalType": "bool",
          "name": "",
          "type": "bool"
        }
      ],
      "stateMutability": "view",
      "type": "function"
    },
    {
      "inputs": [
        {
          "internalType": "address",
          "name": "from",
          "type": "address"
        },
        {
          "internalType": "address",
          "name": "to",
          "type": "address"
        },
        {
          "internalType": "uint256[]",
          "name": "ids",
          "type": "uint256[]"
        },
        {
          "internalType": "uint256[]",
          "name": "amounts",
          "type": "uint256[]"
        },
        {
          "internalType": "bytes",
          "name": "data",
          "type": "bytes"
        }
      ],
      "name": "safeBatchTransferFrom",
      "outputs": [],
      "stateMutability": "nonpayable",
      "type": "function"
    },
    {
      "inputs": [
        {
          "internalType": "address",
          "name": "from",
          "type": "address"
        },
        {
          "internalType": "address",
          "name": "to",
          "type": "address"
        },
        {
          "internalType": "uint256",
          "name": "id",
          "type": "uint256"
        },
        {
          "internalType": "uint256",
          "name": "amount",
          "type": "uint256"
        },
        {
          "internalType": "bytes",
          "name": "data",
          "type": "bytes"
        }
      ],
      "name": "safeTransferFrom",
      "outputs": [],
      "stateMutability": "nonpayable",
      "type": "function"
    },
    {
      "inputs": [
        {
          "internalType": "address",
          "name": "operator",
          "type": "address"
        },
        {
          "internalType": "bool",
          "name": "approved",
          "type": "bool"
        }
      ],
      "name": "setApprovalForAll",
      "outputs": [],
      "stateMutability": "nonpayable",
      "type": "function"
    },
    {
      "inputs": [
        {
          "internalType": "bytes4",
          "name": "interfaceId",
          "type": "bytes4"
        }
      ],
      "name": "supportsInterface",
      "outputs": [
        {
          "internalType": "bool",
          "name": "",
          "type": "bool"
        }
      ],
      "stateMutability": "view",
      "type": "function"
    },
    {
      "inputs": [
        {
          "internalType": "uint256",
          "name": "",
          "type": "uint256"
        }
      ],
      "name": "uri",
      "outputs": [
        {
          "internalType": "string",
          "name": "",
          "type": "string"
        }
      ],
      "stateMutability": "view",
      "type": "function"
    }
  ],
  "bytecode": "0x608080604052346015576118aa908161001b8239f35b600080fdfe6080604052600436101561001257600080fd5b60003560e01c8062fdd58e14610f4c57806301ffc9a714610ede5780630e89341c14610dfd5780632eb2c2d6146109f3578063457e3ef8146108655780634826a69e1461071f5780634e1273f41461070557806380ae4ebc146105a557806393535a3814610518578063986275ce146104c2578063a22cb465146103de578063b017dde9146103b5578063cb25897c14610281578063e985e9c514610226578063f242432a146100f95763f851a440146100cb57600080fd5b346100f45760003660031901126100f45760ca546040516001600160a01b039091168152602090f35b600080fd5b346100f45760a03660031901126100f457610112610f73565b61011a610f89565b604435606435926084356001600160401b0381116100f45761014090369060040161107c565b506001600160a01b0316913283148015610203575b61015e906112bc565b6001600160a01b0316926101738415156114cc565b61017c8261177c565b506101868161177c565b508160005260cb6020526040600020836000526020526040600020546101ae82821015611526565b600083815260cb60209081526040808320878452909152808220928490039092558581522080546101e0908390611585565b9055604051918252602082015260008051602061185583398151915260403292a4005b50600083815260986020908152604080832032845290915290205460ff16610155565b346100f45760403660031901126100f45761023f610f73565b610247610f89565b9060018060a01b0316600052609860205260406000209060018060a01b0316600052602052602060ff604060002054166040519015158152f35b346100f45761028f366110d2565b6001600160a01b038316801593928415806103ac575b806103a3575b6102bd906102b761131f565b9061135a565b60209460006040516102cf8882610fe7565b52610354578083610340966102e560009461177c565b506102ef8261177c565b5082845260cb81526040842085855281526040842061030f838254611585565b905560405192835282015260008051602061185583398151915260403292a4610336611362565b91429233906115a8565b90610350604051928392836110fc565b0390f35b60405162461bcd60e51b815260048101869052602160248201527f455243313135353a206d696e7420746f20746865207a65726f206164647265736044820152607360f81b6064820152608490fd5b508015156102ab565b508215156102a5565b346100f45760003660031901126100f45760c9546040516001600160a01b039091168152602090f35b346100f45760403660031901126100f4576103f7610f73565b602435908115158092036100f4576001600160a01b03169032821461046b57326000526098602052604060002082600052602052604060002060ff1981541660ff83161790556040519081527f17307eab39ab6107e8899845ad3d59bd9653f200f220920489ca2b5937696c3160203292a3005b60405162461bcd60e51b815260206004820152602960248201527f455243313135353a2073657474696e6720617070726f76616c20737461747573604482015268103337b91039b2b63360b91b6064820152608490fd5b346100f45760403660031901126100f45760206105076104e0610f73565b602435906001600160a01b03811615158061050f575b610502906102b761131f565b6111f5565b604051908152f35b508115156104f6565b346100f45761052636611116565b908051825103610551576103509161053d916113ea565b6040519182916020835260208301906111c1565b60405162461bcd60e51b815260206004820152602660248201527f455243313135353a206163636f756e7473206c656e6774682063616e2774206260448201526565207a65726f60d01b6064820152608490fd5b346100f45760003660031901126100f45760405160206105c58183610fe7565b600082526105e360ff60005460081c166105de816116a9565b6116a9565b8151906001600160401b0382116106ef576105ff609954611282565b601f81116106a8575b5080601f831160011461064457508192600092610639575b5050600019600383901b1c191660019190911b17609955005b015190508280610620565b90601f19831693609960005282600020926000905b8682106106905750508360019510610677575b505050811b01609955005b015160001960f88460031b161c1916905582808061066c565b80600185968294968601518155019501930190610659565b609960005281600020601f840160051c8101918385106106e5575b601f0160051c01905b8181106106d95750610608565b600081556001016106cc565b90915081906106c3565b634e487b7160e01b600052604160045260246000fd5b346100f45761035061053d61071936611116565b906113ea565b346100f45760803660031901126100f45761034061073b610f73565b610743610f89565b9060643590604435906001600160a01b031680151580610853575b8061084a575b80610841575b610776906102b761131f565b60209160006040516107888582610fe7565b526001600160a01b0385169284906107a18515156114cc565b6107aa8361177c565b506107b48261177c565b508260005260cb815260406000208460005281526040600020546107da83821015611526565b8360005260cb82526040600020856000528252826040600020910390558260005260cb81526040600020856000528152604060002061081a838254611585565b905560405192835282015260008051602061185583398151915260403292a461033661138f565b5082151561076a565b50811515610764565b506001600160a01b038416151561075e565b346100f457610873366110d2565b9091906001600160a01b03821680158015806109ea575b806109e1575b61089c906102b761131f565b610990576108a98461177c565b506108b38261177c565b5060209360006040516108c68782610fe7565b528060005260978552604060002082600052855260406000205483811061093f576000928284926103409894845260978552604084208385528552866040852091039055604051908152858482015260008051602061185583398151915260403292a46109366040519182610fe7565b52610336611362565b60405162461bcd60e51b8152600481018790526024808201527f455243313135353a206275726e20616d6f756e7420657863656564732062616c604482015263616e636560e01b6064820152608490fd5b60405162461bcd60e51b815260206004820152602360248201527f455243313135353a206275726e2066726f6d20746865207a65726f206164647260448201526265737360e81b6064820152608490fd5b50841515610890565b5082151561088a565b346100f45760a03660031901126100f457610a0c610f73565b610a14610f89565b6044356001600160401b0381116100f457610a3390369060040161101f565b6064356001600160401b0381116100f457610a5290369060040161101f565b926084356001600160401b0381116100f457610a7290369060040161107c565b6001600160a01b03909116913283148015610dda575b610a91906112bc565b8051855103610d84576001600160a01b03841691610ab08315156114cc565b60005b8251811015610b375780610ac9600192856113c0565b51610ad4828a6113c0565b51908060005260976020526040806000206000908a82526020522054610afc83821015611526565b60009182526097602090815260408084208b855290915280832091849003909155878252902080549091610b2f91611585565b905501610ab3565b50938284604051604081527f4a39dc06d4c0dbc64b70af90fd698a233a518aa5d07e595d983b8c0526c8f7fb610b7060408301876111c1565b91808303602082015280610b8532948d6111c1565b0390a43b610b8f57005b6000610bce93610bf2602096610be0604051998a988997889663bc197c8160e01b8852326004890152602488015260a0604488015260a48701906111c1565b858103600319016064870152906111c1565b83810360031901608485015290610fc2565b03925af18091600091610d3a575b5090610ccb57600060033d11610cb9575b6308c379a014610c7e575b60405162461bcd60e51b815260206004820152603460248201527f455243313135353a207472616e7366657220746f206e6f6e2d455243313135356044820152732932b1b2b4bb32b91034b6b83632b6b2b73a32b960611b6064820152608490fd5b610c86611709565b80610c915750610c1c565b60405162461bcd60e51b815260206004820152908190610cb5906024830190610fc2565b0390fd5b5060046000803e60005160e01c610c11565b6001600160e01b0319166343e6837f60e01b01610ce457005b60405162461bcd60e51b815260206004820152602860248201527f455243313135353a204552433131353552656365697665722072656a656374656044820152676420746f6b656e7360c01b6064820152608490fd5b6020813d602011610d7c575b81610d5360209383610fe7565b81010312610d785751906001600160e01b031982168203610d75575082610c00565b80fd5b5080fd5b3d9150610d46565b60405162461bcd60e51b815260206004820152602860248201527f455243313135353a2069647320616e6420616d6f756e7473206c656e677468206044820152670dad2e6dac2e8c6d60c31b6064820152608490fd5b50600083815260986020908152604080832032845290915290205460ff16610a88565b346100f45760203660031901126100f4576040516000609954610e1f81611282565b8084529060018116908115610eba5750600114610e5b575b61035083610e4781850382610fe7565b604051918291602083526020830190610fc2565b609960009081527f72a152ddfb8e864297c917af52ea6c1c68aead0fee1a62673fcc7e0c94979d00939250905b808210610ea057509091508101602001610e47610e37565b919260018160209254838588010152019101909291610e88565b60ff191660208086019190915291151560051b84019091019150610e479050610e37565b346100f45760203660031901126100f45760043563ffffffff60e01b81168091036100f457602090636cdb3d1360e11b8114908115610f3b575b8115610f2a575b506040519015158152f35b6301ffc9a760e01b14905082610f1f565b6303a24d0760e21b81149150610f18565b346100f45760403660031901126100f4576020610507610f6a610f73565b602435906111f5565b600435906001600160a01b03821682036100f457565b602435906001600160a01b03821682036100f457565b60005b838110610fb25750506000910152565b8181015183820152602001610fa2565b90602091610fdb81518092818552858086019101610f9f565b601f01601f1916010190565b90601f801991011681019081106001600160401b038211176106ef57604052565b6001600160401b0381116106ef5760051b60200190565b9080601f830112156100f457813561103681611008565b926110446040519485610fe7565b81845260208085019260051b8201019283116100f457602001905b82821061106c5750505090565b813581526020918201910161105f565b81601f820112156100f4578035906001600160401b0382116106ef57604051926110b0601f8401601f191660200185610fe7565b828452602083830101116100f457816000926020809301838601378301015290565b60609060031901126100f4576004356001600160a01b03811681036100f457906024359060443590565b604090611113939281528160208201520190610fc2565b90565b9060406003198301126100f4576004356001600160401b0381116100f457826023820112156100f457806004013561114d81611008565b9161115b6040519384610fe7565b8183526024602084019260051b820101908582116100f457602401915b8183106111a15750505091602435906001600160401b0382116100f4576111139160040161101f565b82356001600160a01b03811681036100f457815260209283019201611178565b906020808351928381520192019060005b8181106111df5750505090565b82518452602093840193909201916001016111d2565b906001600160a01b0382161561122a5760005260cb60205260406000209060018060a01b031660005260205260406000205490565b60405162461bcd60e51b815260206004820152602a60248201527f455243313135353a2061646472657373207a65726f206973206e6f742061207660448201526930b634b21037bbb732b960b11b6064820152608490fd5b90600182811c921680156112b2575b602083101461129c57565b634e487b7160e01b600052602260045260246000fd5b91607f1691611291565b156112c357565b60405162461bcd60e51b815260206004820152602e60248201527f455243313135353a2063616c6c6572206973206e6f7420746f6b656e206f776e60448201526d195c881bdc88185c1c1c9bdd995960921b6064820152608490fd5b6040519061132e604083610fe7565b601c82527f4e6f2076616c75652073686f756c64206e6f74206265205a65726f2e000000006020830152565b15610c915750565b60405190611371604083610fe7565b600f82526e151150481513d2d15394c813525395608a1b6020830152565b6040519061139e604083610fe7565b60138252722a22a0902a27a5a2a729902a2920a729a322a960691b6020830152565b80518210156113d45760209160051b010190565b634e487b7160e01b600052603260045260246000fd5b91909180518351036114755780519061140282611008565b916114106040519384610fe7565b80835261141f601f1991611008565b0136602084013760005b815181101561146e5760019061145d6001600160a01b0361144a83866113c0565b511661145683896113c0565b51906111f5565b61146782866113c0565b5201611429565b5090925050565b60405162461bcd60e51b815260206004820152602960248201527f455243313135353a206163636f756e747320616e6420696473206c656e677468604482015268040dad2e6dac2e8c6d60bb1b6064820152608490fd5b156114d357565b60405162461bcd60e51b815260206004820152602560248201527f455243313135353a207472616e7366657220746f20746865207a65726f206164604482015264647265737360d81b6064820152608490fd5b1561152d57565b60405162461bcd60e51b815260206004820152602a60248201527f455243313135353a20696e73756666696369656e742062616c616e636520666f60448201526939103a3930b739b332b960b11b6064820152608490fd5b9190820180921161159257565b634e487b7160e01b600052601160045260246000fd5b90919294936040958651936115bd8886610fe7565b60078552665355434345535360c81b60208601526115e26115dc611362565b856117f3565b1561164d57907f3142fcbe227bc92f10fced29f317ca3c2f4163f46d7b64f988a6485dc210def39561161a93928951968796876117a7565b0390a15b61162a82519283610fe7565b601082526f5472616e73666572205375636365737360801b602083015260339190565b919061165a6115dc61138f565b61166a575b50505050505061161e565b7fc444fe7d48a24aa63a770b0ab4797132cbe097e5dce205425c8a1153234c66879561169b938951968796876117a7565b0390a138808080808061165f565b156116b057565b60405162461bcd60e51b815260206004820152602b60248201527f496e697469616c697a61626c653a20636f6e7472616374206973206e6f74206960448201526a6e697469616c697a696e6760a81b6064820152608490fd5b600060443d10611113576040513d600319016004823e8051913d60248401116001600160401b0384111761177657828201928351916001600160401b03831161176e573d8401600319018584016020011161176e575061111392910160200190610fe7565b949350505050565b92915050565b60409081519161178c8184610fe7565b600183526020830190601f19013682378251156113d4575290565b92969594916117d3906117c560a0969360c0875260c0870190610fc2565b908582036020870152610fc2565b6000196001861b0197881660408501529616606083015260808201520152565b604051611821602082816118108183019687815193849201610f9f565b81010301601f198101835282610fe7565b51902090604051611842602082816118108183019687815193849201610f9f565b5190201461184f57600090565b60019056fec3d58168c5ae7397731d063d5bbf3d657854427343f4c083240f7aacaa2d0f62a2646970667358221220593fab13ebb977efd8dbfda833db2d875841f84b87fca10bad1ccee975d4555c64736f6c634300081a0033",
  "linkReferences": {},
  "deployedLinkReferences": {}
}