{
  "_format": "hh-sol-artifact-1",
  "contractName": "ChaiContract",
  "sourceName": "contracts/ChaiContract.sol",
  "abi": [
    {
      "inputs": [],
      "stateMutability": "nonpayable",
      "type": "constructor"
    },
    {
      "inputs": [
        {
          "internalType": "address",
          "name": "owner",
          "type": "address"
        }
      ],
      "name": "OwnableInvalidOwner",
      "type": "error"
    },
    {
      "inputs": [
        {
          "internalType": "address",
          "name": "account",
          "type": "address"
        }
      ],
      "name": "OwnableUnauthorizedAccount",
      "type": "error"
    },
    {
      "inputs": [],
      "name": "ReentrancyGuardReentrantCall",
      "type": "error"
    },
    {
      "anonymous": false,
      "inputs": [
        {
          "indexed": false,
          "internalType": "string",
          "name": "txnType",
          "type": "string"
        },
        {
          "indexed": false,
          "internalType": "string",
          "name": "txnStatus",
          "type": "string"
        },
        {
          "indexed": false,
          "internalType": "uint256",
          "name": "quantity",
          "type": "uint256"
        },
        {
          "indexed": false,
          "internalType": "uint256",
          "name": "txnDate",
          "type": "uint256"
        }
      ],
      "name": "CupOfTeaReady",
      "type": "event"
    },
    {
      "anonymous": false,
      "inputs": [
        {
          "indexed": true,
          "internalType": "address",
          "name": "previousOwner",
          "type": "address"
        },
        {
          "indexed": true,
          "internalType": "address",
          "name": "newOwner",
          "type": "address"
        }
      ],
      "name": "OwnershipTransferred",
      "type": "event"
    },
    {
      "anonymous": false,
      "inputs": [
        {
          "indexed": false,
          "internalType": "string",
          "name": "txnType",
          "type": "string"
        },
        {
          "indexed": false,
          "internalType": "string",
          "name": "txnStatus",
          "type": "string"
        },
        {
          "indexed": false,
          "internalType": "uint256",
          "name": "quantity",
          "type": "uint256"
        },
        {
          "indexed": false,
          "internalType": "uint256",
          "name": "txnDate",
          "type": "uint256"
        }
      ],
      "name": "TeaDelievered",
      "type": "event"
    },
    {
      "anonymous": false,
      "inputs": [
        {
          "indexed": false,
          "internalType": "string",
          "name": "txnType",
          "type": "string"
        },
        {
          "indexed": false,
          "internalType": "string",
          "name": "txnStatus",
          "type": "string"
        },
        {
          "indexed": false,
          "internalType": "uint256",
          "name": "quantity",
          "type": "uint256"
        },
        {
          "indexed": false,
          "internalType": "uint256",
          "name": "txnDate",
          "type": "uint256"
        }
      ],
      "name": "TeaHarvested",
      "type": "event"
    },
    {
      "anonymous": false,
      "inputs": [
        {
          "indexed": false,
          "internalType": "string",
          "name": "txnType",
          "type": "string"
        },
        {
          "indexed": false,
          "internalType": "string",
          "name": "txnStatus",
          "type": "string"
        },
        {
          "indexed": false,
          "internalType": "uint256",
          "name": "quantity",
          "type": "uint256"
        },
        {
          "indexed": false,
          "internalType": "uint256",
          "name": "txnDate",
          "type": "uint256"
        }
      ],
      "name": "TeaProcessed",
      "type": "event"
    },
    {
      "anonymous": false,
      "inputs": [
        {
          "indexed": false,
          "internalType": "string",
          "name": "txnType",
          "type": "string"
        },
        {
          "indexed": false,
          "internalType": "string",
          "name": "txnStatus",
          "type": "string"
        },
        {
          "indexed": false,
          "internalType": "uint256",
          "name": "quantity",
          "type": "uint256"
        },
        {
          "indexed": false,
          "internalType": "uint256",
          "name": "txnDate",
          "type": "uint256"
        }
      ],
      "name": "TeaTokenPlayerRegistration",
      "type": "event"
    },
    {
      "anonymous": false,
      "inputs": [
        {
          "indexed": false,
          "internalType": "string",
          "name": "txnType",
          "type": "string"
        },
        {
          "indexed": false,
          "internalType": "string",
          "name": "txnStatus",
          "type": "string"
        },
        {
          "indexed": false,
          "internalType": "uint256",
          "name": "quantity",
          "type": "uint256"
        },
        {
          "indexed": false,
          "internalType": "uint256",
          "name": "txnDate",
          "type": "uint256"
        }
      ],
      "name": "TeaTransported",
      "type": "event"
    },
    {
      "inputs": [
        {
          "internalType": "string",
          "name": "_teaType",
          "type": "string"
        },
        {
          "internalType": "uint256",
          "name": "_quantity",
          "type": "uint256"
        }
      ],
      "name": "ACupOfTeaReady",
      "outputs": [
        {
          "internalType": "uint256",
          "name": "",
          "type": "uint256"
        },
        {
          "internalType": "string",
          "name": "",
          "type": "string"
        }
      ],
      "stateMutability": "nonpayable",
      "type": "function"
    },
    {
      "inputs": [
        {
          "internalType": "address",
          "name": "_proxyMultiTeaContractAdd",
          "type": "address"
        }
      ],
      "name": "_initialize",
      "outputs": [],
      "stateMutability": "nonpayable",
      "type": "function"
    },
    {
      "inputs": [
        {
          "internalType": "string[]",
          "name": "_harvestIds",
          "type": "string[]"
        },
        {
          "internalType": "uint256",
          "name": "_quantity",
          "type": "uint256"
        },
        {
          "internalType": "string",
          "name": "_quality",
          "type": "string"
        },
        {
          "internalType": "string",
          "name": "_batchId",
          "type": "string"
        },
        {
          "internalType": "string",
          "name": "_processorGSTNumber",
          "type": "string"
        }
      ],
      "name": "batchingHarvestByprocessor",
      "outputs": [
        {
          "internalType": "uint256",
          "name": "",
          "type": "uint256"
        },
        {
          "internalType": "string",
          "name": "",
          "type": "string"
        }
      ],
      "stateMutability": "nonpayable",
      "type": "function"
    },
    {
      "inputs": [
        {
          "internalType": "string",
          "name": "_harvestId",
          "type": "string"
        }
      ],
      "name": "getHarvestDetail",
      "outputs": [
        {
          "internalType": "string",
          "name": "",
          "type": "string"
        },
        {
          "internalType": "string",
          "name": "",
          "type": "string"
        },
        {
          "internalType": "string",
          "name": "",
          "type": "string"
        },
        {
          "internalType": "string",
          "name": "",
          "type": "string"
        },
        {
          "internalType": "uint256",
          "name": "",
          "type": "uint256"
        },
        {
          "internalType": "uint256",
          "name": "",
          "type": "uint256"
        },
        {
          "internalType": "string",
          "name": "",
          "type": "string"
        }
      ],
      "stateMutability": "view",
      "type": "function"
    },
    {
      "inputs": [],
      "name": "getOwner",
      "outputs": [
        {
          "internalType": "address",
          "name": "",
          "type": "address"
        }
      ],
      "stateMutability": "view",
      "type": "function"
    },
    {
      "inputs": [
        {
          "internalType": "string",
          "name": "_gstNumber",
          "type": "string"
        }
      ],
      "name": "getRegisteredTeaTokenPlayerDetail",
      "outputs": [
        {
          "internalType": "string",
          "name": "",
          "type": "string"
        },
        {
          "internalType": "string",
          "name": "",
          "type": "string"
        },
        {
          "internalType": "string",
          "name": "",
          "type": "string"
        },
        {
          "internalType": "string",
          "name": "",
          "type": "string"
        },
        {
          "internalType": "string",
          "name": "",
          "type": "string"
        },
        {
          "internalType": "string",
          "name": "",
          "type": "string"
        }
      ],
      "stateMutability": "view",
      "type": "function"
    },
    {
      "inputs": [
        {
          "internalType": "string",
          "name": "_harvestId",
          "type": "string"
        },
        {
          "internalType": "string",
          "name": "_gstNumber",
          "type": "string"
        },
        {
          "internalType": "string",
          "name": "_firmName",
          "type": "string"
        },
        {
          "internalType": "string",
          "name": "_location",
          "type": "string"
        },
        {
          "internalType": "string",
          "name": "_harvestDateTime",
          "type": "string"
        },
        {
          "internalType": "string",
          "name": "_teaTokenType",
          "type": "string"
        },
        {
          "internalType": "uint256",
          "name": "_quantity",
          "type": "uint256"
        },
        {
          "internalType": "string",
          "name": "_quality",
          "type": "string"
        }
      ],
      "name": "harvestByFarmer",
      "outputs": [
        {
          "internalType": "uint256",
          "name": "",
          "type": "uint256"
        },
        {
          "internalType": "string",
          "name": "",
          "type": "string"
        }
      ],
      "stateMutability": "nonpayable",
      "type": "function"
    },
    {
      "inputs": [],
      "name": "implementationAdd",
      "outputs": [
        {
          "internalType": "address",
          "name": "",
          "type": "address"
        }
      ],
      "stateMutability": "view",
      "type": "function"
    },
    {
      "inputs": [
        {
          "internalType": "uint256",
          "name": "_quantity",
          "type": "uint256"
        },
        {
          "internalType": "string",
          "name": "_teaTokenType",
          "type": "string"
        }
      ],
      "name": "mintTokenAdmin",
      "outputs": [
        {
          "internalType": "uint256",
          "name": "",
          "type": "uint256"
        },
        {
          "internalType": "string",
          "name": "",
          "type": "string"
        }
      ],
      "stateMutability": "nonpayable",
      "type": "function"
    },
    {
      "inputs": [],
      "name": "owner",
      "outputs": [
        {
          "internalType": "address",
          "name": "",
          "type": "address"
        }
      ],
      "stateMutability": "view",
      "type": "function"
    },
    {
      "inputs": [
        {
          "internalType": "string",
          "name": "_fullName",
          "type": "string"
        },
        {
          "internalType": "string",
          "name": "_firmName",
          "type": "string"
        },
        {
          "internalType": "string",
          "name": "_address",
          "type": "string"
        },
        {
          "internalType": "string",
          "name": "_mobileNumber",
          "type": "string"
        },
        {
          "internalType": "string",
          "name": "_gstNumber",
          "type": "string"
        },
        {
          "internalType": "string",
          "name": "_role",
          "type": "string"
        }
      ],
      "name": "registerTeaTokenPlayers",
      "outputs": [
        {
          "internalType": "uint256",
          "name": "",
          "type": "uint256"
        },
        {
          "internalType": "string",
          "name": "",
          "type": "string"
        }
      ],
      "stateMutability": "nonpayable",
      "type": "function"
    },
    {
      "inputs": [],
      "name": "renounceOwnership",
      "outputs": [],
      "stateMutability": "nonpayable",
      "type": "function"
    },
    {
      "inputs": [
        {
          "internalType": "string",
          "name": "_batchId",
          "type": "string"
        }
      ],
      "name": "teaPlacedInShelvesByRetailer",
      "outputs": [
        {
          "internalType": "uint256",
          "name": "",
          "type": "uint256"
        },
        {
          "internalType": "string",
          "name": "",
          "type": "string"
        }
      ],
      "stateMutability": "nonpayable",
      "type": "function"
    },
    {
      "inputs": [
        {
          "internalType": "string",
          "name": "_batchId",
          "type": "string"
        },
        {
          "internalType": "string",
          "name": "_harvestId",
          "type": "string"
        },
        {
          "internalType": "string[]",
          "name": "_storageDetail",
          "type": "string[]"
        },
        {
          "internalType": "string[]",
          "name": "_shipingDetail",
          "type": "string[]"
        }
      ],
      "name": "teaTokenTrackingByTransporter",
      "outputs": [
        {
          "internalType": "uint256",
          "name": "",
          "type": "uint256"
        },
        {
          "internalType": "string",
          "name": "",
          "type": "string"
        }
      ],
      "stateMutability": "nonpayable",
      "type": "function"
    },
    {
      "inputs": [
        {
          "internalType": "string",
          "name": "_batchId",
          "type": "string"
        }
      ],
      "name": "teaTokenTrackingHistoryFechByConsumer",
      "outputs": [
        {
          "internalType": "string",
          "name": "",
          "type": "string"
        },
        {
          "internalType": "string[]",
          "name": "",
          "type": "string[]"
        },
        {
          "internalType": "string[]",
          "name": "",
          "type": "string[]"
        },
        {
          "internalType": "string",
          "name": "",
          "type": "string"
        },
        {
          "internalType": "uint256",
          "name": "",
          "type": "uint256"
        },
        {
          "internalType": "string",
          "name": "",
          "type": "string"
        },
        {
          "internalType": "string",
          "name": "",
          "type": "string"
        },
        {
          "internalType": "string",
          "name": "",
          "type": "string"
        },
        {
          "internalType": "string",
          "name": "",
          "type": "string"
        },
        {
          "internalType": "string",
          "name": "",
          "type": "string"
        },
        {
          "internalType": "string",
          "name": "",
          "type": "string"
        }
      ],
      "stateMutability": "view",
      "type": "function"
    },
    {
      "inputs": [
        {
          "internalType": "address",
          "name": "newOwner",
          "type": "address"
        }
      ],
      "name": "transferOwnership",
      "outputs": [],
      "stateMutability": "nonpayable",
      "type": "function"
    }
  ],
  "bytecode": "0x60808060405234601f576001606555600060685561432190816100258239f35b600080fdfe6080604052600436101561001257600080fd5b60003560e01c8063011d3a9414612fae578063139e8bc814612199578063319775c41461214057806342fc839b14611e2857806355b4bc02146114e95780635894b6e7146113ce578063715018a614611364578063717d27e614610cfc578063893d20e814610cc65780638da5cb5b14610cc6578063ae725088146104f3578063b017dde9146104ca578063b60b02e114610421578063df742406146102b7578063e934262d146101085763f2fde38b146100cc57600080fd5b34610103576020366003190112610103576004356001600160a01b038116810361010357610101906100fc613923565b6138ad565b005b600080fd5b34610103576040366003190112610103576004356001600160401b038111610103576101389036906004016132ec565b6101b36024359133600052606c60205261018061015b60066040600020016135c2565b6020815191012061016a6136b1565b602081519101201461017a6136d7565b90613565565b6101ae60ff604051602081855161019a8183858a01613333565b81016067815203019020541661017a6137f6565b61411d565b606954604051634c313ae760e11b602082019081523360248301526044820184905292939260009283926001600160a01b039091169190839061020381606481015b03601f1981018352826132b0565b51925af1506102106134fa565b916020835193818082019586920101031261010357816102479351101561025b575b5061023b61387f565b90429133903390613959565b906102576040519283928361337b565b0390f35b6069546040516308afc7df60e31b6020820190815233602483015260448201939093526064810184905260009283926001600160a01b03169183906102a381608481016101f5565b51925af1506102b06134fa565b5082610232565b34610103576020366003190112610103576004356001600160401b0381116101035761031760206102ef6103df9336906004016132ec565b6103046102fb82613d2d565b1561017a61378e565b8160405193828580945193849201613333565b8101606d81520301902061025760405161033081613294565b82548152610340600184016135c2565b9260208201938452610354600282016135c2565b906040830191825261040961036b600383016135c2565b91606085019283526103fb610382600483016135c2565b93608087019485526103ed60058401549160a089019283526103a6600686016135c2565b948560c08b0152600760018060a01b039101541660e08a01525199519651915197519551966040519b8c9b60e08d5260e08d0190613356565b908b820360208d0152613356565b9089820360408b0152613356565b908782036060890152613356565b92608086015260a085015283820360c0850152613356565b34610103576020366003190112610103576004356001600160401b038111610103576104546102479136906004016132ec565b33600052606c60205261047061015b60066040600020016135c2565b61047981613e7c565b6104b8602060c08301519201519161049760018060a01b0391613f77565b511692836104b160206104aa3394613df4565b0151614016565b5184614158565b506104c1613853565b42923391613959565b34610103576000366003190112610103576066546040516001600160a01b039091168152602090f35b3461010357610100366003190112610103576004356001600160401b038111610103576105249036906004016132ec565b6024356001600160401b038111610103576105439036906004016132ec565b6044356001600160401b038111610103576105629036906004016132ec565b916064356001600160401b038111610103576105829036906004016132ec565b906084356001600160401b038111610103576105a29036906004016132ec565b9060a4356001600160401b038111610103576105c29036906004016132ec565b9260c4359460e4356001600160401b038111610103576105e69036906004016132ec565b9633600052606c60205261061261060360066040600020016135c2565b6020815191012061016a613666565b61061b84613d2d565b159182610cb3575b5081610ca2575b5080610c92575b80610c82575b80610c72575b80610c69575b80610c54575b6106559061017a61352a565b61065e8461411d565b9361066f606854151561017a6137f6565b6040519361067c85613294565b858552602085019284845260408601908152606086019182526080860192835260a086019388855260c08701998a526106cb602060e08901973389528160405193828580945193849201613333565b8101606d815203019020965187556001870190518051906001600160401b0382116109b9576106fa83546134a9565b601f8111610c22575b50602090601f8311600114610bbb57610735929160009183610bb0575b50508160011b916000199060031b1c19161790565b90555b51805160028701916001600160401b0382116109b95761075883546134a9565b601f8111610b7e575b50602090601f8311600114610b1757610792929160009183610b0c5750508160011b916000199060031b1c19161790565b90555b51805160038601916001600160401b0382116109b9576107b583546134a9565b601f8111610ada575b50602090601f8311600114610a73576107ef9291600091836108ff5750508160011b916000199060031b1c19161790565b90555b51805160048501916001600160401b0382116109b95761081283546134a9565b601f8111610a41575b50602090601f83116001146109da5761084c9291600091836109cf5750508160011b916000199060031b1c19161790565b90555b5160058301556006820194519485516001600160401b0381116109b95761087682546134a9565b601f811161097c575b506020601f821160011461090a57916108bc826108ea979695936007956102479b6000926108ff5750508160011b916000199060031b1c19161790565b90555b51910180546001600160a01b0319166001600160a01b03929092169190911790553090339084614158565b506108f3613828565b90429133903090613959565b015190508b80610720565b601f1982169783600052816000209860005b8181106109645750926102479960079593600193836108ea9b9a99971061094b575b505050811b0190556108bf565b015160001960f88460031b161c191690558a808061093e565b838301518b556001909a01996020938401930161091c565b6109a990836000526020600020601f840160051c810191602085106109af575b601f0160051c01906134e3565b8761087f565b909150819061099c565b634e487b7160e01b600052604160045260246000fd5b015190508a80610720565b90601f1983169184600052816000209260005b818110610a295750908460019594939210610a10575b505050811b01905561084f565b015160001960f88460031b161c19169055898080610a03565b929360206001819287860151815501950193016109ed565b610a6d90846000526020600020601f850160051c810191602086106109af57601f0160051c01906134e3565b8961081b565b90601f1983169184600052816000209260005b818110610ac25750908460019594939210610aa9575b505050811b0190556107f2565b015160001960f88460031b161c191690558a8080610a9c565b92936020600181928786015181550195019301610a86565b610b0690846000526020600020601f850160051c810191602086106109af57601f0160051c01906134e3565b8a6107be565b015190508c80610720565b90601f1983169184600052816000209260005b818110610b665750908460019594939210610b4d575b505050811b019055610795565b015160001960f88460031b161c191690558b8080610b40565b92936020600181928786015181550195019301610b2a565b610baa90846000526020600020601f850160051c810191602086106109af57601f0160051c01906134e3565b8b610761565b015190508d80610720565b90601f1983169184600052816000209260005b818110610c0a5750908460019594939210610bf1575b505050811b019055610738565b015160001960f88460031b161c191690558c8080610be4565b92936020600181928786015181550195019301610bce565b610c4e90846000526020600020601f850160051c810191602086106109af57601f0160051c01906134e3565b8c610703565b50610655610c6187613d2d565b159050610649565b50841515610643565b50610c7c84613d2d565b1561063d565b50610c8c83613d2d565b15610637565b50610c9c81613d2d565b15610631565b610cac9150613d2d565b158761062a565b610cbe919250613d2d565b159088610623565b34610103576000366003190112610103576000805160206142cc833981519152546040516001600160a01b039091168152602090f35b34610103576080366003190112610103576004356001600160401b03811161010357610d2c9036906004016132ec565b6024356001600160401b03811161010357610d4b9036906004016132ec565b906044356001600160401b03811161010357610d6b903690600401613405565b6064356001600160401b03811161010357610d8a903690600401613405565b92610dc7602060405194610d9d86613279565b80865281860193845260408601948552606086019687528160405193828580945193849201613333565b8101606f81520301902092518051906001600160401b0382116109b957610dee85546134a9565b601f8111611332575b50602090601f83116001146112cb57610e289291600091836112275750508160011b916000199060031b1c19161790565b83555b51805160018401916001600160401b0382116109b957610e4b83546134a9565b601f8111611299575b50602090601f831160011461123257610e859291600091836112275750508160011b916000199060031b1c19161790565b90555b5180516002830191600160401b82116109b95782548284558083106111a9575b50602001916000526020600020916000905b82821061109c57855180516003870191600160401b82116109b957825482845580831061101e575b50602001916000526020600020916000905b828210610f1157610247610f066137c9565b429033903390613b5f565b80518051906001600160401b0382116109b957610f2e86546134a9565b601f8111610fec575b50602090601f8311600114610f7f5792610f70836001959460209487966000926109cf5750508160011b916000199060031b1c19161790565b87555b01940191019092610ef4565b90601f1983169187600052816000209260005b818110610fd45750936020936001969387969383889510610fbb575b505050811b018755610f73565b015160001960f88460031b161c19169055898080610fae565b92936020600181928786015181550195019301610f92565b61101890876000526020600020601f850160051c810191602086106109af57601f0160051c01906134e3565b86610f37565b8360005282602060002091820191015b81811061103b5750610ee2565b80611048600192546134a9565b80611055575b500161102e565b601f8111831461106b5750600081555b8661104e565b611089908260005283601f6020600020920160051c820191016134e3565b8060005260006020812081835555611065565b80518051906001600160401b0382116109b9576110b986546134a9565b601f8111611177575b50602090601f831160011461110a57926110fb83600195946020948796600092610b0c5750508160011b916000199060031b1c19161790565b87555b01940191019092610eba565b90601f1983169187600052816000209260005b81811061115f5750936020936001969387969383889510611146575b505050811b0187556110fe565b015160001960f88460031b161c191690558b8080611139565b9293602060018192878601518155019501930161111d565b6111a390876000526020600020601f850160051c810191602086106109af57601f0160051c01906134e3565b886110c2565b8360005282602060002091820191015b8181106111c65750610ea8565b806111d3600192546134a9565b806111e0575b50016111b9565b601f811183146111f65750600081555b886111d9565b611214908260005283601f6020600020920160051c820191016134e3565b80600052600060208120818355556111f0565b015190508780610720565b90601f1983169184600052816000209260005b8181106112815750908460019594939210611268575b505050811b019055610e88565b015160001960f88460031b161c1916905586808061125b565b92936020600181928786015181550195019301611245565b6112c590846000526020600020601f850160051c810191602086106109af57601f0160051c01906134e3565b86610e54565b90601f1983169186600052816000209260005b81811061131a5750908460019594939210611301575b505050811b018355610e2b565b015160001960f88460031b161c191690558680806112f4565b929360206001819287860151815501950193016112de565b61135e90866000526020600020601f850160051c810191602086106109af57601f0160051c01906134e3565b86610df7565b346101035760003660031901126101035761137d613923565b6000805160206142cc83398151915280546001600160a01b031981169091556000906001600160a01b03167f8be0079c531659141344cd1fd0a4f28419497f9722a3daafe3b4186f6b6457e08280a3005b34610103576020366003190112610103576004356001600160401b0381116101035761140660206102ef6103df9336906004016132ec565b8101606b81520301902061025760c06114db604051936114258561325e565b80546001600160a01b031685526114cd611441600183016135c2565b95602081019687526103fb611458600285016135c2565b91604081019283526103ed61146f600387016135c2565b9360608301948552611483600488016135c2565b92608081019384526114aa600661149c60058b016135c2565b9960a084019a8b52016135c2565b998a910152519951955191519351956040519b8c9b60c08d5260c08d0190613356565b908582036080870152613356565b9083820360a0850152613356565b346101035760a0366003190112610103576004356001600160401b03811161010357611519903690600401613405565b6024356044356001600160401b0381116101035761153b9036906004016132ec565b916064356001600160401b0381116101035761155b9036906004016132ec565b906084356001600160401b0381116101035761157b9036906004016132ec565b33600052606c6020526115a661159760066040600020016135c2565b6020815191012061016a61368a565b8151151580611e1f575b80611e0f575b80611dfa575b6115c89061017a61352a565b60005b825160ff8216908110156116455790816115f16115eb611640948761374f565b51613483565b546115fb82613719565b52600561160b6115eb838861374f565b015461161682613719565b5261163a6001600160a01b0360076116316115eb858a61374f565b01541691613719565b52613708565b6115cb565b50509291611651613742565b5190604051926116608461325e565b835260208301958487526040840190815260608401968288526116a76020608087019433865260a0880196875260c08801998a528160405193828580945193849201613333565b8101606e8152030190209451805190600160401b82116109b9578654828855808310611d7c575b50600087815260208082209392015b828210611c6457505050505160018501556002840190518051906001600160401b0382116109b95761170f83546134a9565b601f8111611c32575b50602090601f8311600114611bcb576117499291600091836109cf5750508160011b916000199060031b1c19161790565b90555b6003830195519586516001600160401b0381116109b95761176d82546134a9565b601f8111611b99575b506020601f8211600114611b2f5790806117ab92600698999a6000926109cf5750508160011b916000199060031b1c19161790565b90555b516004830180546001600160a01b0319166001600160a01b039290921691909117905551600582015592518051909391909101906001600160401b0381116109b9576117fa82546134a9565b601f8111611afd575b506020601f8211600114611a98578190611835939495600092611a8d5750508160011b916000199060031b1c19161790565b90555b60018060a01b03606954166040516020810190633d06226d60e11b82526064810160406024830152606051809152608482019060809060005b818110611a6e57505050602319828203016044830152602060605191828152019060809060005b818110611a5857876000808989828a6118ba818c03601f1981018352826132b0565b51925af1506118c76134fa565b908151820191602081818501940312610103576020810151906001600160401b03821161010357019180603f84011215610103576020830151611909816133ee565b9361191760405195866132b0565b8185526020808087019360051b8301010192831161010357604001905b828210611a48575050506000916000925b815184101561198357611958848361374f565b51810180911161196d57600190930192611945565b634e487b7160e01b600052601160045260246000fd5b82915010156119b5575b61024790611999613763565b906001600160a01b036119aa613742565b511642923390613959565b60005b60605160ff821690811015611a4157606954611a3c929160009182916001600160a01b039182169183906119eb83613719565b511691611a29611a046119fd83613719565b5192613719565b51916101f56040519384926020840197632413534f60e11b89523390602486016140f3565b51925af150611a366134fa565b50613708565b6119b8565b505061198d565b8151815260209182019101611934565b8251845260209384019390920191600101611898565b82516001600160a01b0316845260209384019390920191600101611871565b015190508580610720565b601f1982169083600052806000209160005b818110611ae557509583600195969710611acc575b505050811b019055611838565b015160001960f88460031b161c19169055848080611abf565b9192602060018192868b015181550194019201611aaa565b611b2990836000526020600020601f840160051c810191602085106109af57601f0160051c01906134e3565b84611803565b601f1982169883600052816000209960005b818110611b81575091600698999a91846001959410611b68575b505050811b0190556117ae565b015160001960f88460031b161c19169055898080611b5b565b838301518c556001909b019a60209384019301611b41565b611bc590836000526020600020601f840160051c810191602085106109af57601f0160051c01906134e3565b88611776565b90601f1983169184600052816000209260005b818110611c1a5750908460019594939210611c01575b505050811b01905561174c565b015160001960f88460031b161c19169055898080611bf4565b92936020600181928786015181550195019301611bde565b611c5e90846000526020600020601f850160051c810191602086106109af57601f0160051c01906134e3565b89611718565b80518051906001600160401b0382116109b957611c8186546134a9565b601f8111611d4a575b50602090601f8311600114611cdd5792611cc383600195946020948796600092611cd25750508160011b916000199060031b1c19161790565b87555b019401910190926116dd565b015190503880610720565b90601f1983169187600052816000209260005b818110611d325750936020936001969387969383889510611d19575b505050811b018755611cc6565b015160001960f88460031b161c19169055388080611d0c565b92936020600181928786015181550195019301611cf0565b611d7690876000526020600020601f850160051c810191602086106109af57601f0160051c01906134e3565b8e611c8a565b8760005282602060002091820191015b818110611d9957506116ce565b80611da6600192546134a9565b80611db3575b5001611d8c565b601f81118314611dc95750600081555b8d611dac565b611de7908260005283601f6020600020920160051c820191016134e3565b8060005260006020812081835555611dc3565b506115c8611e0784613d2d565b1590506115bc565b50611e1985613d2d565b156115b6565b508315156115b0565b34610103576020366003190112610103576004356001600160401b03811161010357611e589036906004016132ec565b33600052606c602052611e7160066040600020016135c2565b805160208201908120611e82613666565b6020815191012014159182612123575b826120ed575b826120d0575b5050611ea86136d7565b611eb191613565565b611eba81613df4565b9060208201516040830151926060015190611ed483613e7c565b9060c0820151916020810151906040015192611eef81613f77565b6040015192611efd90614016565b6060810151608082015160e0909201516001600160a01b031695919490939091611f25613f40565b50611f2f87614258565b1596606097604051611f418a826132b0565b602281527f4163636f756e74204e756d6265722073686f756c64206e6f7420626520656d70602082015261747960f01b6040820152611f7f91613565565b600052606c602052604060002096604051611f998161325e565b88546001600160a01b03168152611fb260018a016135c2565b6020820152611fc360028a016135c2565b6040820190815290611fd760038b016135c2565b81840152611fe760048b016135c2565b6080820152611ff860058b016135c2565b9960a082019a8b5260060161200c906135c2565b9060c00152519751986040519b8c9b6101608d526101608d0161202e91613356565b8c810360208e015261203f91613395565b8b810360408d015261205091613395565b908a8203908b015261206191613356565b90608089015287810360a089015261207891613356565b86810360c088015261208991613356565b85810360e087015261209a91613356565b8481036101008601526120ac91613356565b8381036101208501526120be91613356565b82810361014084015261025791613356565b51902090506120dd6136b1565b6020815191012014158280611e9e565b809250518120600b60206040516121056040826132b0565b828152016a2a3930b739b837b93a32b960a91b815220141591611e98565b80925051812061213161368a565b60208151910120141591611e92565b34610103576020366003190112610103576004356001600160a01b038116908190036101035760018060a01b0319606954161760695561219060ff60005460081c1661218b81613d3c565b613d3c565b610101336138ad565b346101035760c0366003190112610103576004356001600160401b038111610103576121c99036906004016132ec565b6024356001600160401b038111610103576121e89036906004016132ec565b6044356001600160401b038111610103576122079036906004016132ec565b916064356001600160401b038111610103576122279036906004016132ec565b6084356001600160401b038111610103576122469036906004016132ec565b9360a4356001600160401b038111610103576122669036906004016132ec565b9361227084613d2d565b1580612f9e575b80612f8e575b80612f7e575b80612f6e575b80612f59575b61229b9061017a61352a565b6040516122a78161325e565b338082526020808301878152604080850186815260608601888152608087018a815260a088018e815260c089018e81526000988952606c90975293909620965187546001600160a01b0319166001600160a01b039190911617875592518051949695929492939260018701916001600160401b0382116109b95761232b83546134a9565b601f8111612f27575b50602090601f8311600114612ec057612365929160009183611cd25750508160011b916000199060031b1c19161790565b90555b51805160028601916001600160401b0382116109b95761238883546134a9565b601f8111612e8e575b50602090601f8311600114612e27576123c2929160009183612e1c5750508160011b916000199060031b1c19161790565b90555b51805160038501916001600160401b0382116109b9576123e583546134a9565b601f8111612dea575b50602090601f8311600114612d835761241f929160009183612d785750508160011b916000199060031b1c19161790565b90555b51805160048401916001600160401b0382116109b95761244283546134a9565b601f8111612d46575b50602090601f8311600114612cdf5761247c929160009183610bb05750508160011b916000199060031b1c19161790565b90555b51805160058301916001600160401b0382116109b95761249f83546134a9565b601f8111612cad575b50602090601f8311600114612c425791806124de926006969594600092610bb05750508160011b916000199060031b1c19161790565b90555b0190518051906001600160401b0382116109b9576124ff83546134a9565b601f8111612c10575b50602090601f8311600114612ba9576125399291600091836109cf5750508160011b916000199060031b1c19161790565b90555b604051936125498561325e565b3385526020850190815260408501918252606085019283526080850193845261258f602060a0870198808a5260c088019889528160405193828580945193849201613333565b606b90820190815203019020945185546001600160a01b0319166001600160a01b039190911617855551805160018601916001600160401b0382116109b9576125d883546134a9565b601f8111612b77575b50602090601f8311600114612b10576126129291600091836109cf5750508160011b916000199060031b1c19161790565b90555b51805160028501916001600160401b0382116109b95761263583546134a9565b601f8111612ade575b50602090601f8311600114612a775761266f929160009183612a6c5750508160011b916000199060031b1c19161790565b90555b51805160038401916001600160401b0382116109b95761269283546134a9565b601f8111612a3a575b50602090601f83116001146129d3576126cc9291600091836129c85750508160011b916000199060031b1c19161790565b90555b51805160048301916001600160401b0382116109b9576126ef83546134a9565b601f8111612996575b50602090601f831160011461292f576127299291600091836112275750508160011b916000199060031b1c19161790565b90555b6005810192519283516001600160401b0381116109b95761274d82546134a9565b601f81116128fd575b506020601f821160011461289457908061278a92600696976000926112275750508160011b916000199060031b1c19161790565b90555b0190519081516001600160401b0381116109b9576127ab82546134a9565b601f8111612862575b50602092601f82116001146127ff576127e6929382916000926127f45750508160011b916000199060031b1c19161790565b90555b610247610f06613595565b015190508480610720565b601f1982169383600052806000209160005b86811061284a5750836001959610612831575b505050811b0190556127e9565b015160001960f88460031b161c19169055838080612824565b91926020600181928685015181550194019201612811565b61288e90836000526020600020601f840160051c810191602085106109af57601f0160051c01906134e3565b836127b4565b601f1982169583600052816000209660005b8181106128e557509160069697918460019594106128cc575b505050811b01905561278d565b015160001960f88460031b161c191690558680806128bf565b838301518955600190980197602093840193016128a6565b61292990836000526020600020601f840160051c810191602085106109af57601f0160051c01906134e3565b85612756565b90601f1983169184600052816000209260005b81811061297e5750908460019594939210612965575b505050811b01905561272c565b015160001960f88460031b161c19169055868080612958565b92936020600181928786015181550195019301612942565b6129c290846000526020600020601f850160051c810191602086106109af57601f0160051c01906134e3565b866126f8565b015190508880610720565b90601f1983169184600052816000209260005b818110612a225750908460019594939210612a09575b505050811b0190556126cf565b015160001960f88460031b161c191690558780806129fc565b929360206001819287860151815501950193016129e6565b612a6690846000526020600020601f850160051c810191602086106109af57601f0160051c01906134e3565b8761269b565b015190508980610720565b90601f1983169184600052816000209260005b818110612ac65750908460019594939210612aad575b505050811b019055612672565b015160001960f88460031b161c19169055888080612aa0565b92936020600181928786015181550195019301612a8a565b612b0a90846000526020600020601f850160051c810191602086106109af57601f0160051c01906134e3565b8861263e565b90601f1983169184600052816000209260005b818110612b5f5750908460019594939210612b46575b505050811b019055612615565b015160001960f88460031b161c19169055898080612b39565b92936020600181928786015181550195019301612b23565b612ba390846000526020600020601f850160051c810191602086106109af57601f0160051c01906134e3565b896125e1565b90601f1983169184600052816000209260005b818110612bf85750908460019594939210612bdf575b505050811b01905561253c565b015160001960f88460031b161c19169055898080612bd2565b92936020600181928786015181550195019301612bbc565b612c3c90846000526020600020601f850160051c810191602086106109af57601f0160051c01906134e3565b89612508565b90601f1983169184600052816000209260005b818110612c95575091600193918560069897969410612c7c575b505050811b0190556124e1565b015160001960f88460031b161c191690558c8080612c6f565b92936020600181928786015181550195019301612c55565b612cd990846000526020600020601f850160051c810191602086106109af57601f0160051c01906134e3565b8b6124a8565b90601f1983169184600052816000209260005b818110612d2e5750908460019594939210612d15575b505050811b01905561247f565b015160001960f88460031b161c191690558c8080612d08565b92936020600181928786015181550195019301612cf2565b612d7290846000526020600020601f850160051c810191602086106109af57601f0160051c01906134e3565b8c61244b565b015190508e80610720565b90601f1983169184600052816000209260005b818110612dd25750908460019594939210612db9575b505050811b019055612422565b015160001960f88460031b161c191690558d8080612dac565b92936020600181928786015181550195019301612d96565b612e1690846000526020600020601f850160051c810191602086106109af57601f0160051c01906134e3565b8d6123ee565b015190508f80610720565b90601f1983169184600052816000209260005b818110612e765750908460019594939210612e5d575b505050811b0190556123c5565b015160001960f88460031b161c191690558e8080612e50565b92936020600181928786015181550195019301612e3a565b612eba90846000526020600020601f850160051c810191602086106109af57601f0160051c01906134e3565b8e612391565b90601f1983169184600052816000209260005b818110612f0f5750908460019594939210612ef6575b505050811b019055612368565b015160001960f88460031b161c191690558f8080612ee9565b92936020600181928786015181550195019301612ed3565b612f5390846000526020600020601f850160051c810191602086106109af57601f0160051c01906134e3565b8f612334565b5061229b612f6686613d2d565b15905061228f565b50612f7886613d2d565b15612289565b50612f8883613d2d565b15612283565b50612f9882613d2d565b1561227d565b50612fa881613d2d565b15612277565b34610103576040366003190112610103576004356024356001600160401b03811161010357612fe19036906004016132ec565b90612fea613923565b60405160ff83519160208181870194613004818388613333565b8101606781520301902054161561306b575b6102578261305e60409182519061302d84836132b0565b6019825278544f4b454e204d494e544544205355434345535346554c4c5960381b6020830152429133903090613959565b929091519283928361337b565b6068546001810180911161196d57606855604051602081855161308f818387613333565b81016067815203019020600160ff1982541617905560685460405190604082018281106001600160401b038211176109b9576001936130e892602092604052845281840196808852604051938492839251928391613333565b8101606a81520301902090518155019151918251926001600160401b0384116109b95761311582546134a9565b601f811161322c575b50602090601f85116001146131c257938061315392610257966000926131b75750508160011b916000199060031b1c19161790565b90555b6069546068546040516332c9625f60e21b6020820190815230602483015260448201929092526064810184905260009283926001600160a01b039091169183906131a381608481016101f5565b51925af1506131b06134fa565b5082613016565b015190508680610720565b90601f1985169183600052816000209260005b81811061321457509160019391876102579894106131fb575b505050811b019055613156565b015160001960f88460031b161c191690558580806131ee565b929360206001819287860151815501950193016131d5565b61325890836000526020600020601f870160051c810191602088106109af57601f0160051c01906134e3565b8461311e565b60e081019081106001600160401b038211176109b957604052565b608081019081106001600160401b038211176109b957604052565b61010081019081106001600160401b038211176109b957604052565b90601f801991011681019081106001600160401b038211176109b957604052565b6001600160401b0381116109b957601f01601f191660200190565b81601f8201121561010357803590613303826132d1565b9261331160405194856132b0565b8284526020838301011161010357816000926020809301838601378301015290565b60005b8381106133465750506000910152565b8181015183820152602001613336565b9060209161336f81518092818552858086019101613333565b601f01601f1916010190565b604090613392939281528160208201520190613356565b90565b9080602083519182815201916020808360051b8301019401926000915b8383106133c157505050505090565b90919293946020806133df600193601f198682030187528951613356565b970193019301919392906133b2565b6001600160401b0381116109b95760051b60200190565b9080601f8301121561010357813561341c816133ee565b9261342a60405194856132b0565b81845260208085019260051b820101918383116101035760208201905b83821061345657505050505090565b81356001600160401b03811161010357602091613478878480948801016132ec565b815201910190613447565b602061349c918160405193828580945193849201613333565b8101606d81520301902090565b90600182811c921680156134d9575b60208310146134c357565b634e487b7160e01b600052602260045260246000fd5b91607f16916134b8565b8181106134ee575050565b600081556001016134e3565b3d15613525573d9061350b826132d1565b9161351960405193846132b0565b82523d6000602084013e565b606090565b604051906135396040836132b0565b602082527f4e6f2076616c75652073686f756c6420626520656d707479206f72207a65726f6020830152565b1561356d5750565b60405162461bcd60e51b815260206004820152908190613591906024830190613356565b0390fd5b604051906135a46040836132b0565b600f82526e1554d15488149151d254d511549151608a1b6020830152565b90604051918260008254926135d6846134a9565b808452936001811690811561364457506001146135fd575b506135fb925003836132b0565b565b90506000929192526020600020906000915b8183106136285750509060206135fb92820101386135ee565b602091935080600191548385890101520191019091849261360f565b9050602092506135fb94915060ff191682840152151560051b820101386135ee565b604051906136756040836132b0565b60068252652330b936b2b960d11b6020830152565b604051906136996040836132b0565b6009825268283937b1b2b9b9b7b960b91b6020830152565b604051906136c06040836132b0565b60088252672932ba30b4b632b960c11b6020830152565b604051906136e66040836132b0565b60138252722737ba1020baba3437b934bd32b2102ab9b2b960691b6020830152565b60ff1660ff811461196d5760010190565b60605181101561372c5760051b60800190565b634e487b7160e01b600052603260045260246000fd5b6060511561372c57608090565b805182101561372c5760209160051b010190565b604051906137726040836132b0565b600d82526c15115048141493d0d154d4d151609a1b6020830152565b6040519061379d6040836132b0565b601e82527f475354204e756d6265722073686f756c64206e6f7420626520656d70747900006020830152565b604051906137d86040836132b0565b600f82526e151150481514905394d413d4951151608a1b6020830152565b604051906138056040836132b0565b6014825273151bdad95b88191bd95cc81b9bdd08195e1a5cdd60621b6020830152565b604051906138376040836132b0565b600d82526c15115048121054959154d51151609a1b6020830152565b604051906138626040836132b0565b600e82526d151150481111531251559154915160921b6020830152565b6040519061388e6040836132b0565b601082526f435550204f462054454120524541445960801b6020830152565b6001600160a01b0316801561390d576000805160206142cc83398151915280546001600160a01b0319811683179091556001600160a01b03167f8be0079c531659141344cd1fd0a4f28419497f9722a3daafe3b4186f6b6457e0600080a3565b631e4fbdf760e01b600052600060045260246000fd5b6000805160206142cc833981519152546001600160a01b0316320361394457565b63118cdaa760e01b6000523260045260246000fd5b94939291505060409384519161396f86846132b0565b60078352665355434345535360c81b602084015261399461398e613595565b8361426a565b156139fd577f9221943055d762887fa3ad9d36e966ba8b8a13bbf34004ae031cdaa62b5c55e9936139ca91875194859485614223565b0390a15b6139da825192836132b0565b601082526f5472616e73666572205375636365737360801b602083015260339190565b613a0861398e613828565b15613a46577f2da02ed6e7d6c0954e91580e907a661bc17262b43b9b694497f741db078717e293613a3e91875194859485614223565b0390a16139ce565b613a5161398e613763565b15613a87577f5ee0b295c9621913d21a48fa7fa31ed6735be2290a6cc08daccd3ded9608b71f93613a3e91875194859485614223565b613a9261398e6137c9565b15613ac8577f710392cf7e41003bd46adf859a75dbf65bb541fe54b1c838bdcb1aa820b3e22093613a3e91875194859485614223565b613ad361398e613853565b15613b09577fcfdd1b71f2ba0269e6c149a8be2f7d9b30119587686ba15809a877f00b50911593613a3e91875194859485614223565b613b1461398e61387f565b613b22575b505050506139ce565b7f5a7cde9945df01bf6c89a0acbc121569bada3b139acbfa3e8b41538a225566b193613b5391875194859485614223565b0390a138808080613b19565b9392915050604092835190613b7485836132b0565b60078252665355434345535360c81b6020830152613b99613b93613595565b8261426a565b15613bd0576139ca7f9221943055d762887fa3ad9d36e966ba8b8a13bbf34004ae031cdaa62b5c55e9936000875194859485614223565b613bdb613b93613828565b15613c1257613a3e7f2da02ed6e7d6c0954e91580e907a661bc17262b43b9b694497f741db078717e2936000875194859485614223565b613c1d613b93613763565b15613c5457613a3e7f5ee0b295c9621913d21a48fa7fa31ed6735be2290a6cc08daccd3ded9608b71f936000875194859485614223565b613c5f613b936137c9565b15613c9657613a3e7f710392cf7e41003bd46adf859a75dbf65bb541fe54b1c838bdcb1aa820b3e220936000875194859485614223565b613ca1613b93613853565b15613cd857613a3e7fcfdd1b71f2ba0269e6c149a8be2f7d9b30119587686ba15809a877f00b509115936000875194859485614223565b613ce3613b9361387f565b613cf0575b5050506139ce565b613d227f5a7cde9945df01bf6c89a0acbc121569bada3b139acbfa3e8b41538a225566b1936000875194859485614223565b0390a1388080613ce8565b51613d3757600190565b600090565b15613d4357565b60405162461bcd60e51b815260206004820152602b60248201527f496e697469616c697a61626c653a20636f6e7472616374206973206e6f74206960448201526a6e697469616c697a696e6760a81b6064820152608490fd5b908154613da8816133ee565b92613db660405194856132b0565b818452602084019060005260206000206000915b838310613dd75750505050565b600160208192613de6856135c2565b815201920192019190613dca565b6020613e2591606080604051613e0981613279565b818152818582015281604082015201526103046102fb82613d2d565b8101606f815203019020613e74600360405192613e4184613279565b613e4a816135c2565b8452613e58600182016135c2565b6020850152613e6960028201613d9c565b604085015201613d9c565b606082015290565b6020613ec291606060c0604051613e928161325e565b828152600085820152826040820152828082015260006080820152600060a082015201526103046102fb82613d2d565b8101606e815203019020613f38600660405192613ede8461325e565b613ee781613d9c565b845260018101546020850152613eff600282016135c2565b6040850152613f10600382016135c2565b606085015260048101546001600160a01b03166080850152600581015460a0850152016135c2565b60c082015290565b60405190613f4d8261325e565b606060c0836000815282602082015282604082015282808201528260808201528260a08201520152565b6020613f9291613f85613f40565b506103046102fb82613d2d565b8101606b815203019020613f38600660405192613fae8461325e565b80546001600160a01b03168452613fc7600182016135c2565b6020850152613fd8600282016135c2565b6040850152613fe9600382016135c2565b6060850152613ffa600482016135c2565b608085015261400b600582016135c2565b60a0850152016135c2565b602061406491600060e060405161402c81613294565b82815260608582015260606040820152606080820152606060808201528260a0820152606060c082015201526103046102fb82613d2d565b8101606d8152030190206040519061407b82613294565b8054825261408b600182016135c2565b602083015261409c600282016135c2565b60408301526140ad600382016135c2565b60608301526140be600482016135c2565b6080830152600581015460a08301526140d9600682016135c2565b60c0830152600701546001600160a01b031660e082015290565b6001600160a01b039182168152911660208201526040810191909152606081019190915260800190565b6020614136918160405193828580945193849201613333565b8101606a81520301902054806068556133926141506137f6565b821515613565565b606954604051634c313ae760e11b602082019081526001600160a01b038087166024840152604483018690529495939460009384939116919083906141a081606481016101f5565b51925af1506141ad6134fa565b602081519181808201938492010103126101035782905110156141d5575b5050505060685490565b600080949361420c82956101f560018060a01b0360695416966040519485936020850198632413534f60e11b8a52602486016140f3565b51925af1506142196134fa565b50388080806141cb565b9060609261424061424e9297969597608085526080850190613356565b908382036020850152613356565b9460408201520152565b6001600160a01b0316613d3757600190565b604051614298602082816142878183019687815193849201613333565b81010301601f1981018352826132b0565b519020906040516142b9602082816142878183019687815193849201613333565b519020146142c657600090565b60019056fe9016d09d72d40fdae2fd8ceac6b6234c7706214fd39c1cd1e609a0528c199300a26469706673582212204907dfd198e3bdcd44cec8e7c49559beef3817eaa91346515b6855d6dc5ce17564736f6c634300081a0033",
  "linkReferences": {},
  "deployedLinkReferences": {}
}