{
  "_format": "hh-sol-artifact-1",
  "contractName": "ProxyImp",
  "sourceName": "contracts/proxy/ProxyImp.sol",
  "abi": [
    {
      "inputs": [],
      "stateMutability": "nonpayable",
      "type": "constructor"
    },
    {
      "stateMutability": "payable",
      "type": "fallback"
    },
    {
      "inputs": [],
      "name": "implementation",
      "outputs": [
        {
          "internalType": "address",
          "name": "",
          "type": "address"
        }
      ],
      "stateMutability": "view",
      "type": "function"
    },
    {
      "inputs": [
        {
          "internalType": "address",
          "name": "_implementation",
          "type": "address"
        }
      ],
      "name": "setImplementation",
      "outputs": [],
      "stateMutability": "nonpayable",
      "type": "function"
    }
  ],
  "bytecode": "0x60808060405234602757603480546001600160a01b03191633179055610230908161002d8239f35b600080fdfe60806040526004361061016b5760003560e01c80635c60da1b146100a25763d784d4260361016b573461009d57602036600319011261009d576004356001600160a01b0381169081900361009d5761008760018060a01b036034541633146100656100df565b90722737ba1020baba3437b934bd32b2102ab9b2b960691b6020830152610108565b603380546001600160a01b031916919091179055005b600080fd5b3461009d57600036600319011261009d576033546001600160a01b03166080908152602090f35b634e487b7160e01b600052604160045260246000fd5b604051906040820182811067ffffffffffffffff8211176101035760405260138252565b6100c9565b156101105750565b6040519062461bcd60e51b8252602060048301528181519182602483015260005b8381106101535750508160006044809484010152601f80199101168101030190fd5b60208282018101516044878401015285935001610131565b60335460405160608101916001600160a01b031667ffffffffffffffff831182841017610103576101db600093928493604052602281527f4163636f756e74204e756d6265722073686f756c64206e6f7420626520656d70602082015261747960f01b6040820152821515610108565b6040513683823736915af43d6000803e156101f5573d6000f35b3d6000fdfea2646970667358221220e9a667dafe2cccae48a53147a34dac4771758f9bff883082140835756964541864736f6c634300081a0033",
  "linkReferences": {},
  "deployedLinkReferences": {}
}